{
  "contractName": "weeveFactory",
  "abi": [
    {
      "constant": true,
      "inputs": [
        {
          "name": "",
          "type": "uint256"
        }
      ],
      "name": "allMarketplaces",
      "outputs": [
        {
          "name": "id",
          "type": "uint256"
        },
        {
          "name": "name",
          "type": "string"
        },
        {
          "name": "owner",
          "type": "address"
        },
        {
          "name": "marketplaceAddress",
          "type": "address"
        },
        {
          "name": "stakedTokens",
          "type": "uint256"
        },
        {
          "name": "active",
          "type": "bool"
        }
      ],
      "payable": false,
      "stateMutability": "view",
      "type": "function"
    },
    {
      "constant": true,
      "inputs": [],
      "name": "vote",
      "outputs": [
        {
          "name": "",
          "type": "address"
        }
      ],
      "payable": false,
      "stateMutability": "view",
      "type": "function"
    },
    {
      "constant": true,
      "inputs": [],
      "name": "weeveRegistryHash",
      "outputs": [
        {
          "name": "",
          "type": "bytes32"
        }
      ],
      "payable": false,
      "stateMutability": "view",
      "type": "function"
    },
    {
      "constant": false,
      "inputs": [],
      "name": "acceptOwnership",
      "outputs": [],
      "payable": false,
      "stateMutability": "nonpayable",
      "type": "function"
    },
    {
      "constant": true,
      "inputs": [],
      "name": "owner",
      "outputs": [
        {
          "name": "",
          "type": "address"
        }
      ],
      "payable": false,
      "stateMutability": "view",
      "type": "function"
    },
    {
      "constant": true,
      "inputs": [],
      "name": "weeveMarketplaceHash",
      "outputs": [
        {
          "name": "",
          "type": "bytes32"
        }
      ],
      "payable": false,
      "stateMutability": "view",
      "type": "function"
    },
    {
      "constant": true,
      "inputs": [],
      "name": "newOwner",
      "outputs": [
        {
          "name": "",
          "type": "address"
        }
      ],
      "payable": false,
      "stateMutability": "view",
      "type": "function"
    },
    {
      "constant": true,
      "inputs": [
        {
          "name": "",
          "type": "uint256"
        }
      ],
      "name": "allRegistries",
      "outputs": [
        {
          "name": "id",
          "type": "uint256"
        },
        {
          "name": "name",
          "type": "string"
        },
        {
          "name": "owner",
          "type": "address"
        },
        {
          "name": "registryAddress",
          "type": "address"
        },
        {
          "name": "stakedTokens",
          "type": "uint256"
        },
        {
          "name": "active",
          "type": "bool"
        }
      ],
      "payable": false,
      "stateMutability": "view",
      "type": "function"
    },
    {
      "constant": false,
      "inputs": [
        {
          "name": "_newOwner",
          "type": "address"
        }
      ],
      "name": "transferOwnership",
      "outputs": [],
      "payable": false,
      "stateMutability": "nonpayable",
      "type": "function"
    },
    {
      "constant": true,
      "inputs": [],
      "name": "token",
      "outputs": [
        {
          "name": "",
          "type": "address"
        }
      ],
      "payable": false,
      "stateMutability": "view",
      "type": "function"
    },
    {
      "inputs": [
        {
          "name": "_erc20Address",
          "type": "address"
        },
        {
          "name": "_votingAddress",
          "type": "address"
        }
      ],
      "payable": false,
      "stateMutability": "nonpayable",
      "type": "constructor"
    },
    {
      "anonymous": false,
      "inputs": [
        {
          "indexed": true,
          "name": "_from",
          "type": "address"
        },
        {
          "indexed": true,
          "name": "_to",
          "type": "address"
        }
      ],
      "name": "OwnershipTransferred",
      "type": "event"
    },
    {
      "constant": false,
      "inputs": [
        {
          "name": "_contractCode",
          "type": "bytes"
        }
      ],
      "name": "setNewRegistryHash",
      "outputs": [],
      "payable": false,
      "stateMutability": "nonpayable",
      "type": "function"
    },
    {
      "constant": false,
      "inputs": [
        {
          "name": "_contractCode",
          "type": "bytes"
        }
      ],
      "name": "setNewMarketplaceHash",
      "outputs": [],
      "payable": false,
      "stateMutability": "nonpayable",
      "type": "function"
    },
    {
      "constant": false,
      "inputs": [
        {
          "name": "_newStakeMarketplace",
          "type": "uint256"
        }
      ],
      "name": "setNewMarketplaceStake",
      "outputs": [],
      "payable": false,
      "stateMutability": "nonpayable",
      "type": "function"
    },
    {
      "constant": false,
      "inputs": [
        {
          "name": "_newStakeRegistry",
          "type": "uint256"
        }
      ],
      "name": "setNewRegistryStake",
      "outputs": [],
      "payable": false,
      "stateMutability": "nonpayable",
      "type": "function"
    },
    {
      "constant": false,
      "inputs": [
        {
          "name": "_name",
          "type": "string"
        },
        {
          "name": "_stakePerRegistration",
          "type": "uint256"
        },
        {
          "name": "_stakePerArbiter",
          "type": "uint256"
        },
        {
          "name": "_stakePerValidator",
          "type": "uint256"
        },
        {
          "name": "_contractCode",
          "type": "bytes"
        }
      ],
      "name": "createRegistry",
      "outputs": [
        {
          "name": "newRegistryAddress",
          "type": "address"
        }
      ],
      "payable": false,
      "stateMutability": "nonpayable",
      "type": "function"
    },
    {
      "constant": false,
      "inputs": [
        {
          "name": "_name",
          "type": "string"
        },
        {
          "name": "_commission",
          "type": "uint256"
        },
        {
          "name": "_contractCode",
          "type": "bytes"
        }
      ],
      "name": "createMarketplace",
      "outputs": [
        {
          "name": "newMarketplaceAddress",
          "type": "address"
        }
      ],
      "payable": false,
      "stateMutability": "nonpayable",
      "type": "function"
    },
    {
      "constant": false,
      "inputs": [
        {
          "name": "_id",
          "type": "uint256"
        }
      ],
      "name": "closeRegistry",
      "outputs": [],
      "payable": false,
      "stateMutability": "nonpayable",
      "type": "function"
    },
    {
      "constant": false,
      "inputs": [
        {
          "name": "_id",
          "type": "uint256"
        }
      ],
      "name": "closeMarketplace",
      "outputs": [],
      "payable": false,
      "stateMutability": "nonpayable",
      "type": "function"
    },
    {
      "constant": false,
      "inputs": [],
      "name": "getTestTokens",
      "outputs": [],
      "payable": false,
      "stateMutability": "nonpayable",
      "type": "function"
    }
  ],
  "bytecode": "0x608060405234801561001057600080fd5b50604051604080612da08339810180604052810190808051906020019092919080519060200190929190505050336000806101000a81548173ffffffffffffffffffffffffffffffffffffffff021916908373ffffffffffffffffffffffffffffffffffffffff160217905550600073ffffffffffffffffffffffffffffffffffffffff168273ffffffffffffffffffffffffffffffffffffffff16141515156100b957600080fd5b600073ffffffffffffffffffffffffffffffffffffffff168273ffffffffffffffffffffffffffffffffffffffff16141515156100f557600080fd5b81600960006101000a81548173ffffffffffffffffffffffffffffffffffffffff021916908373ffffffffffffffffffffffffffffffffffffffff16021790555080600a60006101000a81548173ffffffffffffffffffffffffffffffffffffffff021916908373ffffffffffffffffffffffffffffffffffffffff160217905550600060010260028160001916905550600060010260038160001916905550683635c9adc5dea00000600b81905550683635c9adc5dea00000600c819055505050612bda806101c66000396000f300608060405260043610610107576000357c0100000000000000000000000000000000000000000000000000000000900463ffffffff16806305c3d57c1461010c578063142ce2a914610231578063148529ef1461032a57806323595ebb1461039357806326164553146103fc578063632a9a52146104295780637972fce81461048057806379ba5097146104b357806383a588d9146104ca5780638da5cb5b146104f757806394332baf1461054e578063973f4c41146105815780639efa00c1146105ae578063a47426dd146105db578063d1300eb6146106e8578063d4ee1d90146106ff578063e21db8ba14610756578063f2fde38b1461087b578063fc0c546a146108be575b600080fd5b34801561011857600080fd5b5061013760048036038101908080359060200190929190505050610915565b60405180878152602001806020018673ffffffffffffffffffffffffffffffffffffffff1673ffffffffffffffffffffffffffffffffffffffff1681526020018573ffffffffffffffffffffffffffffffffffffffff1673ffffffffffffffffffffffffffffffffffffffff16815260200184815260200183151515158152602001828103825287818151815260200191508051906020019080838360005b838110156101f15780820151818401526020810190506101d6565b50505050905090810190601f16801561021e5780820380516001836020036101000a031916815260200191505b5097505050505050505060405180910390f35b34801561023d57600080fd5b506102e8600480360381019080803590602001908201803590602001908080601f016020809104026020016040519081016040528093929190818152602001838380828437820191505050505050919291929080359060200190929190803590602001908201803590602001908080601f0160208091040260200160405190810160405280939291908181526020018383808284378201915050505050509192919290505050610a45565b604051808273ffffffffffffffffffffffffffffffffffffffff1673ffffffffffffffffffffffffffffffffffffffff16815260200191505060405180910390f35b34801561033657600080fd5b50610391600480360381019080803590602001908201803590602001908080601f0160208091040260200160405190810160405280939291908181526020018383808284378201915050505050509192919290505050611000565b005b34801561039f57600080fd5b506103fa600480360381019080803590602001908201803590602001908080601f01602080910402602001604051908101604052809392919081815260200183838082843782019150505050505091929192905050506110cb565b005b34801561040857600080fd5b5061042760048036038101908080359060200190929190505050611196565b005b34801561043557600080fd5b5061043e611488565b604051808273ffffffffffffffffffffffffffffffffffffffff1673ffffffffffffffffffffffffffffffffffffffff16815260200191505060405180910390f35b34801561048c57600080fd5b506104956114ae565b60405180826000191660001916815260200191505060405180910390f35b3480156104bf57600080fd5b506104c86114b4565b005b3480156104d657600080fd5b506104f560048036038101908080359060200190929190505050611653565b005b34801561050357600080fd5b5061050c6116b8565b604051808273ffffffffffffffffffffffffffffffffffffffff1673ffffffffffffffffffffffffffffffffffffffff16815260200191505060405180910390f35b34801561055a57600080fd5b506105636116dd565b60405180826000191660001916815260200191505060405180910390f35b34801561058d57600080fd5b506105ac600480360381019080803590602001909291905050506116e3565b005b3480156105ba57600080fd5b506105d960048036038101908080359060200190929190505050611748565b005b3480156105e757600080fd5b506106a6600480360381019080803590602001908201803590602001908080601f0160208091040260200160405190810160405280939291908181526020018383808284378201915050505050509192919290803590602001909291908035906020019092919080359060200190929190803590602001908201803590602001908080601f0160208091040260200160405190810160405280939291908181526020018383808284378201915050505050509192919290505050611b7d565b604051808273ffffffffffffffffffffffffffffffffffffffff1673ffffffffffffffffffffffffffffffffffffffff16815260200191505060405180910390f35b3480156106f457600080fd5b506106fd612251565b005b34801561070b57600080fd5b50610714612457565b604051808273ffffffffffffffffffffffffffffffffffffffff1673ffffffffffffffffffffffffffffffffffffffff16815260200191505060405180910390f35b34801561076257600080fd5b506107816004803603810190808035906020019092919050505061247d565b60405180878152602001806020018673ffffffffffffffffffffffffffffffffffffffff1673ffffffffffffffffffffffffffffffffffffffff1681526020018573ffffffffffffffffffffffffffffffffffffffff1673ffffffffffffffffffffffffffffffffffffffff16815260200184815260200183151515158152602001828103825287818151815260200191508051906020019080838360005b8381101561083b578082015181840152602081019050610820565b50505050905090810190601f1680156108685780820380516001836020036101000a031916815260200191505b5097505050505050505060405180910390f35b34801561088757600080fd5b506108bc600480360381019080803573ffffffffffffffffffffffffffffffffffffffff1690602001909291905050506125ad565b005b3480156108ca57600080fd5b506108d3612688565b604051808273ffffffffffffffffffffffffffffffffffffffff1673ffffffffffffffffffffffffffffffffffffffff16815260200191505060405180910390f35b60088181548110151561092457fe5b9060005260206000209060060201600091509050806000015490806001018054600181600116156101000203166002900480601f0160208091040260200160405190810160405280929190818152602001828054600181600116156101000203166002900480156109d65780601f106109ab576101008083540402835291602001916109d6565b820191906000526020600020905b8154815290600101906020018083116109b957829003601f168201915b5050505050908060020160009054906101000a900473ffffffffffffffffffffffffffffffffffffffff16908060030160009054906101000a900473ffffffffffffffffffffffffffffffffffffffff16908060040154908060050160009054906101000a900460ff16905086565b6000610a4f612a3f565b600033600c5480600960009054906101000a900473ffffffffffffffffffffffffffffffffffffffff1673ffffffffffffffffffffffffffffffffffffffff1663dd62ed3e84306040518363ffffffff167c0100000000000000000000000000000000000000000000000000000000028152600401808373ffffffffffffffffffffffffffffffffffffffff1673ffffffffffffffffffffffffffffffffffffffff1681526020018273ffffffffffffffffffffffffffffffffffffffff1673ffffffffffffffffffffffffffffffffffffffff16815260200192505050602060405180830381600087803b158015610b4757600080fd5b505af1158015610b5b573d6000803e3d6000fd5b505050506040513d6020811015610b7157600080fd5b810190808051906020019092919050505010151515610b8f57600080fd5b856040518082805190602001908083835b602083101515610bc55780518252602082019150602081019050602083039250610ba0565b6001836020036101000a03801982511681845116808217855250505050505090500191505060405180910390206000191660035460001916141515610c0957600080fd5b60088054905084600001818152505087846020018190525033846040019073ffffffffffffffffffffffffffffffffffffffff16908173ffffffffffffffffffffffffffffffffffffffff1681525050610c6533600c546126ae565b846080018181525050600c54846080015110151515610c8357600080fd5b610c8c866127f8565b846060019073ffffffffffffffffffffffffffffffffffffffff16908173ffffffffffffffffffffffffffffffffffffffff1681525050600073ffffffffffffffffffffffffffffffffffffffff16846060015173ffffffffffffffffffffffffffffffffffffffff1614151515610d0357600080fd5b836060015192508273ffffffffffffffffffffffffffffffffffffffff16634f3bddeb8989336040518463ffffffff167c010000000000000000000000000000000000000000000000000000000002815260040180806020018481526020018373ffffffffffffffffffffffffffffffffffffffff1673ffffffffffffffffffffffffffffffffffffffff168152602001828103825285818151815260200191508051906020019080838360005b83811015610dcc578082015181840152602081019050610db1565b50505050905090810190601f168015610df95780820380516001836020036101000a031916815260200191505b50945050505050602060405180830381600087803b158015610e1a57600080fd5b505af1158015610e2e573d6000803e3d6000fd5b505050506040513d6020811015610e4457600080fd5b81019080805190602001909291905050501515610e6057600080fd5b60018460a0019015159081151581525050600560003373ffffffffffffffffffffffffffffffffffffffff1673ffffffffffffffffffffffffffffffffffffffff1681526020019081526020016000208460000151908060018154018082558091505090600182039060005260206000200160009091929091909150555060088490806001815401808255809150509060018203906000526020600020906006020160009091929091909150600082015181600001556020820151816001019080519060200190610f32929190612aa4565b5060408201518160020160006101000a81548173ffffffffffffffffffffffffffffffffffffffff021916908373ffffffffffffffffffffffffffffffffffffffff16021790555060608201518160030160006101000a81548173ffffffffffffffffffffffffffffffffffffffff021916908373ffffffffffffffffffffffffffffffffffffffff1602179055506080820151816004015560a08201518160050160006101000a81548160ff02191690831515021790555050505083606001519450505050509392505050565b6000809054906101000a900473ffffffffffffffffffffffffffffffffffffffff1673ffffffffffffffffffffffffffffffffffffffff163373ffffffffffffffffffffffffffffffffffffffff1614151561105b57600080fd5b806040518082805190602001908083835b602083101515611091578051825260208201915060208101905060208303925061106c565b6001836020036101000a03801982511681845116808217855250505050505090500191505060405180910390206002816000191690555050565b6000809054906101000a900473ffffffffffffffffffffffffffffffffffffffff1673ffffffffffffffffffffffffffffffffffffffff163373ffffffffffffffffffffffffffffffffffffffff1614151561112657600080fd5b806040518082805190602001908083835b60208310151561115c5780518252602082019150602081019050602083039250611137565b6001836020036101000a03801982511681845116808217855250505050505090500191505060405180910390206003816000191690555050565b600033828173ffffffffffffffffffffffffffffffffffffffff166008828154811015156111c057fe5b906000526020600020906006020160020160009054906101000a900473ffffffffffffffffffffffffffffffffffffffff1673ffffffffffffffffffffffffffffffffffffffff1614151561121457600080fd5b60088481548110151561122357fe5b906000526020600020906006020160030160009054906101000a900473ffffffffffffffffffffffffffffffffffffffff16925060008373ffffffffffffffffffffffffffffffffffffffff1663b7cac6ab6040518163ffffffff167c0100000000000000000000000000000000000000000000000000000000028152600401602060405180830381600087803b1580156112bd57600080fd5b505af11580156112d1573d6000803e3d6000fd5b505050506040513d60208110156112e757600080fd5b810190808051906020019092919050505014151561130457600080fd5b8273ffffffffffffffffffffffffffffffffffffffff1663163edd386040518163ffffffff167c0100000000000000000000000000000000000000000000000000000000028152600401602060405180830381600087803b15801561136857600080fd5b505af115801561137c573d6000803e3d6000fd5b505050506040513d602081101561139257600080fd5b810190808051906020019092919050505015156113ae57600080fd5b6114186008858154811015156113c057fe5b906000526020600020906006020160020160009054906101000a900473ffffffffffffffffffffffffffffffffffffffff1660088681548110151561140157fe5b906000526020600020906006020160040154612822565b151561142357600080fd5b600060088581548110151561143457fe5b906000526020600020906006020160040181905550600060088581548110151561145a57fe5b906000526020600020906006020160050160006101000a81548160ff02191690831515021790555050505050565b600a60009054906101000a900473ffffffffffffffffffffffffffffffffffffffff1681565b60025481565b600160009054906101000a900473ffffffffffffffffffffffffffffffffffffffff1673ffffffffffffffffffffffffffffffffffffffff163373ffffffffffffffffffffffffffffffffffffffff1614151561151057600080fd5b600160009054906101000a900473ffffffffffffffffffffffffffffffffffffffff1673ffffffffffffffffffffffffffffffffffffffff166000809054906101000a900473ffffffffffffffffffffffffffffffffffffffff1673ffffffffffffffffffffffffffffffffffffffff167f8be0079c531659141344cd1fd0a4f28419497f9722a3daafe3b4186f6b6457e060405160405180910390a3600160009054906101000a900473ffffffffffffffffffffffffffffffffffffffff166000806101000a81548173ffffffffffffffffffffffffffffffffffffffff021916908373ffffffffffffffffffffffffffffffffffffffff1602179055506000600160006101000a81548173ffffffffffffffffffffffffffffffffffffffff021916908373ffffffffffffffffffffffffffffffffffffffff160217905550565b6000809054906101000a900473ffffffffffffffffffffffffffffffffffffffff1673ffffffffffffffffffffffffffffffffffffffff163373ffffffffffffffffffffffffffffffffffffffff161415156116ae57600080fd5b80600c8190555050565b6000809054906101000a900473ffffffffffffffffffffffffffffffffffffffff1681565b60035481565b6000809054906101000a900473ffffffffffffffffffffffffffffffffffffffff1673ffffffffffffffffffffffffffffffffffffffff163373ffffffffffffffffffffffffffffffffffffffff1614151561173e57600080fd5b80600b8190555050565b600033828173ffffffffffffffffffffffffffffffffffffffff1660078281548110151561177257fe5b906000526020600020906006020160020160009054906101000a900473ffffffffffffffffffffffffffffffffffffffff1673ffffffffffffffffffffffffffffffffffffffff161415156117c657600080fd5b6007848154811015156117d557fe5b906000526020600020906006020160030160009054906101000a900473ffffffffffffffffffffffffffffffffffffffff16925060008373ffffffffffffffffffffffffffffffffffffffff1663868578a46040518163ffffffff167c0100000000000000000000000000000000000000000000000000000000028152600401602060405180830381600087803b15801561186f57600080fd5b505af1158015611883573d6000803e3d6000fd5b505050506040513d602081101561189957600080fd5b81019080805190602001909291905050501415156118b657600080fd5b8273ffffffffffffffffffffffffffffffffffffffff166308ef4f746040518163ffffffff167c0100000000000000000000000000000000000000000000000000000000028152600401602060405180830381600087803b15801561191a57600080fd5b505af115801561192e573d6000803e3d6000fd5b505050506040513d602081101561194457600080fd5b8101908080519060200190929190505050151561196057600080fd5b6119ca60078581548110151561197257fe5b906000526020600020906006020160020160009054906101000a900473ffffffffffffffffffffffffffffffffffffffff166007868154811015156119b357fe5b906000526020600020906006020160040154612822565b15156119d557600080fd5b600a60009054906101000a900473ffffffffffffffffffffffffffffffffffffffff1673ffffffffffffffffffffffffffffffffffffffff16631f2e1396600786815481101515611a2257fe5b906000526020600020906006020160030160009054906101000a900473ffffffffffffffffffffffffffffffffffffffff166040518263ffffffff167c0100000000000000000000000000000000000000000000000000000000028152600401808273ffffffffffffffffffffffffffffffffffffffff1673ffffffffffffffffffffffffffffffffffffffff168152602001915050602060405180830381600087803b158015611ad257600080fd5b505af1158015611ae6573d6000803e3d6000fd5b505050506040513d6020811015611afc57600080fd5b81019080805190602001909291905050501515611b1857600080fd5b6000600785815481101515611b2957fe5b9060005260206000209060060201600401819055506000600785815481101515611b4f57fe5b906000526020600020906006020160050160006101000a81548160ff02191690831515021790555050505050565b6000611b87612b24565b600033600b5480600960009054906101000a900473ffffffffffffffffffffffffffffffffffffffff1673ffffffffffffffffffffffffffffffffffffffff1663dd62ed3e84306040518363ffffffff167c0100000000000000000000000000000000000000000000000000000000028152600401808373ffffffffffffffffffffffffffffffffffffffff1673ffffffffffffffffffffffffffffffffffffffff1681526020018273ffffffffffffffffffffffffffffffffffffffff1673ffffffffffffffffffffffffffffffffffffffff16815260200192505050602060405180830381600087803b158015611c7f57600080fd5b505af1158015611c93573d6000803e3d6000fd5b505050506040513d6020811015611ca957600080fd5b810190808051906020019092919050505010151515611cc757600080fd5b856040518082805190602001908083835b602083101515611cfd5780518252602082019150602081019050602083039250611cd8565b6001836020036101000a03801982511681845116808217855250505050505090500191505060405180910390206000191660025460001916141515611d4157600080fd5b60078054905084600001818152505089846020018190525033846040019073ffffffffffffffffffffffffffffffffffffffff16908173ffffffffffffffffffffffffffffffffffffffff1681525050611d9d33600b546126ae565b846080018181525050600b54846080015110151515611dbb57600080fd5b611dc4866127f8565b846060019073ffffffffffffffffffffffffffffffffffffffff16908173ffffffffffffffffffffffffffffffffffffffff1681525050600073ffffffffffffffffffffffffffffffffffffffff16846060015173ffffffffffffffffffffffffffffffffffffffff1614151515611e3b57600080fd5b836060015192508273ffffffffffffffffffffffffffffffffffffffff1663631831fb8b8b8b8b336040518663ffffffff167c010000000000000000000000000000000000000000000000000000000002815260040180806020018681526020018581526020018481526020018373ffffffffffffffffffffffffffffffffffffffff1673ffffffffffffffffffffffffffffffffffffffff168152602001828103825287818151815260200191508051906020019080838360005b83811015611f12578082015181840152602081019050611ef7565b50505050905090810190601f168015611f3f5780820380516001836020036101000a031916815260200191505b509650505050505050602060405180830381600087803b158015611f6257600080fd5b505af1158015611f76573d6000803e3d6000fd5b505050506040513d6020811015611f8c57600080fd5b81019080805190602001909291905050501515611fa857600080fd5b600a60009054906101000a900473ffffffffffffffffffffffffffffffffffffffff1673ffffffffffffffffffffffffffffffffffffffff1663f9dc3b7f85606001516040518263ffffffff167c0100000000000000000000000000000000000000000000000000000000028152600401808273ffffffffffffffffffffffffffffffffffffffff1673ffffffffffffffffffffffffffffffffffffffff168152602001915050602060405180830381600087803b15801561206957600080fd5b505af115801561207d573d6000803e3d6000fd5b505050506040513d602081101561209357600080fd5b810190808051906020019092919050505015156120af57600080fd5b60018460a0019015159081151581525050600460003373ffffffffffffffffffffffffffffffffffffffff1673ffffffffffffffffffffffffffffffffffffffff1681526020019081526020016000208460000151908060018154018082558091505090600182039060005260206000200160009091929091909150555060078490806001815401808255809150509060018203906000526020600020906006020160009091929091909150600082015181600001556020820151816001019080519060200190612181929190612aa4565b5060408201518160020160006101000a81548173ffffffffffffffffffffffffffffffffffffffff021916908373ffffffffffffffffffffffffffffffffffffffff16021790555060608201518160030160006101000a81548173ffffffffffffffffffffffffffffffffffffffff021916908373ffffffffffffffffffffffffffffffffffffffff1602179055506080820151816004015560a08201518160050160006101000a81548160ff021916908315150217905550505050836060015194505050505095945050505050565b600660003373ffffffffffffffffffffffffffffffffffffffff1673ffffffffffffffffffffffffffffffffffffffff16815260200190815260200160002060009054906101000a900460ff161515156122aa57600080fd5b600960009054906101000a900473ffffffffffffffffffffffffffffffffffffffff1673ffffffffffffffffffffffffffffffffffffffff166323b872dd73e678581277cc36de3960a52de86290872a0399153369010f0cf064dd592000006040518463ffffffff167c0100000000000000000000000000000000000000000000000000000000028152600401808473ffffffffffffffffffffffffffffffffffffffff1673ffffffffffffffffffffffffffffffffffffffff1681526020018373ffffffffffffffffffffffffffffffffffffffff1673ffffffffffffffffffffffffffffffffffffffff1681526020018281526020019350505050602060405180830381600087803b1580156123c157600080fd5b505af11580156123d5573d6000803e3d6000fd5b505050506040513d60208110156123eb57600080fd5b8101908080519060200190929190505050506001600660003373ffffffffffffffffffffffffffffffffffffffff1673ffffffffffffffffffffffffffffffffffffffff16815260200190815260200160002060006101000a81548160ff021916908315150217905550565b600160009054906101000a900473ffffffffffffffffffffffffffffffffffffffff1681565b60078181548110151561248c57fe5b9060005260206000209060060201600091509050806000015490806001018054600181600116156101000203166002900480601f01602080910402602001604051908101604052809291908181526020018280546001816001161561010002031660029004801561253e5780601f106125135761010080835404028352916020019161253e565b820191906000526020600020905b81548152906001019060200180831161252157829003601f168201915b5050505050908060020160009054906101000a900473ffffffffffffffffffffffffffffffffffffffff16908060030160009054906101000a900473ffffffffffffffffffffffffffffffffffffffff16908060040154908060050160009054906101000a900460ff16905086565b6000809054906101000a900473ffffffffffffffffffffffffffffffffffffffff1673ffffffffffffffffffffffffffffffffffffffff163373ffffffffffffffffffffffffffffffffffffffff1614151561260857600080fd5b600073ffffffffffffffffffffffffffffffffffffffff168173ffffffffffffffffffffffffffffffffffffffff161415151561264457600080fd5b80600160006101000a81548173ffffffffffffffffffffffffffffffffffffffff021916908373ffffffffffffffffffffffffffffffffffffffff16021790555050565b600960009054906101000a900473ffffffffffffffffffffffffffffffffffffffff1681565b6000600960009054906101000a900473ffffffffffffffffffffffffffffffffffffffff1673ffffffffffffffffffffffffffffffffffffffff166323b872dd8430856040518463ffffffff167c0100000000000000000000000000000000000000000000000000000000028152600401808473ffffffffffffffffffffffffffffffffffffffff1673ffffffffffffffffffffffffffffffffffffffff1681526020018373ffffffffffffffffffffffffffffffffffffffff1673ffffffffffffffffffffffffffffffffffffffff1681526020018281526020019350505050602060405180830381600087803b1580156127a957600080fd5b505af11580156127bd573d6000803e3d6000fd5b505050506040513d60208110156127d357600080fd5b810190808051906020019092919050505015156127ef57600080fd5b81905092915050565b6000808251602084016000f091506000823b11905060008111151561281c57600080fd5b50919050565b600081600960009054906101000a900473ffffffffffffffffffffffffffffffffffffffff1673ffffffffffffffffffffffffffffffffffffffff166370a08231306040518263ffffffff167c0100000000000000000000000000000000000000000000000000000000028152600401808273ffffffffffffffffffffffffffffffffffffffff1673ffffffffffffffffffffffffffffffffffffffff168152602001915050602060405180830381600087803b1580156128e257600080fd5b505af11580156128f6573d6000803e3d6000fd5b505050506040513d602081101561290c57600080fd5b81019080805190602001909291905050501015151561292a57600080fd5b600960009054906101000a900473ffffffffffffffffffffffffffffffffffffffff1673ffffffffffffffffffffffffffffffffffffffff1663a9059cbb84846040518363ffffffff167c0100000000000000000000000000000000000000000000000000000000028152600401808373ffffffffffffffffffffffffffffffffffffffff1673ffffffffffffffffffffffffffffffffffffffff16815260200182815260200192505050602060405180830381600087803b1580156129ef57600080fd5b505af1158015612a03573d6000803e3d6000fd5b505050506040513d6020811015612a1957600080fd5b81019080805190602001909291905050501515612a3557600080fd5b6001905092915050565b60c0604051908101604052806000815260200160608152602001600073ffffffffffffffffffffffffffffffffffffffff168152602001600073ffffffffffffffffffffffffffffffffffffffff168152602001600081526020016000151581525090565b828054600181600116156101000203166002900490600052602060002090601f016020900481019282601f10612ae557805160ff1916838001178555612b13565b82800160010185558215612b13579182015b82811115612b12578251825591602001919060010190612af7565b5b509050612b209190612b89565b5090565b60c0604051908101604052806000815260200160608152602001600073ffffffffffffffffffffffffffffffffffffffff168152602001600073ffffffffffffffffffffffffffffffffffffffff168152602001600081526020016000151581525090565b612bab91905b80821115612ba7576000816000905550600101612b8f565b5090565b905600a165627a7a723058200b745c5e91ba81484d1c5399371c75eb922de91c01332621447b42706fa3125c0029",
  "source": "pragma solidity ^0.4.24;\n\nimport \"./libraries/SafeMath.sol\";\nimport \"./libraries/Owned.sol\";\n\n// Basic ERC20 Interface \ninterface ERC20 {\n    function totalSupply() external returns (uint);\n    function balanceOf(address tokenOwner) external returns (uint256 balance);\n    function allowance(address tokenOwner, address spender) external returns (uint256 remaining);\n    function transfer(address to, uint256 tokens) external returns (bool success);\n    function approve(address spender, uint256 tokens) external returns (bool success);\n    function transferFrom(address from, address to, uint256 tokens) external returns (bool success);\n}\n\n// Interface for our registries\ninterface weeveRegistry {\n    function initialize(string _name, uint256 _stakePerRegistration, uint256 _stakePerArbiter, uint256 _stakePerValidator, address _owner) external returns (bool);\n    function closeRegistry() external returns (bool);\n    function getTotalDeviceCount() external returns (uint256 numberOfDevices);\n}\n\n// Interface for our marketplaces\ninterface weeveMarketplace {\n    function initialize(string _name, uint256 _commission, address _owner) external returns (bool);\n    function closeMarketplace() external returns (bool);\n    function getTotalTradeCount() external returns (uint256 numberOfCurrentTrades);\n}\n\n// Interface for our voting scheme\ninterface weeveVoting {  \n    function addWeeveContract(address _newContract) external returns (bool success);\n    function removeWeeveContract(address _obsoleteContract) external returns (bool success);\n}\n\ncontract weeveFactory is Owned {\n    using SafeMath for uint;\n\n    // The current hash of the valid registry and marketplace code\n    // (Will be replaced by an array of hashes soon-ish)\n    bytes32 public weeveRegistryHash;\n    bytes32 public weeveMarketplaceHash;\n\n    // Mapping from address to uint-array (maps an address to all of its registry id's)\n    mapping(address => uint256[]) userRegistries;\n\n    // Mapping from address to uint-array (maps an address to all of its marketplace id's)\n    mapping(address => uint256[]) userMarketplaces;\n\n    // Mapping from address to a bool, to check whether this address has already had its share of test-WEEV\n    mapping(address => bool) hasWithdrawnTestWEEV;\n\n    struct Registry {\n        uint256 id;\n        string name;\n        address owner;\n        address registryAddress;\n        uint256 stakedTokens;\n        bool active;\n    }\n\n    struct Marketplace {\n        uint256 id;\n        string name;\n        address owner;\n        address marketplaceAddress;\n        uint256 stakedTokens;\n        bool active;\n    }\n\n    // Array of all registries\n    Registry[] public allRegistries;\n\n    // Array of all registries\n    Marketplace[] public allMarketplaces;\n\n    // Our ERC20 token\n    ERC20 public token;\n\n    // Our voting contract\n    weeveVoting public vote;\n\n    // Tokens that need to be staked for each registry (soon to be dynamic)\n    uint256 tokensPerRegistryCreation;\n\n    // Tokens that need to be staked for each registry (soon to be dynamic)\n    uint256 tokensPerMarketplaceCreation;\n\n    constructor(address _erc20Address, address _votingAddress) public {\n        require(_erc20Address != address(0));\n        require(_erc20Address != address(0));\n        \n        // Setting the address of our WEEV token contract\n        token = ERC20(_erc20Address);        \n        \n        // Setting the address of our voting contract\n        vote = weeveVoting(_votingAddress);\n\n        // weeve Registry code hash (placeholder)\n        weeveRegistryHash = 0x0000000000000000000000000000000000000000000000000000000000000000;\n\n        // weeve Marketplace code hash (placeholder)\n        weeveMarketplaceHash = 0x0000000000000000000000000000000000000000000000000000000000000000;\n\n        // Tokens per Registry\n        tokensPerRegistryCreation = 1000 * 10**18;\n\n        // Tokens per Marketplace\n        tokensPerMarketplaceCreation = 1000 * 10**18;\n    }\n\n    // Setting a new valid registry code hash as an owner\n    function setNewRegistryHash(bytes _contractCode) public onlyOwner {\n        weeveRegistryHash = keccak256(_contractCode);\n    }\n\n    // Setting a new valid marketplace code hash as an owner\n    function setNewMarketplaceHash(bytes _contractCode) public onlyOwner {\n        weeveMarketplaceHash = keccak256(_contractCode);\n    }\n    \n    // Setting a new stake for marketplace creation as an owner\n    function setNewMarketplaceStake(uint256 _newStakeMarketplace) public onlyOwner {\n        tokensPerMarketplaceCreation = _newStakeMarketplace;\n    }\n    \n    // Setting a new stake for registry creation as an owner\n    function setNewRegistryStake(uint256 _newStakeRegistry) public onlyOwner {\n        tokensPerRegistryCreation = _newStakeRegistry;\n    }\n\n    // Creating a new registry\n    function createRegistry(string _name, uint256 _stakePerRegistration, uint256 _stakePerArbiter, uint256 _stakePerValidator, bytes _contractCode) public hasEnoughTokensAllowed(msg.sender, tokensPerRegistryCreation) returns (address newRegistryAddress) {\n        // Hash of the contract code has to be correct (no invalid/untrusted code can be deployed)\n        require(weeveRegistryHash == keccak256(_contractCode));\n\n        // Allocating a new registry struct\n        Registry memory newRegistry;\n        newRegistry.id = allRegistries.length;\n        newRegistry.name = _name;\n        newRegistry.owner = msg.sender;\n        \n        // Staking of the tokens\n        newRegistry.stakedTokens = stakeTokens(msg.sender, tokensPerRegistryCreation);\n        require(newRegistry.stakedTokens >= tokensPerRegistryCreation);\n\n        // Deploying the contract\n        newRegistry.registryAddress = deployCode(_contractCode);\n        require(newRegistry.registryAddress != address(0));\n\n        // Activating the new registry\n        weeveRegistry newWeeveRegistry = weeveRegistry(newRegistry.registryAddress);\n        require(newWeeveRegistry.initialize(_name, _stakePerRegistration, _stakePerArbiter, _stakePerValidator, msg.sender));\n\n        // Add the address to the voting contract\n        require(vote.addWeeveContract(newRegistry.registryAddress));\n\n        // The new registry is now active\n        newRegistry.active = true;\n\n        // Adding the registry to the users registry array\n        userRegistries[msg.sender].push(newRegistry.id);\n\n        // Adding the registry to the general registry array\n        allRegistries.push(newRegistry);\n        \n        // Returning the registries address\n        return newRegistry.registryAddress;\n    }\n\n    // Creating a new marketplace\n    function createMarketplace(string _name, uint256 _commission, bytes _contractCode) public hasEnoughTokensAllowed(msg.sender, tokensPerMarketplaceCreation) returns (address newMarketplaceAddress) {\n        // Hash of the contract code has to be correct (no invalid/untrusted code can be deployed)\n        require(weeveMarketplaceHash == keccak256(_contractCode));\n\n        // Allocating a new marketplace struct\n        Marketplace memory newMarketplace;\n        newMarketplace.id = allMarketplaces.length;\n        newMarketplace.name = _name;\n        newMarketplace.owner = msg.sender;\n        \n        // Staking of the tokens\n        newMarketplace.stakedTokens = stakeTokens(msg.sender, tokensPerMarketplaceCreation);\n        require(newMarketplace.stakedTokens >= tokensPerMarketplaceCreation);\n\n        // Deploying the contract\n        newMarketplace.marketplaceAddress = deployCode(_contractCode);\n        require(newMarketplace.marketplaceAddress != address(0));\n\n        // Activating the new marketplace\n        weeveMarketplace newWeeveMarketplace = weeveMarketplace(newMarketplace.marketplaceAddress);\n        require(newWeeveMarketplace.initialize(_name, _commission, msg.sender));\n\n        // The new marketplace is now active\n        newMarketplace.active = true;\n\n        // Adding the marketplace to the users marketplace array\n        userMarketplaces[msg.sender].push(newMarketplace.id);\n\n        // Adding the marketplace to the general marketplace array\n        allMarketplaces.push(newMarketplace);\n        \n        // Returning the marketplaces address\n        return newMarketplace.marketplaceAddress;\n    }\n    \n    // Internal function to deploy bytecode to the blockchain\n    function deployCode(bytes _contractCode) internal returns (address addr) {\n        uint256 asmReturnValue;\n        // Inline Assembly in generally considered insecure by most linters, but it's fine in this case\n        /* solium-disable-next-line */\n        assembly {\n            addr := create(0,add(_contractCode,0x20), mload(_contractCode))\n            asmReturnValue := gt(extcodesize(addr),0)\n        }\n        require(asmReturnValue > 0);\n    }\n\n    // Closing a registry where no devices are active anymore (only the registry owner is allowed to do this)\n    function closeRegistry(uint256 _id) public isOwnerOfRegistry(msg.sender, _id) {\n        weeveRegistry theRegistry = weeveRegistry(allRegistries[_id].registryAddress);\n        // Only if the amount of active devices is zero\n        require(theRegistry.getTotalDeviceCount() == 0);\n        // Calling the closeRegistry function of this registry\n        require(theRegistry.closeRegistry());\n        // Unstaking the remaining tokens\n        require(unstakeTokens(allRegistries[_id].owner, allRegistries[_id].stakedTokens));\n        // Remove the address from the voting contract\n        require(vote.removeWeeveContract(allRegistries[_id].registryAddress));\n        allRegistries[_id].stakedTokens = 0;\n        allRegistries[_id].active = false;\n    }\n\n    // Closing a registry where no devices are active anymore (only the registry owner is allowed to do this)\n    function closeMarketplace(uint256 _id) public isOwnerOfMarketplace(msg.sender, _id) {\n        weeveMarketplace theMarketplace = weeveMarketplace(allMarketplaces[_id].marketplaceAddress);\n        // Only if the amount of active devices is zero\n        require(theMarketplace.getTotalTradeCount() == 0);\n        // Calling the closeMarketplace function of this marketplace\n        require(theMarketplace.closeMarketplace());\n        // Unstaking the remaining tokens\n        require(unstakeTokens(allMarketplaces[_id].owner, allMarketplaces[_id].stakedTokens));\n        allMarketplaces[_id].stakedTokens = 0;\n        allMarketplaces[_id].active = false;\n        // TODO: Disable Marketplace\n    }\n\n    // Stake tokens through our ERC20 contract\n    function stakeTokens(address _address, uint256 _numberOfTokens) internal returns(uint256) {\n        require(token.transferFrom(_address, address(this), _numberOfTokens));\n        return _numberOfTokens;\n    }\n\n    // Unstake tokens through our ERC20 contract\n    function unstakeTokens(address _address, uint256 _numberOfTokens) internal returns(bool) {\n        require(token.balanceOf(address(this)) >= _numberOfTokens);\n        require(token.transfer(_address, _numberOfTokens));\n        return true;\n    }\n\n    // Development function for the test-net to get some Test-Tokens\n    function getTestTokens() public {\n        require(!hasWithdrawnTestWEEV[msg.sender]);\n        token.transferFrom(0xE678581277CC36de3960A52DE86290872a039915, msg.sender, 5000 * 10**18);\n        hasWithdrawnTestWEEV[msg.sender] = true;\n    }\n\n    // Modifier: Checks whether an address has enough tokens authorized to be withdrawn by the registry\n    modifier hasEnoughTokensAllowed(address _address, uint256 _numberOfTokens) {\n        require(token.allowance(_address, address(this)) >= _numberOfTokens);\n        _;\n    }\n\n    // Modifier: Checks whether an address is the owner of a registry\n    modifier isOwnerOfRegistry(address _address, uint256 _id) {\n        require(allRegistries[_id].owner == _address);\n        _;\n    }\n\n    // Modifier: Checks whether an address is the owner of a marketplace\n    modifier isOwnerOfMarketplace(address _address, uint256 _id) {\n        require(allMarketplaces[_id].owner == _address);\n        _;\n    }\n}\n",
  "sourcePath": "/home/meyerhoeferb/weeve/weeveresearch/contracts/weeveFactory.sol",
  "compiler": {
    "name": "solc",
    "version": "0.4.24+commit.e67f0147.Emscripten.clang"
  },
  "schemaVersion": "2.0.0",
  "updatedAt": "2018-07-12T12:06:43.713Z"
}