{
  "contractName": "weeveNetwork",
  "abi": [
    {
      "constant": true,
      "inputs": [
        {
          "name": "",
          "type": "uint256"
        }
      ],
      "name": "allMarketplaces",
      "outputs": [
        {
          "name": "id",
          "type": "uint256"
        },
        {
          "name": "name",
          "type": "string"
        },
        {
          "name": "owner",
          "type": "address"
        },
        {
          "name": "marketplaceAddress",
          "type": "address"
        },
        {
          "name": "stakedTokens",
          "type": "uint256"
        },
        {
          "name": "active",
          "type": "bool"
        },
        {
          "name": "challenged",
          "type": "bool"
        }
      ],
      "payable": false,
      "stateMutability": "view",
      "type": "function"
    },
    {
      "constant": true,
      "inputs": [],
      "name": "vote",
      "outputs": [
        {
          "name": "",
          "type": "address"
        }
      ],
      "payable": false,
      "stateMutability": "view",
      "type": "function"
    },
    {
      "constant": true,
      "inputs": [],
      "name": "weeveRegistryHash",
      "outputs": [
        {
          "name": "",
          "type": "bytes32"
        }
      ],
      "payable": false,
      "stateMutability": "view",
      "type": "function"
    },
    {
      "constant": false,
      "inputs": [],
      "name": "acceptOwnership",
      "outputs": [],
      "payable": false,
      "stateMutability": "nonpayable",
      "type": "function"
    },
    {
      "constant": true,
      "inputs": [],
      "name": "owner",
      "outputs": [
        {
          "name": "",
          "type": "address"
        }
      ],
      "payable": false,
      "stateMutability": "view",
      "type": "function"
    },
    {
      "constant": true,
      "inputs": [],
      "name": "weeveMarketplaceHash",
      "outputs": [
        {
          "name": "",
          "type": "bytes32"
        }
      ],
      "payable": false,
      "stateMutability": "view",
      "type": "function"
    },
    {
      "constant": true,
      "inputs": [],
      "name": "newOwner",
      "outputs": [
        {
          "name": "",
          "type": "address"
        }
      ],
      "payable": false,
      "stateMutability": "view",
      "type": "function"
    },
    {
      "constant": true,
      "inputs": [
        {
          "name": "",
          "type": "uint256"
        }
      ],
      "name": "allRegistries",
      "outputs": [
        {
          "name": "id",
          "type": "uint256"
        },
        {
          "name": "name",
          "type": "string"
        },
        {
          "name": "owner",
          "type": "address"
        },
        {
          "name": "registryAddress",
          "type": "address"
        },
        {
          "name": "stakedTokens",
          "type": "uint256"
        },
        {
          "name": "active",
          "type": "bool"
        },
        {
          "name": "challenged",
          "type": "bool"
        }
      ],
      "payable": false,
      "stateMutability": "view",
      "type": "function"
    },
    {
      "constant": false,
      "inputs": [
        {
          "name": "_newOwner",
          "type": "address"
        }
      ],
      "name": "transferOwnership",
      "outputs": [],
      "payable": false,
      "stateMutability": "nonpayable",
      "type": "function"
    },
    {
      "constant": true,
      "inputs": [],
      "name": "token",
      "outputs": [
        {
          "name": "",
          "type": "address"
        }
      ],
      "payable": false,
      "stateMutability": "view",
      "type": "function"
    },
    {
      "inputs": [
        {
          "name": "_erc20Address",
          "type": "address"
        }
      ],
      "payable": false,
      "stateMutability": "nonpayable",
      "type": "constructor"
    },
    {
      "anonymous": false,
      "inputs": [
        {
          "indexed": true,
          "name": "_from",
          "type": "address"
        },
        {
          "indexed": true,
          "name": "_to",
          "type": "address"
        }
      ],
      "name": "OwnershipTransferred",
      "type": "event"
    },
    {
      "constant": false,
      "inputs": [
        {
          "name": "_votingContractAddress",
          "type": "address"
        }
      ],
      "name": "setNewVotingAddress",
      "outputs": [],
      "payable": false,
      "stateMutability": "nonpayable",
      "type": "function"
    },
    {
      "constant": false,
      "inputs": [
        {
          "name": "_contractCode",
          "type": "bytes"
        }
      ],
      "name": "setNewRegistryHash",
      "outputs": [],
      "payable": false,
      "stateMutability": "nonpayable",
      "type": "function"
    },
    {
      "constant": false,
      "inputs": [
        {
          "name": "_contractCode",
          "type": "bytes"
        }
      ],
      "name": "setNewMarketplaceHash",
      "outputs": [],
      "payable": false,
      "stateMutability": "nonpayable",
      "type": "function"
    },
    {
      "constant": false,
      "inputs": [
        {
          "name": "_newStakeMarketplace",
          "type": "uint256"
        }
      ],
      "name": "setNewMarketplaceStake",
      "outputs": [],
      "payable": false,
      "stateMutability": "nonpayable",
      "type": "function"
    },
    {
      "constant": false,
      "inputs": [
        {
          "name": "_newStakeRegistry",
          "type": "uint256"
        }
      ],
      "name": "setNewRegistryStake",
      "outputs": [],
      "payable": false,
      "stateMutability": "nonpayable",
      "type": "function"
    },
    {
      "constant": false,
      "inputs": [
        {
          "name": "_name",
          "type": "string"
        },
        {
          "name": "_stakePerRegistration",
          "type": "uint256"
        },
        {
          "name": "_stakePerArbiter",
          "type": "uint256"
        },
        {
          "name": "_stakePerValidator",
          "type": "uint256"
        },
        {
          "name": "_contractCode",
          "type": "bytes"
        }
      ],
      "name": "createRegistry",
      "outputs": [
        {
          "name": "newRegistryAddress",
          "type": "address"
        }
      ],
      "payable": false,
      "stateMutability": "nonpayable",
      "type": "function"
    },
    {
      "constant": false,
      "inputs": [
        {
          "name": "_name",
          "type": "string"
        },
        {
          "name": "_commission",
          "type": "uint256"
        },
        {
          "name": "_contractCode",
          "type": "bytes"
        }
      ],
      "name": "createMarketplace",
      "outputs": [
        {
          "name": "newMarketplaceAddress",
          "type": "address"
        }
      ],
      "payable": false,
      "stateMutability": "nonpayable",
      "type": "function"
    },
    {
      "constant": false,
      "inputs": [
        {
          "name": "_id",
          "type": "uint256"
        }
      ],
      "name": "closeRegistry",
      "outputs": [],
      "payable": false,
      "stateMutability": "nonpayable",
      "type": "function"
    },
    {
      "constant": false,
      "inputs": [
        {
          "name": "_id",
          "type": "uint256"
        }
      ],
      "name": "closeMarketplace",
      "outputs": [],
      "payable": false,
      "stateMutability": "nonpayable",
      "type": "function"
    },
    {
      "constant": false,
      "inputs": [
        {
          "name": "_id",
          "type": "uint256"
        },
        {
          "name": "_durationCommit",
          "type": "uint256"
        },
        {
          "name": "_durationReveal",
          "type": "uint256"
        }
      ],
      "name": "challengeRegistry",
      "outputs": [
        {
          "name": "voteID",
          "type": "uint256"
        }
      ],
      "payable": false,
      "stateMutability": "nonpayable",
      "type": "function"
    },
    {
      "constant": false,
      "inputs": [
        {
          "name": "_id",
          "type": "uint256"
        },
        {
          "name": "_durationCommit",
          "type": "uint256"
        },
        {
          "name": "_durationReveal",
          "type": "uint256"
        }
      ],
      "name": "challengeMarketplace",
      "outputs": [
        {
          "name": "voteID",
          "type": "uint256"
        }
      ],
      "payable": false,
      "stateMutability": "nonpayable",
      "type": "function"
    },
    {
      "constant": false,
      "inputs": [
        {
          "name": "_voteNumber",
          "type": "uint256"
        },
        {
          "name": "_numberOfTokens",
          "type": "uint256"
        },
        {
          "name": "_voteHash",
          "type": "bytes32"
        }
      ],
      "name": "voteOnChallenge",
      "outputs": [],
      "payable": false,
      "stateMutability": "nonpayable",
      "type": "function"
    },
    {
      "constant": false,
      "inputs": [
        {
          "name": "_voteNumber",
          "type": "uint256"
        },
        {
          "name": "_voteOption",
          "type": "uint256"
        },
        {
          "name": "_voteSalt",
          "type": "uint256"
        }
      ],
      "name": "revealVote",
      "outputs": [],
      "payable": false,
      "stateMutability": "nonpayable",
      "type": "function"
    },
    {
      "constant": false,
      "inputs": [
        {
          "name": "_voteNumber",
          "type": "uint256"
        }
      ],
      "name": "resolveChallenge",
      "outputs": [
        {
          "name": "votePassed",
          "type": "bool"
        }
      ],
      "payable": false,
      "stateMutability": "nonpayable",
      "type": "function"
    },
    {
      "constant": false,
      "inputs": [
        {
          "name": "_voteNumber",
          "type": "uint256"
        }
      ],
      "name": "claimRewardOfVote",
      "outputs": [],
      "payable": false,
      "stateMutability": "nonpayable",
      "type": "function"
    },
    {
      "constant": false,
      "inputs": [],
      "name": "getTestTokens",
      "outputs": [],
      "payable": false,
      "stateMutability": "nonpayable",
      "type": "function"
    }
  ],
  "bytecode": "0x60806040523480156200001157600080fd5b506040516020806200593383398101806040528101908080519060200190929190505050336000806101000a81548173ffffffffffffffffffffffffffffffffffffffff021916908373ffffffffffffffffffffffffffffffffffffffff160217905550600073ffffffffffffffffffffffffffffffffffffffff168173ffffffffffffffffffffffffffffffffffffffff1614151515620000b257600080fd5b80600960006101000a81548173ffffffffffffffffffffffffffffffffffffffff021916908373ffffffffffffffffffffffffffffffffffffffff160217905550600060010260028160001916905550600060010260038160001916905550683635c9adc5dea00000600f81905550683635c9adc5dea00000601081905550506157f180620001426000396000f300608060405260043610610154576000357c0100000000000000000000000000000000000000000000000000000000900463ffffffff1680630549b5441461015957806305c3d57c146101ae578063142ce2a9146102de578063148529ef146103d757806323595ebb1461044057806326164553146104a95780632ea4ad76146104d65780634e899ddc1461051b578063533d28dc14610570578063632a9a521461059d578063761c7cfe146105f45780637972fce81461063957806379ba50971461066c57806383a588d9146106835780638da5cb5b146106b057806394332baf14610707578063973f4c411461073a5780639efa00c114610767578063a47426dd14610794578063b11d8bb8146108a1578063d1300eb6146108e2578063d4ee1d90146108f9578063e21db8ba14610950578063f2fde38b14610a80578063fc0c546a14610ac3578063ff9d841114610b1a575b600080fd5b34801561016557600080fd5b50610198600480360381019080803590602001909291908035906020019092919080359060200190929190505050610b5d565b6040518082815260200191505060405180910390f35b3480156101ba57600080fd5b506101d960048036038101908080359060200190929190505050611005565b60405180888152602001806020018773ffffffffffffffffffffffffffffffffffffffff1673ffffffffffffffffffffffffffffffffffffffff1681526020018673ffffffffffffffffffffffffffffffffffffffff1673ffffffffffffffffffffffffffffffffffffffff1681526020018581526020018415151515815260200183151515158152602001828103825288818151815260200191508051906020019080838360005b8381101561029d578082015181840152602081019050610282565b50505050905090810190601f1680156102ca5780820380516001836020036101000a031916815260200191505b509850505050505050505060405180910390f35b3480156102ea57600080fd5b50610395600480360381019080803590602001908201803590602001908080601f016020809104026020016040519081016040528093929190818152602001838380828437820191505050505050919291929080359060200190929190803590602001908201803590602001908080601f0160208091040260200160405190810160405280939291908181526020018383808284378201915050505050509192919290505050611148565b604051808273ffffffffffffffffffffffffffffffffffffffff1673ffffffffffffffffffffffffffffffffffffffff16815260200191505060405180910390f35b3480156103e357600080fd5b5061043e600480360381019080803590602001908201803590602001908080601f01602080910402602001604051908101604052809392919081815260200183838082843782019150505050505091929192905050506117bc565b005b34801561044c57600080fd5b506104a7600480360381019080803590602001908201803590602001908080601f0160208091040260200160405190810160405280939291908181526020018383808284378201915050505050509192919290505050611887565b005b3480156104b557600080fd5b506104d460048036038101908080359060200190929190505050611952565b005b3480156104e257600080fd5b5061051960048036038101908080359060200190929190803590602001909291908035600019169060200190929190505050611cf9565b005b34801561052757600080fd5b5061055a6004803603810190808035906020019092919080359060200190929190803590602001909291905050506120a4565b6040518082815260200191505060405180910390f35b34801561057c57600080fd5b5061059b6004803603810190808035906020019092919050505061254c565b005b3480156105a957600080fd5b506105b2612d00565b604051808273ffffffffffffffffffffffffffffffffffffffff1673ffffffffffffffffffffffffffffffffffffffff16815260200191505060405180910390f35b34801561060057600080fd5b5061061f60048036038101908080359060200190929190505050612d26565b604051808215151515815260200191505060405180910390f35b34801561064557600080fd5b5061064e61343d565b60405180826000191660001916815260200191505060405180910390f35b34801561067857600080fd5b50610681613443565b005b34801561068f57600080fd5b506106ae600480360381019080803590602001909291905050506135e2565b005b3480156106bc57600080fd5b506106c5613647565b604051808273ffffffffffffffffffffffffffffffffffffffff1673ffffffffffffffffffffffffffffffffffffffff16815260200191505060405180910390f35b34801561071357600080fd5b5061071c61366c565b60405180826000191660001916815260200191505060405180910390f35b34801561074657600080fd5b5061076560048036038101908080359060200190929190505050613672565b005b34801561077357600080fd5b50610792600480360381019080803590602001909291905050506136d7565b005b3480156107a057600080fd5b5061085f600480360381019080803590602001908201803590602001908080601f0160208091040260200160405190810160405280939291908181526020018383808284378201915050505050509192919290803590602001909291908035906020019092919080359060200190929190803590602001908201803590602001908080601f0160208091040260200160405190810160405280939291908181526020018383808284378201915050505050509192919290505050613b14565b604051808273ffffffffffffffffffffffffffffffffffffffff1673ffffffffffffffffffffffffffffffffffffffff16815260200191505060405180910390f35b3480156108ad57600080fd5b506108e06004803603810190808035906020019092919080359060200190929190803590602001909291905050506142a1565b005b3480156108ee57600080fd5b506108f7614446565b005b34801561090557600080fd5b5061090e614639565b604051808273ffffffffffffffffffffffffffffffffffffffff1673ffffffffffffffffffffffffffffffffffffffff16815260200191505060405180910390f35b34801561095c57600080fd5b5061097b6004803603810190808035906020019092919050505061465f565b60405180888152602001806020018773ffffffffffffffffffffffffffffffffffffffff1673ffffffffffffffffffffffffffffffffffffffff1681526020018673ffffffffffffffffffffffffffffffffffffffff1673ffffffffffffffffffffffffffffffffffffffff1681526020018581526020018415151515815260200183151515158152602001828103825288818151815260200191508051906020019080838360005b83811015610a3f578082015181840152602081019050610a24565b50505050905090810190601f168015610a6c5780820380516001836020036101000a031916815260200191505b509850505050505050505060405180910390f35b348015610a8c57600080fd5b50610ac1600480360381019080803573ffffffffffffffffffffffffffffffffffffffff1690602001909291905050506147a2565b005b348015610acf57600080fd5b50610ad861487d565b604051808273ffffffffffffffffffffffffffffffffffffffff1673ffffffffffffffffffffffffffffffffffffffff16815260200191505060405180910390f35b348015610b2657600080fd5b50610b5b600480360381019080803573ffffffffffffffffffffffffffffffffffffffff1690602001909291905050506148a3565b005b6000610b676155cc565b6000600886815481101515610b7857fe5b906000526020600020906006020160020160009054906101000a900473ffffffffffffffffffffffffffffffffffffffff1673ffffffffffffffffffffffffffffffffffffffff163373ffffffffffffffffffffffffffffffffffffffff1614151515610be457600080fd5b6000600e805490501480610c435750600c600e6001600e8054905003815481101515610c0c57fe5b9060005260206000200154815481101515610c2357fe5b906000526020600020906008020160060160009054906101000a900460ff165b1515610c4e57600080fd5b600886815481101515610c5d57fe5b906000526020600020906006020160050160019054906101000a900460ff16151515610c8857600080fd5b61010060405190810160405280600b60009054906101000a900473ffffffffffffffffffffffffffffffffffffffff1673ffffffffffffffffffffffffffffffffffffffff166332ed3d60603289896040518463ffffffff167c0100000000000000000000000000000000000000000000000000000000028152600401808481526020018381526020018281526020019350505050602060405180830381600087803b158015610d3757600080fd5b505af1158015610d4b573d6000803e3d6000fd5b505050506040513d6020811015610d6157600080fd5b81019080805190602001909291905050508152602001600015158152602001600115158152602001878152602001600888815481101515610d9e57fe5b906000526020600020906006020160020160009054906101000a900473ffffffffffffffffffffffffffffffffffffffff1673ffffffffffffffffffffffffffffffffffffffff1681526020013373ffffffffffffffffffffffffffffffffffffffff16815260200160008152602001600015158152509150600c82908060018154018082558091505090600182039060005260206000209060080201600090919290919091506000820151816000015560208201518160010160006101000a81548160ff02191690831515021790555060408201518160010160016101000a81548160ff0219169083151502179055506060820151816002015560808201518160030160006101000a81548173ffffffffffffffffffffffffffffffffffffffff021916908373ffffffffffffffffffffffffffffffffffffffff16021790555060a08201518160040160006101000a81548173ffffffffffffffffffffffffffffffffffffffff021916908373ffffffffffffffffffffffffffffffffffffffff16021790555060c0820151816005015560e08201518160060160006101000a81548160ff0219169083151502179055505050506001600c80549050039050600e8190806001815401808255809150509060018203906000526020600020016000909192909190915055506001600887815481101515610f9c57fe5b906000526020600020906006020160050160016101000a81548160ff021916908315150217905550610fee81600888815481101515610fd757fe5b90600052602060002090600602016004015461497e565b1515610ff957600080fd5b80925050509392505050565b60088181548110151561101457fe5b9060005260206000209060060201600091509050806000015490806001018054600181600116156101000203166002900480601f0160208091040260200160405190810160405280929190818152602001828054600181600116156101000203166002900480156110c65780601f1061109b576101008083540402835291602001916110c6565b820191906000526020600020905b8154815290600101906020018083116110a957829003601f168201915b5050505050908060020160009054906101000a900473ffffffffffffffffffffffffffffffffffffffff16908060030160009054906101000a900473ffffffffffffffffffffffffffffffffffffffff16908060040154908060050160009054906101000a900460ff16908060050160019054906101000a900460ff16905087565b6000611152615644565b60003360105480600960009054906101000a900473ffffffffffffffffffffffffffffffffffffffff1673ffffffffffffffffffffffffffffffffffffffff1663dd62ed3e84306040518363ffffffff167c0100000000000000000000000000000000000000000000000000000000028152600401808373ffffffffffffffffffffffffffffffffffffffff1673ffffffffffffffffffffffffffffffffffffffff1681526020018273ffffffffffffffffffffffffffffffffffffffff1673ffffffffffffffffffffffffffffffffffffffff16815260200192505050602060405180830381600087803b15801561124a57600080fd5b505af115801561125e573d6000803e3d6000fd5b505050506040513d602081101561127457600080fd5b81019080805190602001909291905050501015151561129257600080fd5b856040518082805190602001908083835b6020831015156112c857805182526020820191506020810190506020830392506112a3565b6001836020036101000a0380198251168184511680821785525050505050509050019150506040518091039020600019166003546000191614151561130c57600080fd5b60088054905084600001818152505087846020018190525033846040019073ffffffffffffffffffffffffffffffffffffffff16908173ffffffffffffffffffffffffffffffffffffffff168152505061136833601054615206565b84608001818152505060105484608001511015151561138657600080fd5b6113dc8460800151600a60003373ffffffffffffffffffffffffffffffffffffffff1673ffffffffffffffffffffffffffffffffffffffff1681526020019081526020016000205461535090919063ffffffff16565b600a60003373ffffffffffffffffffffffffffffffffffffffff1673ffffffffffffffffffffffffffffffffffffffff168152602001908152602001600020819055506114288661536c565b846060019073ffffffffffffffffffffffffffffffffffffffff16908173ffffffffffffffffffffffffffffffffffffffff1681525050600073ffffffffffffffffffffffffffffffffffffffff16846060015173ffffffffffffffffffffffffffffffffffffffff161415151561149f57600080fd5b836060015192508273ffffffffffffffffffffffffffffffffffffffff16634f3bddeb8989336040518463ffffffff167c010000000000000000000000000000000000000000000000000000000002815260040180806020018481526020018373ffffffffffffffffffffffffffffffffffffffff1673ffffffffffffffffffffffffffffffffffffffff168152602001828103825285818151815260200191508051906020019080838360005b8381101561156857808201518184015260208101905061154d565b50505050905090810190601f1680156115955780820380516001836020036101000a031916815260200191505b50945050505050602060405180830381600087803b1580156115b657600080fd5b505af11580156115ca573d6000803e3d6000fd5b505050506040513d60208110156115e057600080fd5b810190808051906020019092919050505015156115fc57600080fd5b60018460a0019015159081151581525050600560003373ffffffffffffffffffffffffffffffffffffffff1673ffffffffffffffffffffffffffffffffffffffff16815260200190815260200160002084600001519080600181540180825580915050906001820390600052602060002001600090919290919091505550600884908060018154018082558091505090600182039060005260206000209060060201600090919290919091506000820151816000015560208201518160010190805190602001906116ce9291906156b2565b5060408201518160020160006101000a81548173ffffffffffffffffffffffffffffffffffffffff021916908373ffffffffffffffffffffffffffffffffffffffff16021790555060608201518160030160006101000a81548173ffffffffffffffffffffffffffffffffffffffff021916908373ffffffffffffffffffffffffffffffffffffffff1602179055506080820151816004015560a08201518160050160006101000a81548160ff02191690831515021790555060c08201518160050160016101000a81548160ff02191690831515021790555050505083606001519450505050509392505050565b6000809054906101000a900473ffffffffffffffffffffffffffffffffffffffff1673ffffffffffffffffffffffffffffffffffffffff163373ffffffffffffffffffffffffffffffffffffffff1614151561181757600080fd5b806040518082805190602001908083835b60208310151561184d5780518252602082019150602081019050602083039250611828565b6001836020036101000a03801982511681845116808217855250505050505090500191505060405180910390206002816000191690555050565b6000809054906101000a900473ffffffffffffffffffffffffffffffffffffffff1673ffffffffffffffffffffffffffffffffffffffff163373ffffffffffffffffffffffffffffffffffffffff161415156118e257600080fd5b806040518082805190602001908083835b60208310151561191857805182526020820191506020810190506020830392506118f3565b6001836020036101000a03801982511681845116808217855250505050505090500191505060405180910390206003816000191690555050565b600033828173ffffffffffffffffffffffffffffffffffffffff1660088281548110151561197c57fe5b906000526020600020906006020160020160009054906101000a900473ffffffffffffffffffffffffffffffffffffffff1673ffffffffffffffffffffffffffffffffffffffff161415156119d057600080fd5b6008848154811015156119df57fe5b906000526020600020906006020160030160009054906101000a900473ffffffffffffffffffffffffffffffffffffffff16925060008373ffffffffffffffffffffffffffffffffffffffff1663b7cac6ab6040518163ffffffff167c0100000000000000000000000000000000000000000000000000000000028152600401602060405180830381600087803b158015611a7957600080fd5b505af1158015611a8d573d6000803e3d6000fd5b505050506040513d6020811015611aa357600080fd5b8101908080519060200190929190505050141515611ac057600080fd5b8273ffffffffffffffffffffffffffffffffffffffff1663163edd386040518163ffffffff167c0100000000000000000000000000000000000000000000000000000000028152600401602060405180830381600087803b158015611b2457600080fd5b505af1158015611b38573d6000803e3d6000fd5b505050506040513d6020811015611b4e57600080fd5b81019080805190602001909291905050501515611b6a57600080fd5b611bd4600885815481101515611b7c57fe5b906000526020600020906006020160020160009054906101000a900473ffffffffffffffffffffffffffffffffffffffff16600886815481101515611bbd57fe5b906000526020600020906006020160040154615396565b1515611bdf57600080fd5b611c51600885815481101515611bf157fe5b906000526020600020906006020160040154600a60003373ffffffffffffffffffffffffffffffffffffffff1673ffffffffffffffffffffffffffffffffffffffff168152602001908152602001600020546155b390919063ffffffff16565b600a60003373ffffffffffffffffffffffffffffffffffffffff1673ffffffffffffffffffffffffffffffffffffffff168152602001908152602001600020819055506000600885815481101515611ca557fe5b9060005260206000209060060201600401819055506000600885815481101515611ccb57fe5b906000526020600020906006020160050160006101000a81548160ff02191690831515021790555050505050565b600960009054906101000a900473ffffffffffffffffffffffffffffffffffffffff1673ffffffffffffffffffffffffffffffffffffffff166323b872dd3330856040518463ffffffff167c0100000000000000000000000000000000000000000000000000000000028152600401808473ffffffffffffffffffffffffffffffffffffffff1673ffffffffffffffffffffffffffffffffffffffff1681526020018373ffffffffffffffffffffffffffffffffffffffff1673ffffffffffffffffffffffffffffffffffffffff1681526020018281526020019350505050602060405180830381600087803b158015611df257600080fd5b505af1158015611e06573d6000803e3d6000fd5b505050506040513d6020811015611e1c57600080fd5b810190808051906020019092919050505050611e6182600c85815481101515611e4157fe5b90600052602060002090600802016005015461535090919063ffffffff16565b600c84815481101515611e7057fe5b90600052602060002090600802016005018190555081600c84815481101515611e9557fe5b906000526020600020906008020160070160003373ffffffffffffffffffffffffffffffffffffffff1673ffffffffffffffffffffffffffffffffffffffff16815260200190815260200160002060000181905550600b60009054906101000a900473ffffffffffffffffffffffffffffffffffffffff1673ffffffffffffffffffffffffffffffffffffffff1663ec5de124600c85815481101515611f3757fe5b90600052602060002090600802016000015433848660006040518663ffffffff167c0100000000000000000000000000000000000000000000000000000000028152600401808681526020018573ffffffffffffffffffffffffffffffffffffffff1673ffffffffffffffffffffffffffffffffffffffff168152602001846000191660001916815260200183815260200182815260200195505050505050602060405180830381600087803b158015611ff057600080fd5b505af1158015612004573d6000803e3d6000fd5b505050506040513d602081101561201a57600080fd5b8101908080519060200190929190505050151561209f576040517f08c379a000000000000000000000000000000000000000000000000000000000815260040180806020018281038252601a8152602001807f4661696c656420746f20636f6d6d69742074686520766f74652e00000000000081525060200191505060405180910390fd5b505050565b60006120ae6155cc565b60006007868154811015156120bf57fe5b906000526020600020906006020160020160009054906101000a900473ffffffffffffffffffffffffffffffffffffffff1673ffffffffffffffffffffffffffffffffffffffff163373ffffffffffffffffffffffffffffffffffffffff161415151561212b57600080fd5b6000600d80549050148061218a5750600c600d6001600d805490500381548110151561215357fe5b906000526020600020015481548110151561216a57fe5b906000526020600020906008020160060160009054906101000a900460ff165b151561219557600080fd5b6007868154811015156121a457fe5b906000526020600020906006020160050160019054906101000a900460ff161515156121cf57600080fd5b61010060405190810160405280600b60009054906101000a900473ffffffffffffffffffffffffffffffffffffffff1673ffffffffffffffffffffffffffffffffffffffff166332ed3d60603289896040518463ffffffff167c0100000000000000000000000000000000000000000000000000000000028152600401808481526020018381526020018281526020019350505050602060405180830381600087803b15801561227e57600080fd5b505af1158015612292573d6000803e3d6000fd5b505050506040513d60208110156122a857600080fd5b810190808051906020019092919050505081526020016001151581526020016000151581526020018781526020016007888154811015156122e557fe5b906000526020600020906006020160020160009054906101000a900473ffffffffffffffffffffffffffffffffffffffff1673ffffffffffffffffffffffffffffffffffffffff1681526020013373ffffffffffffffffffffffffffffffffffffffff16815260200160008152602001600015158152509150600c82908060018154018082558091505090600182039060005260206000209060080201600090919290919091506000820151816000015560208201518160010160006101000a81548160ff02191690831515021790555060408201518160010160016101000a81548160ff0219169083151502179055506060820151816002015560808201518160030160006101000a81548173ffffffffffffffffffffffffffffffffffffffff021916908373ffffffffffffffffffffffffffffffffffffffff16021790555060a08201518160040160006101000a81548173ffffffffffffffffffffffffffffffffffffffff021916908373ffffffffffffffffffffffffffffffffffffffff16021790555060c0820151816005015560e08201518160060160006101000a81548160ff0219169083151502179055505050506001600c80549050039050600d81908060018154018082558091505090600182039060005260206000200160009091929091909150555060016007878154811015156124e357fe5b906000526020600020906006020160050160016101000a81548160ff0219169083151502179055506125358160078881548110151561251e57fe5b90600052602060002090600602016004015461497e565b151561254057600080fd5b80925050509392505050565b6000806000600c8481548110151561256057fe5b906000526020600020906008020160060160009054906101000a900460ff16151561259a5761258e84612d26565b151561259957600080fd5b5b6000600c858154811015156125ab57fe5b906000526020600020906008020160070160003373ffffffffffffffffffffffffffffffffffffffff1673ffffffffffffffffffffffffffffffffffffffff1681526020019081526020016000206000015411151561260957600080fd5b600b60009054906101000a900473ffffffffffffffffffffffffffffffffffffffff1673ffffffffffffffffffffffffffffffffffffffff16638a86df72600c8681548110151561265657fe5b906000526020600020906008020160000154600c8781548110151561267757fe5b906000526020600020906008020160070160003373ffffffffffffffffffffffffffffffffffffffff1673ffffffffffffffffffffffffffffffffffffffff1681526020019081526020016000206001015433600c898154811015156126d957fe5b906000526020600020906008020160070160003373ffffffffffffffffffffffffffffffffffffffff1673ffffffffffffffffffffffffffffffffffffffff168152602001908152602001600020600001546040518563ffffffff167c0100000000000000000000000000000000000000000000000000000000028152600401808581526020018481526020018373ffffffffffffffffffffffffffffffffffffffff1673ffffffffffffffffffffffffffffffffffffffff168152602001828152602001945050505050602060405180830381600087803b1580156127be57600080fd5b505af11580156127d2573d6000803e3d6000fd5b505050506040513d60208110156127e857600080fd5b81019080805190602001909291905050509250600c8481548110151561280a57fe5b906000526020600020906008020160070160003373ffffffffffffffffffffffffffffffffffffffff1673ffffffffffffffffffffffffffffffffffffffff16815260200190815260200160002060000154831015151561286a57600080fd5b600c8481548110151561287957fe5b906000526020600020906008020160010160009054906101000a900460ff1615612948576007600c858154811015156128ae57fe5b9060005260206000209060080201600201548154811015156128cc57fe5b906000526020600020906006020160020160009054906101000a900473ffffffffffffffffffffffffffffffffffffffff1691506007600c8581548110151561291157fe5b90600052602060002090600802016002015481548110151561292f57fe5b90600052602060002090600602016004015490506129ef565b6008600c8581548110151561295957fe5b90600052602060002090600802016002015481548110151561297757fe5b906000526020600020906006020160020160009054906101000a900473ffffffffffffffffffffffffffffffffffffffff1691506008600c858154811015156129bc57fe5b9060005260206000209060080201600201548154811015156129da57fe5b90600052602060002090600602016004015490505b8173ffffffffffffffffffffffffffffffffffffffff163373ffffffffffffffffffffffffffffffffffffffff161415612b3b57600960009054906101000a900473ffffffffffffffffffffffffffffffffffffffff1673ffffffffffffffffffffffffffffffffffffffff1663a9059cbb33612a7584876155b390919063ffffffff16565b6040518363ffffffff167c0100000000000000000000000000000000000000000000000000000000028152600401808373ffffffffffffffffffffffffffffffffffffffff1673ffffffffffffffffffffffffffffffffffffffff16815260200182815260200192505050602060405180830381600087803b158015612afa57600080fd5b505af1158015612b0e573d6000803e3d6000fd5b505050506040513d6020811015612b2457600080fd5b810190808051906020019092919050505050612c3d565b600960009054906101000a900473ffffffffffffffffffffffffffffffffffffffff1673ffffffffffffffffffffffffffffffffffffffff1663a9059cbb33856040518363ffffffff167c0100000000000000000000000000000000000000000000000000000000028152600401808373ffffffffffffffffffffffffffffffffffffffff1673ffffffffffffffffffffffffffffffffffffffff16815260200182815260200192505050602060405180830381600087803b158015612c0057600080fd5b505af1158015612c14573d6000803e3d6000fd5b505050506040513d6020811015612c2a57600080fd5b8101908080519060200190929190505050505b612c7083600c86815481101515612c5057fe5b9060005260206000209060080201600501546155b390919063ffffffff16565b600c85815481101515612c7f57fe5b9060005260206000209060080201600501819055506000600c85815481101515612ca557fe5b906000526020600020906008020160070160003373ffffffffffffffffffffffffffffffffffffffff1673ffffffffffffffffffffffffffffffffffffffff1681526020019081526020016000206000018190555050505050565b600b60009054906101000a900473ffffffffffffffffffffffffffffffffffffffff1681565b600080600080600c85815481101515612d3b57fe5b90600052602060002090600802019250600b60009054906101000a900473ffffffffffffffffffffffffffffffffffffffff1673ffffffffffffffffffffffffffffffffffffffff166330f4ccac84600001546040518263ffffffff167c010000000000000000000000000000000000000000000000000000000002815260040180828152602001915050602060405180830381600087803b158015612de057600080fd5b505af1158015612df4573d6000803e3d6000fd5b505050506040513d6020811015612e0a57600080fd5b8101908080519060200190929190505050935060018360060160006101000a81548160ff021916908315150217905550831561339a578260010160009054906101000a900460ff16156130f857612e9260078460020154815481101515612e6d57fe5b906000526020600020906006020160040154846005015461535090919063ffffffff16565b8360050181905550612f3460078460020154815481101515612eb057fe5b906000526020600020906006020160040154600a60008660030160009054906101000a900473ffffffffffffffffffffffffffffffffffffffff1673ffffffffffffffffffffffffffffffffffffffff1673ffffffffffffffffffffffffffffffffffffffff168152602001908152602001600020546155b390919063ffffffff16565b600a60008560030160009054906101000a900473ffffffffffffffffffffffffffffffffffffffff1673ffffffffffffffffffffffffffffffffffffffff1673ffffffffffffffffffffffffffffffffffffffff16815260200190815260200160002081905550600060078460020154815481101515612fb057fe5b906000526020600020906006020160040181905550600060078460020154815481101515612fda57fe5b906000526020600020906006020160050160006101000a81548160ff0219169083151502179055506007836002015481548110151561301557fe5b906000526020600020906006020160030160009054906101000a900473ffffffffffffffffffffffffffffffffffffffff1691508173ffffffffffffffffffffffffffffffffffffffff166357894b5c6040518163ffffffff167c0100000000000000000000000000000000000000000000000000000000028152600401602060405180830381600087803b1580156130ad57600080fd5b505af11580156130c1573d6000803e3d6000fd5b505050506040513d60208110156130d757600080fd5b810190808051906020019092919050505015156130f357600080fd5b613395565b6131336008846002015481548110151561310e57fe5b906000526020600020906006020160040154846005015461535090919063ffffffff16565b83600501819055506131d56008846002015481548110151561315157fe5b906000526020600020906006020160040154600a60008660030160009054906101000a900473ffffffffffffffffffffffffffffffffffffffff1673ffffffffffffffffffffffffffffffffffffffff1673ffffffffffffffffffffffffffffffffffffffff168152602001908152602001600020546155b390919063ffffffff16565b600a60008560030160009054906101000a900473ffffffffffffffffffffffffffffffffffffffff1673ffffffffffffffffffffffffffffffffffffffff1673ffffffffffffffffffffffffffffffffffffffff1681526020019081526020016000208190555060006008846002015481548110151561325157fe5b90600052602060002090600602016004018190555060006008846002015481548110151561327b57fe5b906000526020600020906006020160050160006101000a81548160ff021916908315150217905550600883600201548154811015156132b657fe5b906000526020600020906006020160030160009054906101000a900473ffffffffffffffffffffffffffffffffffffffff1690508073ffffffffffffffffffffffffffffffffffffffff1663ffb2c51d6040518163ffffffff167c0100000000000000000000000000000000000000000000000000000000028152600401602060405180830381600087803b15801561334e57600080fd5b505af1158015613362573d6000803e3d6000fd5b505050506040513d602081101561337857600080fd5b8101908080519060200190929190505050151561339457600080fd5b5b613432565b8260010160009054906101000a900460ff16156133f3576000600784600201548154811015156133c657fe5b906000526020600020906006020160050160016101000a81548160ff021916908315150217905550613431565b60006008846002015481548110151561340857fe5b906000526020600020906006020160050160016101000a81548160ff0219169083151502179055505b5b839350505050919050565b60025481565b600160009054906101000a900473ffffffffffffffffffffffffffffffffffffffff1673ffffffffffffffffffffffffffffffffffffffff163373ffffffffffffffffffffffffffffffffffffffff1614151561349f57600080fd5b600160009054906101000a900473ffffffffffffffffffffffffffffffffffffffff1673ffffffffffffffffffffffffffffffffffffffff166000809054906101000a900473ffffffffffffffffffffffffffffffffffffffff1673ffffffffffffffffffffffffffffffffffffffff167f8be0079c531659141344cd1fd0a4f28419497f9722a3daafe3b4186f6b6457e060405160405180910390a3600160009054906101000a900473ffffffffffffffffffffffffffffffffffffffff166000806101000a81548173ffffffffffffffffffffffffffffffffffffffff021916908373ffffffffffffffffffffffffffffffffffffffff1602179055506000600160006101000a81548173ffffffffffffffffffffffffffffffffffffffff021916908373ffffffffffffffffffffffffffffffffffffffff160217905550565b6000809054906101000a900473ffffffffffffffffffffffffffffffffffffffff1673ffffffffffffffffffffffffffffffffffffffff163373ffffffffffffffffffffffffffffffffffffffff1614151561363d57600080fd5b8060108190555050565b6000809054906101000a900473ffffffffffffffffffffffffffffffffffffffff1681565b60035481565b6000809054906101000a900473ffffffffffffffffffffffffffffffffffffffff1673ffffffffffffffffffffffffffffffffffffffff163373ffffffffffffffffffffffffffffffffffffffff161415156136cd57600080fd5b80600f8190555050565b600033828173ffffffffffffffffffffffffffffffffffffffff1660078281548110151561370157fe5b906000526020600020906006020160020160009054906101000a900473ffffffffffffffffffffffffffffffffffffffff1673ffffffffffffffffffffffffffffffffffffffff1614151561375557600080fd5b60078481548110151561376457fe5b906000526020600020906006020160030160009054906101000a900473ffffffffffffffffffffffffffffffffffffffff1692508273ffffffffffffffffffffffffffffffffffffffff166308ef4f746040518163ffffffff167c0100000000000000000000000000000000000000000000000000000000028152600401602060405180830381600087803b1580156137fc57600080fd5b505af1158015613810573d6000803e3d6000fd5b505050506040513d602081101561382657600080fd5b8101908080519060200190929190505050151561384257600080fd5b6138ac60078581548110151561385457fe5b906000526020600020906006020160020160009054906101000a900473ffffffffffffffffffffffffffffffffffffffff1660078681548110151561389557fe5b906000526020600020906006020160040154615396565b15156138b757600080fd5b6139296007858154811015156138c957fe5b906000526020600020906006020160040154600a60003373ffffffffffffffffffffffffffffffffffffffff1673ffffffffffffffffffffffffffffffffffffffff168152602001908152602001600020546155b390919063ffffffff16565b600a60003373ffffffffffffffffffffffffffffffffffffffff1673ffffffffffffffffffffffffffffffffffffffff16815260200190815260200160002081905550600b60009054906101000a900473ffffffffffffffffffffffffffffffffffffffff1673ffffffffffffffffffffffffffffffffffffffff16631f2e13966007868154811015156139b957fe5b906000526020600020906006020160030160009054906101000a900473ffffffffffffffffffffffffffffffffffffffff166040518263ffffffff167c0100000000000000000000000000000000000000000000000000000000028152600401808273ffffffffffffffffffffffffffffffffffffffff1673ffffffffffffffffffffffffffffffffffffffff168152602001915050602060405180830381600087803b158015613a6957600080fd5b505af1158015613a7d573d6000803e3d6000fd5b505050506040513d6020811015613a9357600080fd5b81019080805190602001909291905050501515613aaf57600080fd5b6000600785815481101515613ac057fe5b9060005260206000209060060201600401819055506000600785815481101515613ae657fe5b906000526020600020906006020160050160006101000a81548160ff02191690831515021790555050505050565b6000613b1e615732565b600033600f5480600960009054906101000a900473ffffffffffffffffffffffffffffffffffffffff1673ffffffffffffffffffffffffffffffffffffffff1663dd62ed3e84306040518363ffffffff167c0100000000000000000000000000000000000000000000000000000000028152600401808373ffffffffffffffffffffffffffffffffffffffff1673ffffffffffffffffffffffffffffffffffffffff1681526020018273ffffffffffffffffffffffffffffffffffffffff1673ffffffffffffffffffffffffffffffffffffffff16815260200192505050602060405180830381600087803b158015613c1657600080fd5b505af1158015613c2a573d6000803e3d6000fd5b505050506040513d6020811015613c4057600080fd5b810190808051906020019092919050505010151515613c5e57600080fd5b856040518082805190602001908083835b602083101515613c945780518252602082019150602081019050602083039250613c6f565b6001836020036101000a03801982511681845116808217855250505050505090500191505060405180910390206000191660025460001916141515613cd857600080fd5b60078054905084600001818152505089846020018190525033846040019073ffffffffffffffffffffffffffffffffffffffff16908173ffffffffffffffffffffffffffffffffffffffff1681525050613d3433600f54615206565b846080018181525050600f54846080015110151515613d5257600080fd5b613da88460800151600a60003373ffffffffffffffffffffffffffffffffffffffff1673ffffffffffffffffffffffffffffffffffffffff1681526020019081526020016000205461535090919063ffffffff16565b600a60003373ffffffffffffffffffffffffffffffffffffffff1673ffffffffffffffffffffffffffffffffffffffff16815260200190815260200160002081905550613df48661536c565b846060019073ffffffffffffffffffffffffffffffffffffffff16908173ffffffffffffffffffffffffffffffffffffffff1681525050600073ffffffffffffffffffffffffffffffffffffffff16846060015173ffffffffffffffffffffffffffffffffffffffff1614151515613e6b57600080fd5b836060015192508273ffffffffffffffffffffffffffffffffffffffff1663631831fb8b8b8b8b336040518663ffffffff167c010000000000000000000000000000000000000000000000000000000002815260040180806020018681526020018581526020018481526020018373ffffffffffffffffffffffffffffffffffffffff1673ffffffffffffffffffffffffffffffffffffffff168152602001828103825287818151815260200191508051906020019080838360005b83811015613f42578082015181840152602081019050613f27565b50505050905090810190601f168015613f6f5780820380516001836020036101000a031916815260200191505b509650505050505050602060405180830381600087803b158015613f9257600080fd5b505af1158015613fa6573d6000803e3d6000fd5b505050506040513d6020811015613fbc57600080fd5b81019080805190602001909291905050501515613fd857600080fd5b600b60009054906101000a900473ffffffffffffffffffffffffffffffffffffffff1673ffffffffffffffffffffffffffffffffffffffff1663f9dc3b7f85606001516040518263ffffffff167c0100000000000000000000000000000000000000000000000000000000028152600401808273ffffffffffffffffffffffffffffffffffffffff1673ffffffffffffffffffffffffffffffffffffffff168152602001915050602060405180830381600087803b15801561409957600080fd5b505af11580156140ad573d6000803e3d6000fd5b505050506040513d60208110156140c357600080fd5b810190808051906020019092919050505015156140df57600080fd5b60018460a0019015159081151581525050600460003373ffffffffffffffffffffffffffffffffffffffff1673ffffffffffffffffffffffffffffffffffffffff16815260200190815260200160002084600001519080600181540180825580915050906001820390600052602060002001600090919290919091505550600784908060018154018082558091505090600182039060005260206000209060060201600090919290919091506000820151816000015560208201518160010190805190602001906141b19291906156b2565b5060408201518160020160006101000a81548173ffffffffffffffffffffffffffffffffffffffff021916908373ffffffffffffffffffffffffffffffffffffffff16021790555060608201518160030160006101000a81548173ffffffffffffffffffffffffffffffffffffffff021916908373ffffffffffffffffffffffffffffffffffffffff1602179055506080820151816004015560a08201518160050160006101000a81548160ff02191690831515021790555060c08201518160050160016101000a81548160ff021916908315150217905550505050836060015194505050505095945050505050565b600b60009054906101000a900473ffffffffffffffffffffffffffffffffffffffff1673ffffffffffffffffffffffffffffffffffffffff166334f2f2d2600c858154811015156142ee57fe5b9060005260206000209060080201600001543385856040518563ffffffff167c0100000000000000000000000000000000000000000000000000000000028152600401808581526020018473ffffffffffffffffffffffffffffffffffffffff1673ffffffffffffffffffffffffffffffffffffffff168152602001838152602001828152602001945050505050602060405180830381600087803b15801561439657600080fd5b505af11580156143aa573d6000803e3d6000fd5b505050506040513d60208110156143c057600080fd5b810190808051906020019092919050505015156143dc57600080fd5b81600c848154811015156143ec57fe5b906000526020600020906008020160070160003373ffffffffffffffffffffffffffffffffffffffff1673ffffffffffffffffffffffffffffffffffffffff16815260200190815260200160002060010181905550505050565b600660003373ffffffffffffffffffffffffffffffffffffffff1673ffffffffffffffffffffffffffffffffffffffff16815260200190815260200160002060009054906101000a900460ff1615151561449f57600080fd5b600960009054906101000a900473ffffffffffffffffffffffffffffffffffffffff1673ffffffffffffffffffffffffffffffffffffffff166323b872dd60003369010f0cf064dd592000006040518463ffffffff167c0100000000000000000000000000000000000000000000000000000000028152600401808473ffffffffffffffffffffffffffffffffffffffff1673ffffffffffffffffffffffffffffffffffffffff1681526020018373ffffffffffffffffffffffffffffffffffffffff1673ffffffffffffffffffffffffffffffffffffffff1681526020018281526020019350505050602060405180830381600087803b1580156145a357600080fd5b505af11580156145b7573d6000803e3d6000fd5b505050506040513d60208110156145cd57600080fd5b8101908080519060200190929190505050506001600660003373ffffffffffffffffffffffffffffffffffffffff1673ffffffffffffffffffffffffffffffffffffffff16815260200190815260200160002060006101000a81548160ff021916908315150217905550565b600160009054906101000a900473ffffffffffffffffffffffffffffffffffffffff1681565b60078181548110151561466e57fe5b9060005260206000209060060201600091509050806000015490806001018054600181600116156101000203166002900480601f0160208091040260200160405190810160405280929190818152602001828054600181600116156101000203166002900480156147205780601f106146f557610100808354040283529160200191614720565b820191906000526020600020905b81548152906001019060200180831161470357829003601f168201915b5050505050908060020160009054906101000a900473ffffffffffffffffffffffffffffffffffffffff16908060030160009054906101000a900473ffffffffffffffffffffffffffffffffffffffff16908060040154908060050160009054906101000a900460ff16908060050160019054906101000a900460ff16905087565b6000809054906101000a900473ffffffffffffffffffffffffffffffffffffffff1673ffffffffffffffffffffffffffffffffffffffff163373ffffffffffffffffffffffffffffffffffffffff161415156147fd57600080fd5b600073ffffffffffffffffffffffffffffffffffffffff168173ffffffffffffffffffffffffffffffffffffffff161415151561483957600080fd5b80600160006101000a81548173ffffffffffffffffffffffffffffffffffffffff021916908373ffffffffffffffffffffffffffffffffffffffff16021790555050565b600960009054906101000a900473ffffffffffffffffffffffffffffffffffffffff1681565b6000809054906101000a900473ffffffffffffffffffffffffffffffffffffffff1673ffffffffffffffffffffffffffffffffffffffff163373ffffffffffffffffffffffffffffffffffffffff161415156148fe57600080fd5b600073ffffffffffffffffffffffffffffffffffffffff168173ffffffffffffffffffffffffffffffffffffffff161415151561493a57600080fd5b80600b60006101000a81548173ffffffffffffffffffffffffffffffffffffffff021916908373ffffffffffffffffffffffffffffffffffffffff16021790555050565b600080600080600192506000915060009050600b60009054906101000a900473ffffffffffffffffffffffffffffffffffffffff1673ffffffffffffffffffffffffffffffffffffffff1663ec5de124600c888154811015156149dd57fe5b906000526020600020906008020160000154600c898154811015156149fe57fe5b906000526020600020906008020160040160009054906101000a900473ffffffffffffffffffffffffffffffffffffffff16868560405160200180838152602001828152602001925050506040516020818303038152906040526040518082805190602001908083835b602083101515614a8d5780518252602082019150602081019050602083039250614a68565b6001836020036101000a03801982511681845116808217855250505050505090500191505060405180910390208960006040518663ffffffff167c0100000000000000000000000000000000000000000000000000000000028152600401808681526020018573ffffffffffffffffffffffffffffffffffffffff1673ffffffffffffffffffffffffffffffffffffffff168152602001846000191660001916815260200183815260200182815260200195505050505050602060405180830381600087803b158015614b5f57600080fd5b505af1158015614b73573d6000803e3d6000fd5b505050506040513d6020811015614b8957600080fd5b81019080805190602001909291905050501515614c0e576040517f08c379a000000000000000000000000000000000000000000000000000000000815260040180806020018281038252601a8152602001807f4661696c656420746f20636f6d6d69742074686520766f74652e00000000000081525060200191505060405180910390fd5b600960009054906101000a900473ffffffffffffffffffffffffffffffffffffffff1673ffffffffffffffffffffffffffffffffffffffff166323b872dd600c88815481101515614c5b57fe5b906000526020600020906008020160040160009054906101000a900473ffffffffffffffffffffffffffffffffffffffff1630886040518463ffffffff167c0100000000000000000000000000000000000000000000000000000000028152600401808473ffffffffffffffffffffffffffffffffffffffff1673ffffffffffffffffffffffffffffffffffffffff1681526020018373ffffffffffffffffffffffffffffffffffffffff1673ffffffffffffffffffffffffffffffffffffffff1681526020018281526020019350505050602060405180830381600087803b158015614d4757600080fd5b505af1158015614d5b573d6000803e3d6000fd5b505050506040513d6020811015614d7157600080fd5b810190808051906020019092919050505050614db685600c88815481101515614d9657fe5b90600052602060002090600802016005015461535090919063ffffffff16565b600c87815481101515614dc557fe5b90600052602060002090600802016005018190555084600c87815481101515614dea57fe5b90600052602060002090600802016007016000600c89815481101515614e0c57fe5b906000526020600020906008020160040160009054906101000a900473ffffffffffffffffffffffffffffffffffffffff1673ffffffffffffffffffffffffffffffffffffffff1673ffffffffffffffffffffffffffffffffffffffff16815260200190815260200160002060000181905550600b60009054906101000a900473ffffffffffffffffffffffffffffffffffffffff1673ffffffffffffffffffffffffffffffffffffffff1663ec5de124600c88815481101515614ecc57fe5b906000526020600020906008020160000154600c89815481101515614eed57fe5b906000526020600020906008020160030160009054906101000a900473ffffffffffffffffffffffffffffffffffffffff16858560405160200180838152602001828152602001925050506040516020818303038152906040526040518082805190602001908083835b602083101515614f7c5780518252602082019150602081019050602083039250614f57565b6001836020036101000a03801982511681845116808217855250505050505090500191505060405180910390208960006040518663ffffffff167c0100000000000000000000000000000000000000000000000000000000028152600401808681526020018573ffffffffffffffffffffffffffffffffffffffff1673ffffffffffffffffffffffffffffffffffffffff168152602001846000191660001916815260200183815260200182815260200195505050505050602060405180830381600087803b15801561504e57600080fd5b505af1158015615062573d6000803e3d6000fd5b505050506040513d602081101561507857600080fd5b810190808051906020019092919050505015156150fd576040517f08c379a000000000000000000000000000000000000000000000000000000000815260040180806020018281038252601a8152602001807f4661696c656420746f20636f6d6d69742074686520766f74652e00000000000081525060200191505060405180910390fd5b61513085600c8881548110151561511057fe5b90600052602060002090600802016005015461535090919063ffffffff16565b600c8781548110151561513f57fe5b90600052602060002090600802016005018190555084600c8781548110151561516457fe5b90600052602060002090600802016007016000600c8981548110151561518657fe5b906000526020600020906008020160030160009054906101000a900473ffffffffffffffffffffffffffffffffffffffff1673ffffffffffffffffffffffffffffffffffffffff1673ffffffffffffffffffffffffffffffffffffffff168152602001908152602001600020600001819055506001935050505092915050565b6000600960009054906101000a900473ffffffffffffffffffffffffffffffffffffffff1673ffffffffffffffffffffffffffffffffffffffff166323b872dd8430856040518463ffffffff167c0100000000000000000000000000000000000000000000000000000000028152600401808473ffffffffffffffffffffffffffffffffffffffff1673ffffffffffffffffffffffffffffffffffffffff1681526020018373ffffffffffffffffffffffffffffffffffffffff1673ffffffffffffffffffffffffffffffffffffffff1681526020018281526020019350505050602060405180830381600087803b15801561530157600080fd5b505af1158015615315573d6000803e3d6000fd5b505050506040513d602081101561532b57600080fd5b8101908080519060200190929190505050151561534757600080fd5b81905092915050565b6000818301905082811015151561536357fe5b80905092915050565b6000808251602084016000f091506000823b11905060008111151561539057600080fd5b50919050565b600081600960009054906101000a900473ffffffffffffffffffffffffffffffffffffffff1673ffffffffffffffffffffffffffffffffffffffff166370a08231306040518263ffffffff167c0100000000000000000000000000000000000000000000000000000000028152600401808273ffffffffffffffffffffffffffffffffffffffff1673ffffffffffffffffffffffffffffffffffffffff168152602001915050602060405180830381600087803b15801561545657600080fd5b505af115801561546a573d6000803e3d6000fd5b505050506040513d602081101561548057600080fd5b81019080805190602001909291905050501015151561549e57600080fd5b600960009054906101000a900473ffffffffffffffffffffffffffffffffffffffff1673ffffffffffffffffffffffffffffffffffffffff1663a9059cbb84846040518363ffffffff167c0100000000000000000000000000000000000000000000000000000000028152600401808373ffffffffffffffffffffffffffffffffffffffff1673ffffffffffffffffffffffffffffffffffffffff16815260200182815260200192505050602060405180830381600087803b15801561556357600080fd5b505af1158015615577573d6000803e3d6000fd5b505050506040513d602081101561558d57600080fd5b810190808051906020019092919050505015156155a957600080fd5b6001905092915050565b60008282111515156155c157fe5b818303905092915050565b610100604051908101604052806000815260200160001515815260200160001515815260200160008152602001600073ffffffffffffffffffffffffffffffffffffffff168152602001600073ffffffffffffffffffffffffffffffffffffffff168152602001600081526020016000151581525090565b60e0604051908101604052806000815260200160608152602001600073ffffffffffffffffffffffffffffffffffffffff168152602001600073ffffffffffffffffffffffffffffffffffffffff168152602001600081526020016000151581526020016000151581525090565b828054600181600116156101000203166002900490600052602060002090601f016020900481019282601f106156f357805160ff1916838001178555615721565b82800160010185558215615721579182015b82811115615720578251825591602001919060010190615705565b5b50905061572e91906157a0565b5090565b60e0604051908101604052806000815260200160608152602001600073ffffffffffffffffffffffffffffffffffffffff168152602001600073ffffffffffffffffffffffffffffffffffffffff168152602001600081526020016000151581526020016000151581525090565b6157c291905b808211156157be5760008160009055506001016157a6565b5090565b905600a165627a7a72305820b8a65d1a74737ae44a7b3cc80dbc37a990ef82ee92ae6f4de66a9e66bf2e792f0029",
  "source": "pragma solidity ^0.4.24;\n\nimport \"./libraries/SafeMath.sol\";\nimport \"./libraries/Owned.sol\";\n\n// Basic ERC20 Interface \ninterface ERC20 {\n    function totalSupply() external returns (uint);\n    function balanceOf(address tokenOwner) external returns (uint256 balance);\n    function allowance(address tokenOwner, address spender) external returns (uint256 remaining);\n    function transfer(address to, uint256 tokens) external returns (bool success);\n    function approve(address spender, uint256 tokens) external returns (bool success);\n    function transferFrom(address from, address to, uint256 tokens) external returns (bool success);\n}\n\n// Interface for our registries\ninterface weeveRegistry {\n    function initialize(string _name, uint256 _stakePerRegistration, uint256 _stakePerArbiter, uint256 _stakePerValidator, address _owner) external returns (bool success);\n    function deactivateRegisty() external returns (bool success);\n    function closeRegistry() external returns (bool success);\n    function getTotalDeviceCount() external returns (uint256 numberOfDevices);\n}\n\n// Interface for our marketplaces\ninterface weeveMarketplace {\n    function initialize(string _name, uint256 _commission, address _owner) external returns (bool success);\n    function deactivateMarketplace() external returns (bool success);\n    function closeMarketplace() external returns (bool success);\n    function getTotalTradeCount() external returns (uint256 numberOfCurrentTrades);\n}\n\n// Interface for our voting scheme\ninterface weeveVoting {  \n    function addWeeveContract(address _newContract) external returns (bool success);\n    function removeWeeveContract(address _obsoleteContract) external returns (bool success);\n    function commitVote(uint _voteID, address _address, bytes32 _secretHash, uint _numTokens, uint _prevPollID) external returns (bool success);\n    function revealVote(uint _voteID, address _address, uint _voteOption, uint _salt) external returns (bool);\n    function startPoll(uint _voteQuorum, uint _commitDuration, uint _revealDuration) external returns (uint pollID);\n    function resolveVote(uint _voteID) external returns (bool votePassed);\n    function claimReward(uint256 _voteID, uint256 _voteOption, address _address, uint256 _stakedTokens) external returns (uint256 reward);\n}\n\ncontract weeveNetwork is Owned {\n    using SafeMath for uint;\n\n    // The current hash of the valid registry and marketplace code\n    // (Will be replaced by an array of hashes soon-ish)\n    bytes32 public weeveRegistryHash;\n    bytes32 public weeveMarketplaceHash;\n\n    // Mapping from address to uint-array (maps an address to all of its registry id's)\n    mapping(address => uint256[]) userRegistries;\n\n    // Mapping from address to uint-array (maps an address to all of its marketplace id's)\n    mapping(address => uint256[]) userMarketplaces;\n\n    // Mapping from address to a bool, to check whether this address has already had its share of test-WEEV\n    mapping(address => bool) hasWithdrawnTestWEEV;\n\n    struct Registry {\n        uint256 id;\n        string name;\n        address owner;\n        address registryAddress;\n        uint256 stakedTokens;\n        bool active;\n        bool challenged;\n    }\n\n    struct Marketplace {\n        uint256 id;\n        string name;\n        address owner;\n        address marketplaceAddress;\n        uint256 stakedTokens;\n        bool active;\n        bool challenged;\n    }\n\n    struct VoteChoice {\n        uint256 stakedTokens;\n        uint256 voteChoice;\n    }\n    \n    struct Vote {\n        uint256 voteID;\n        bool isRegistry;\n        bool isMarketplace;\n        uint256 entityID;\n        address challengee;\n        address challenger;\n        uint256 stakedTokens;\n        bool isResolved;\n        mapping (address => VoteChoice) voteDetails;\n    }\n\n    // Array of all registries\n    Registry[] public allRegistries;\n\n    // Array of all registries\n    Marketplace[] public allMarketplaces;\n\n    // Our ERC20 token\n    ERC20 public token;\n\n    // Address to number of staked tokens per user\n    mapping (address => uint) totalStakedTokens;\n\n    // Our voting contract\n    weeveVoting public vote;\n\n    // Registry-related votes of this factory\n    Vote[] allVotes;\n\n    // Registry-related votes of this factory\n    uint256[] registryVotes;\n\n    // Marketplace-related votes of this factory\n    uint256[] marketplaceVotes;\n\n    // Tokens that need to be staked for each registry (soon to be dynamic)\n    uint256 tokensPerRegistryCreation;\n\n    // Tokens that need to be staked for each registry (soon to be dynamic)\n    uint256 tokensPerMarketplaceCreation;\n\n    constructor(address _erc20Address) public {\n        require(_erc20Address != address(0));\n\n        // Setting the address of our WEEV token contract\n        token = ERC20(_erc20Address);        \n        \n        // weeve Registry code hash (placeholder)\n        weeveRegistryHash = 0x0000000000000000000000000000000000000000000000000000000000000000;\n\n        // weeve Marketplace code hash (placeholder)\n        weeveMarketplaceHash = 0x0000000000000000000000000000000000000000000000000000000000000000;\n\n        // Tokens per Registry\n        tokensPerRegistryCreation = 1000 * 10**18;\n\n        // Tokens per Marketplace\n        tokensPerMarketplaceCreation = 1000 * 10**18;\n    }\n    \n    // Setting a new valid registry code hash as an owner\n    function setNewVotingAddress(address _votingContractAddress) public onlyOwner {\n        require(_votingContractAddress != address(0));\n        // Setting the address of our voting contract\n        vote = weeveVoting(_votingContractAddress);\n    }\n\n    // Setting a new valid registry code hash as an owner\n    function setNewRegistryHash(bytes _contractCode) public onlyOwner {\n        weeveRegistryHash = keccak256(_contractCode);\n    }\n\n    // Setting a new valid marketplace code hash as an owner\n    function setNewMarketplaceHash(bytes _contractCode) public onlyOwner {\n        weeveMarketplaceHash = keccak256(_contractCode);\n    }\n    \n    // Setting a new stake for marketplace creation as an owner\n    function setNewMarketplaceStake(uint256 _newStakeMarketplace) public onlyOwner {\n        tokensPerMarketplaceCreation = _newStakeMarketplace;\n    }\n    \n    // Setting a new stake for registry creation as an owner\n    function setNewRegistryStake(uint256 _newStakeRegistry) public onlyOwner {\n        tokensPerRegistryCreation = _newStakeRegistry;\n    }\n\n    // Creating a new registry\n    function createRegistry(string _name, uint256 _stakePerRegistration, uint256 _stakePerArbiter, uint256 _stakePerValidator, bytes _contractCode) public hasEnoughTokensAllowed(msg.sender, tokensPerRegistryCreation) returns (address newRegistryAddress) {\n        // Hash of the contract code has to be correct (no invalid/untrusted code can be deployed)\n        require(weeveRegistryHash == keccak256(_contractCode));\n\n        // Allocating a new registry struct\n        Registry memory newRegistry;\n        newRegistry.id = allRegistries.length;\n        newRegistry.name = _name;\n        newRegistry.owner = msg.sender;\n        \n        // Staking of the tokens\n        newRegistry.stakedTokens = stakeTokens(msg.sender, tokensPerRegistryCreation);\n        require(newRegistry.stakedTokens >= tokensPerRegistryCreation);\n\n        totalStakedTokens[msg.sender] = totalStakedTokens[msg.sender].add(newRegistry.stakedTokens);\n\n        // Deploying the contract\n        newRegistry.registryAddress = deployCode(_contractCode);\n        require(newRegistry.registryAddress != address(0));\n\n        // Activating the new registry\n        weeveRegistry newWeeveRegistry = weeveRegistry(newRegistry.registryAddress);\n        require(newWeeveRegistry.initialize(_name, _stakePerRegistration, _stakePerArbiter, _stakePerValidator, msg.sender));\n\n        // Add the address to the voting contract\n        require(vote.addWeeveContract(newRegistry.registryAddress));\n\n        // The new registry is now active\n        newRegistry.active = true;\n\n        // Adding the registry to the users registry array\n        userRegistries[msg.sender].push(newRegistry.id);\n\n        // Adding the registry to the general registry array\n        allRegistries.push(newRegistry);\n        \n        // Returning the registries address\n        return newRegistry.registryAddress;\n    }\n\n    // Creating a new marketplace\n    function createMarketplace(string _name, uint256 _commission, bytes _contractCode) public hasEnoughTokensAllowed(msg.sender, tokensPerMarketplaceCreation) returns (address newMarketplaceAddress) {\n        // Hash of the contract code has to be correct (no invalid/untrusted code can be deployed)\n        require(weeveMarketplaceHash == keccak256(_contractCode));\n\n        // Allocating a new marketplace struct\n        Marketplace memory newMarketplace;\n        newMarketplace.id = allMarketplaces.length;\n        newMarketplace.name = _name;\n        newMarketplace.owner = msg.sender;\n        \n        // Staking of the tokens\n        newMarketplace.stakedTokens = stakeTokens(msg.sender, tokensPerMarketplaceCreation);\n        require(newMarketplace.stakedTokens >= tokensPerMarketplaceCreation);\n\n        totalStakedTokens[msg.sender] = totalStakedTokens[msg.sender].add(newMarketplace.stakedTokens);\n\n        // Deploying the contract\n        newMarketplace.marketplaceAddress = deployCode(_contractCode);\n        require(newMarketplace.marketplaceAddress != address(0));\n\n        // Activating the new marketplace\n        weeveMarketplace newWeeveMarketplace = weeveMarketplace(newMarketplace.marketplaceAddress);\n        require(newWeeveMarketplace.initialize(_name, _commission, msg.sender));\n\n        // The new marketplace is now active\n        newMarketplace.active = true;\n\n        // Adding the marketplace to the users marketplace array\n        userMarketplaces[msg.sender].push(newMarketplace.id);\n\n        // Adding the marketplace to the general marketplace array\n        allMarketplaces.push(newMarketplace);\n        \n        // Returning the marketplaces address\n        return newMarketplace.marketplaceAddress;\n    }\n    \n    // Internal function to deploy bytecode to the blockchain\n    function deployCode(bytes _contractCode) internal returns (address addr) {\n        uint256 asmReturnValue;\n        // Inline Assembly in generally considered insecure by most linters, but it's fine in this case\n        /* solium-disable-next-line */\n        assembly {\n            addr := create(0,add(_contractCode,0x20), mload(_contractCode))\n            asmReturnValue := gt(extcodesize(addr),0)\n        }\n        require(asmReturnValue > 0);\n    }\n\n    // Closing a registry where no devices are active anymore (only the registry owner is allowed to do this)\n    function closeRegistry(uint256 _id) public isOwnerOfRegistry(msg.sender, _id) {\n        weeveRegistry theRegistry = weeveRegistry(allRegistries[_id].registryAddress);\n        // Calling the closeRegistry function of this registry\n        require(theRegistry.closeRegistry());\n         // Unstaking the remaining tokens\n        require(unstakeTokens(allRegistries[_id].owner, allRegistries[_id].stakedTokens));\n        totalStakedTokens[msg.sender] = totalStakedTokens[msg.sender].sub(allRegistries[_id].stakedTokens);\n        // Remove the address from the voting contract\n        require(vote.removeWeeveContract(allRegistries[_id].registryAddress));\n        allRegistries[_id].stakedTokens = 0;\n        allRegistries[_id].active = false;\n    }\n\n    // Closing a registry where no devices are active anymore (only the registry owner is allowed to do this)\n    function closeMarketplace(uint256 _id) public isOwnerOfMarketplace(msg.sender, _id) {\n        weeveMarketplace theMarketplace = weeveMarketplace(allMarketplaces[_id].marketplaceAddress);\n        // Only if the amount of active devices is zero\n        require(theMarketplace.getTotalTradeCount() == 0);\n        // Calling the closeMarketplace function of this marketplace\n        require(theMarketplace.closeMarketplace());\n        // Unstaking the remaining tokens\n        require(unstakeTokens(allMarketplaces[_id].owner, allMarketplaces[_id].stakedTokens));\n        totalStakedTokens[msg.sender] = totalStakedTokens[msg.sender].sub(allMarketplaces[_id].stakedTokens);\n        allMarketplaces[_id].stakedTokens = 0;\n        allMarketplaces[_id].active = false;\n        // TODO: Disable Marketplace\n    }\n\n    // Challenging a registry, resulting in a new vote. Affected registry owner and challenger are \n    // automatically casting their corresponding votes\n    function challengeRegistry(uint256 _id, uint256 _durationCommit, uint256 _durationReveal) public returns (uint256 voteID) {\n        // Registry owner can't challenge his own registry\n        require(msg.sender != allRegistries[_id].owner);\n        // Either it's the first registry vote or the current one has to be resolved (only one vote at a time)\n        require(registryVotes.length == 0 || allVotes[registryVotes[registryVotes.length-1]].isResolved);\n        // Registry has to be unchallenged\n        require(!allRegistries[_id].challenged);\n\n        // Create a new vote object\n        Vote memory newVote = Vote({\n            voteID: vote.startPoll(50, _durationCommit, _durationReveal),\n            isRegistry: true,\n            isMarketplace: false,\n            entityID: _id,\n            challengee: allRegistries[_id].owner,\n            challenger: msg.sender,\n            stakedTokens: 0,\n            isResolved: false\n        });\n\n        // Push vote object into the general vote array\n        allVotes.push(newVote);\n\n        // Pushing the number of the vote into the corresponding array\n        uint256 voteNumber = allVotes.length-1;\n        registryVotes.push(voteNumber);\n\n        // Marking the registry as challenged\n        allRegistries[_id].challenged = true;\n        \n        // Finalizing the challenge (automatic voting of owner and challenger)\n        require(finalizeChallenge(voteNumber, allRegistries[_id].stakedTokens));\n\n        return voteNumber;\n    }\n\n    // Challenging a marketplace, resulting in a new vote. Affected marketplace owner and challenger are \n    // automatically casting their corresponding votes\n    function challengeMarketplace(uint256 _id, uint256 _durationCommit, uint256 _durationReveal) public returns (uint256 voteID) {\n        // Marketplace owner can't challenge his own marketplace\n        require(msg.sender != allMarketplaces[_id].owner);\n        // Either it's the first marketplace vote or the current one has to be resolved (only one vote at a time)\n        require(marketplaceVotes.length == 0 || allVotes[marketplaceVotes[marketplaceVotes.length-1]].isResolved);\n        // Marketplace has to be unchallenged\n        require(!allMarketplaces[_id].challenged);\n\n        // Create a new vote object\n        Vote memory newVote = Vote({\n            voteID: vote.startPoll(50, _durationCommit, _durationReveal),\n            isRegistry: false,\n            isMarketplace: true,\n            entityID: _id,\n            challengee: allMarketplaces[_id].owner,\n            challenger: msg.sender,\n            stakedTokens: 0,\n            isResolved: false\n        });\n\n        // Push vote object into the general vote array\n        allVotes.push(newVote);\n\n        // Pushing the number of the vote into the corresponding array\n        uint256 voteNumber = allVotes.length-1;\n        marketplaceVotes.push(voteNumber);\n\n        // Marking the marketplace as challenged\n        allMarketplaces[_id].challenged = true;\n        \n        // Finalizing the challenge (automatic voting of owner and challenger)\n        require(finalizeChallenge(voteNumber, allMarketplaces[_id].stakedTokens));\n\n        return voteNumber;\n    }\n\n    // Finalizing a new challenge, which is basically the automatic voting of the owner and the challenger\n    function finalizeChallenge(uint256 _voteNumber, uint256 _numberOfTokens) internal returns (bool success) {\n        // Vote selections of the challenger and the challengee\n        uint256 challengerChoice = 1;\n        uint256 challengeeChoice = 0;\n        uint256 salt = 0;\n\n        // Automatic vote of the challenger\n        require(vote.commitVote(allVotes[_voteNumber].voteID, allVotes[_voteNumber].challenger, keccak256(abi.encodePacked(challengerChoice, salt)), _numberOfTokens, 0), \"Failed to commit the vote.\");        \n        token.transferFrom(allVotes[_voteNumber].challenger, address(this), _numberOfTokens);\n        allVotes[_voteNumber].stakedTokens = allVotes[_voteNumber].stakedTokens.add(_numberOfTokens);\n        allVotes[_voteNumber].voteDetails[allVotes[_voteNumber].challenger].stakedTokens = _numberOfTokens;\n\n        // Automatic vote of the challengee\n        require(vote.commitVote(allVotes[_voteNumber].voteID, allVotes[_voteNumber].challengee, keccak256(abi.encodePacked(challengeeChoice, salt)), _numberOfTokens, 0), \"Failed to commit the vote.\"); \n        allVotes[_voteNumber].stakedTokens = allVotes[_voteNumber].stakedTokens.add(_numberOfTokens);\n        allVotes[_voteNumber].voteDetails[allVotes[_voteNumber].challengee].stakedTokens = _numberOfTokens;\n        \n        return true;\n    }\n\n    // Vote on a challenge\n    function voteOnChallenge(uint256 _voteNumber, uint256 _numberOfTokens, bytes32 _voteHash) public {\n        // Transfer the amount of tokens of this vote to this contract\n        token.transferFrom(msg.sender, address(this), _numberOfTokens);\n        allVotes[_voteNumber].stakedTokens = allVotes[_voteNumber].stakedTokens.add(_numberOfTokens);\n        allVotes[_voteNumber].voteDetails[msg.sender].stakedTokens = _numberOfTokens;\n\n        // Commiting the vote through the voting-contract\n        require(vote.commitVote(allVotes[_voteNumber].voteID, msg.sender, _voteHash, _numberOfTokens, 0), \"Failed to commit the vote.\");\n    }\n\n    // Reveal a vote on a challenge\n    function revealVote(uint256 _voteNumber, uint256 _voteOption, uint256 _voteSalt) public {\n        // Revealing the vote through the voting-contract\n        require(vote.revealVote(allVotes[_voteNumber].voteID, msg.sender, _voteOption, _voteSalt));\n        allVotes[_voteNumber].voteDetails[msg.sender].voteChoice = _voteOption;\n    }\n\n    // Resolve a vote after the reveal-phase is over\n    function resolveChallenge(uint256 _voteNumber) public returns (bool votePassed) {\n        // Getting the vote object\n        Vote storage currentVote = allVotes[_voteNumber];\n        // Resolving the vote through the voting-contract\n        votePassed = vote.resolveVote(currentVote.voteID);\n        // Marking the vote as resolved\n        currentVote.isResolved = true;\n\n        if(votePassed) {\n            if(currentVote.isRegistry) {\n                // If the vote passed and the entity was a registry, its staked tokens will be added to the tokens of this vote\n                currentVote.stakedTokens = currentVote.stakedTokens.add(allRegistries[currentVote.entityID].stakedTokens);\n                totalStakedTokens[currentVote.challengee] = totalStakedTokens[currentVote.challengee].sub(allRegistries[currentVote.entityID].stakedTokens);\n                allRegistries[currentVote.entityID].stakedTokens = 0;\n                allRegistries[currentVote.entityID].active = false;\n                weeveRegistry theRegistry = weeveRegistry(allRegistries[currentVote.entityID].registryAddress);\n                // Deactivation of the registry\n                require(theRegistry.deactivateRegisty());\n            } else {\n                // If the vote passed and the entity was a marketplace, its staked tokens will be added to the tokens of this vote\n                currentVote.stakedTokens = currentVote.stakedTokens.add(allMarketplaces[currentVote.entityID].stakedTokens);\n                totalStakedTokens[currentVote.challengee] = totalStakedTokens[currentVote.challengee].sub(allMarketplaces[currentVote.entityID].stakedTokens);\n                allMarketplaces[currentVote.entityID].stakedTokens = 0;\n                allMarketplaces[currentVote.entityID].active = false;\n                weeveMarketplace theMarketplace = weeveMarketplace(allMarketplaces[currentVote.entityID].marketplaceAddress);\n                // Deactivation of the marketplace\n                require(theMarketplace.deactivateMarketplace());\n            }\n        } else {\n            // If the vote didn't pass the challenged-flag will be reset\n            if(currentVote.isRegistry) {\n                allRegistries[currentVote.entityID].challenged = false;\n            } else {\n                allMarketplaces[currentVote.entityID].challenged = false;\n            }\n        }\n        return votePassed;\n    }\n\n    // Claim the reward of a finished vote\n    function claimRewardOfVote(uint256 _voteNumber) public {\n        // If the vote is not already resolved it will be done here automatically\n        if(!allVotes[_voteNumber].isResolved) {\n            require(resolveChallenge(_voteNumber));\n        }\n        // Only participants of the vote are able to call this function\n        require(allVotes[_voteNumber].voteDetails[msg.sender].stakedTokens > 0);\n        \n        // Getting the calculated reward of this vote from the voting-contract\n        uint256 reward = vote.claimReward(allVotes[_voteNumber].voteID, allVotes[_voteNumber].voteDetails[msg.sender].voteChoice, msg.sender, allVotes[_voteNumber].voteDetails[msg.sender].stakedTokens);\n        // Amount of rewarded tokens have to be at least equal to the amount that has been voted with\n        // Means: Only the winning side is able to claim a reward\n        require(reward >= allVotes[_voteNumber].voteDetails[msg.sender].stakedTokens);\n\n        address _owner;\n        uint256 _stakedTokens;\n\n        // Setting variables in case the claiming person is the owner\n        if(allVotes[_voteNumber].isRegistry) {\n            _owner = allRegistries[allVotes[_voteNumber].entityID].owner;\n            _stakedTokens = allRegistries[allVotes[_voteNumber].entityID].stakedTokens;\n        } else {\n            _owner = allMarketplaces[allVotes[_voteNumber].entityID].owner;\n            _stakedTokens = allMarketplaces[allVotes[_voteNumber].entityID].stakedTokens;\n        }\n\n        // Checking whether the claiming person is the owner\n        // If that is the case, the stake of the marketplace will not be transferred \n        // (will remain as the stake since the challenge failed)\n        if(msg.sender == _owner) {\n            token.transfer(msg.sender, reward.sub(_stakedTokens));\n        } else {\n            token.transfer(msg.sender, reward);\n        }\n        \n        allVotes[_voteNumber].stakedTokens = allVotes[_voteNumber].stakedTokens.sub(reward);\n        allVotes[_voteNumber].voteDetails[msg.sender].stakedTokens = 0;\n    }\n    \n    // Stake tokens through our ERC20 contract\n    function stakeTokens(address _address, uint256 _numberOfTokens) internal returns (uint256) {\n        require(token.transferFrom(_address, address(this), _numberOfTokens));\n        return _numberOfTokens;\n    }\n\n    // Unstake tokens through our ERC20 contract\n    function unstakeTokens(address _address, uint256 _numberOfTokens) internal returns (bool) {\n        require(token.balanceOf(address(this)) >= _numberOfTokens);\n        require(token.transfer(_address, _numberOfTokens));\n        return true;\n    }\n\n    // Development function for the test-net to get some Test-Tokens\n    function getTestTokens() public {\n        require(!hasWithdrawnTestWEEV[msg.sender]);\n        token.transferFrom(0x0000000000000000000000000000000000000000, msg.sender, 5000 * 10**18);\n        hasWithdrawnTestWEEV[msg.sender] = true;\n    }\n\n    // Modifier: Checks whether an address has enough tokens authorized to be withdrawn by the registry\n    modifier hasEnoughTokensAllowed(address _address, uint256 _numberOfTokens) {\n        require(token.allowance(_address, address(this)) >= _numberOfTokens);\n        _;\n    }\n\n    // Modifier: Checks whether an address is the owner of a registry\n    modifier isOwnerOfRegistry(address _address, uint256 _id) {\n        require(allRegistries[_id].owner == _address);\n        _;\n    }\n\n    // Modifier: Checks whether an address is the owner of a marketplace\n    modifier isOwnerOfMarketplace(address _address, uint256 _id) {\n        require(allMarketplaces[_id].owner == _address);\n        _;\n    }\n}",
  "sourcePath": "/home/meyerhoeferb/weeve/weeveresearch/contracts/weeveNetwork.sol",
  "compiler": {
    "name": "solc",
    "version": "0.4.24+commit.e67f0147.Emscripten.clang"
  },
  "schemaVersion": "2.0.0",
  "updatedAt": "2018-07-18T09:25:33.814Z"
}