{
  "contractName": "myMarketplace",
  "abi": [
    {
      "constant": true,
      "inputs": [],
      "name": "marketplaceName",
      "outputs": [
        {
          "name": "",
          "type": "string"
        }
      ],
      "payable": false,
      "stateMutability": "view",
      "type": "function"
    },
    {
      "constant": true,
      "inputs": [],
      "name": "weeveFactoryAddress",
      "outputs": [
        {
          "name": "",
          "type": "address"
        }
      ],
      "payable": false,
      "stateMutability": "view",
      "type": "function"
    },
    {
      "constant": true,
      "inputs": [],
      "name": "weeveTokenAddress",
      "outputs": [
        {
          "name": "",
          "type": "address"
        }
      ],
      "payable": false,
      "stateMutability": "view",
      "type": "function"
    },
    {
      "constant": true,
      "inputs": [],
      "name": "myMarketplaceStorage",
      "outputs": [
        {
          "name": "currentTrades",
          "type": "uint256"
        },
        {
          "name": "marketplaceIsActive",
          "type": "bool"
        },
        {
          "name": "commission",
          "type": "uint256"
        },
        {
          "name": "commissionBalance",
          "type": "uint256"
        },
        {
          "name": "marketplaceOwner",
          "type": "address"
        },
        {
          "name": "token",
          "type": "address"
        }
      ],
      "payable": false,
      "stateMutability": "view",
      "type": "function"
    },
    {
      "inputs": [],
      "payable": false,
      "stateMutability": "nonpayable",
      "type": "constructor"
    },
    {
      "constant": false,
      "inputs": [
        {
          "name": "_name",
          "type": "string"
        },
        {
          "name": "_commission",
          "type": "uint256"
        },
        {
          "name": "_owner",
          "type": "address"
        }
      ],
      "name": "initialize",
      "outputs": [
        {
          "name": "",
          "type": "bool"
        }
      ],
      "payable": false,
      "stateMutability": "nonpayable",
      "type": "function"
    },
    {
      "constant": false,
      "inputs": [],
      "name": "closeMarketplace",
      "outputs": [
        {
          "name": "",
          "type": "bool"
        }
      ],
      "payable": false,
      "stateMutability": "nonpayable",
      "type": "function"
    },
    {
      "constant": false,
      "inputs": [
        {
          "name": "_tradeID",
          "type": "string"
        },
        {
          "name": "_price",
          "type": "uint256"
        },
        {
          "name": "_amount",
          "type": "uint256"
        }
      ],
      "name": "sell",
      "outputs": [],
      "payable": false,
      "stateMutability": "nonpayable",
      "type": "function"
    },
    {
      "constant": false,
      "inputs": [
        {
          "name": "_tradeID",
          "type": "string"
        }
      ],
      "name": "buy",
      "outputs": [],
      "payable": false,
      "stateMutability": "nonpayable",
      "type": "function"
    },
    {
      "constant": false,
      "inputs": [
        {
          "name": "_recipientAddress",
          "type": "address"
        },
        {
          "name": "_amountOfTokens",
          "type": "uint256"
        }
      ],
      "name": "withdrawCommission",
      "outputs": [],
      "payable": false,
      "stateMutability": "nonpayable",
      "type": "function"
    },
    {
      "constant": true,
      "inputs": [
        {
          "name": "_tradeID",
          "type": "string"
        }
      ],
      "name": "getTrade",
      "outputs": [
        {
          "name": "tradeID",
          "type": "string"
        },
        {
          "name": "seller",
          "type": "address"
        },
        {
          "name": "price",
          "type": "uint256"
        },
        {
          "name": "amount",
          "type": "uint256"
        },
        {
          "name": "paid",
          "type": "bool"
        }
      ],
      "payable": false,
      "stateMutability": "view",
      "type": "function"
    },
    {
      "constant": true,
      "inputs": [],
      "name": "getTotalTradeCount",
      "outputs": [
        {
          "name": "numberOfCurrentTrades",
          "type": "uint256"
        }
      ],
      "payable": false,
      "stateMutability": "view",
      "type": "function"
    },
    {
      "constant": false,
      "inputs": [
        {
          "name": "_commission",
          "type": "uint256"
        }
      ],
      "name": "changeCommission",
      "outputs": [],
      "payable": false,
      "stateMutability": "nonpayable",
      "type": "function"
    },
    {
      "constant": false,
      "inputs": [
        {
          "name": "_address",
          "type": "address"
        }
      ],
      "name": "addValidator",
      "outputs": [],
      "payable": false,
      "stateMutability": "nonpayable",
      "type": "function"
    },
    {
      "constant": false,
      "inputs": [
        {
          "name": "_address",
          "type": "address"
        }
      ],
      "name": "removeValidator",
      "outputs": [],
      "payable": false,
      "stateMutability": "nonpayable",
      "type": "function"
    },
    {
      "constant": false,
      "inputs": [
        {
          "name": "_address",
          "type": "address"
        }
      ],
      "name": "addArbiter",
      "outputs": [],
      "payable": false,
      "stateMutability": "nonpayable",
      "type": "function"
    },
    {
      "constant": false,
      "inputs": [
        {
          "name": "_address",
          "type": "address"
        }
      ],
      "name": "removeArbiter",
      "outputs": [],
      "payable": false,
      "stateMutability": "nonpayable",
      "type": "function"
    },
    {
      "constant": true,
      "inputs": [
        {
          "name": "_address",
          "type": "address"
        }
      ],
      "name": "checkValidatorStatus",
      "outputs": [
        {
          "name": "status",
          "type": "bool"
        }
      ],
      "payable": false,
      "stateMutability": "view",
      "type": "function"
    },
    {
      "constant": true,
      "inputs": [
        {
          "name": "_address",
          "type": "address"
        }
      ],
      "name": "checkArbiterStatus",
      "outputs": [
        {
          "name": "status",
          "type": "bool"
        }
      ],
      "payable": false,
      "stateMutability": "view",
      "type": "function"
    }
  ],
  "bytecode": "0x60806040526000600b60006101000a81548173ffffffffffffffffffffffffffffffffffffffff021916908373ffffffffffffffffffffffffffffffffffffffff1602179055506000600c60006101000a81548173ffffffffffffffffffffffffffffffffffffffff021916908373ffffffffffffffffffffffffffffffffffffffff16021790555034801561009457600080fd5b5060008060060160006101000a81548160ff021916908315150217905550611a66806100c16000396000f3006080604052600436106100fc576000357c0100000000000000000000000000000000000000000000000000000000900463ffffffff16806304804ee814610101578063163edd381461017e5780631d6069fc146101ad5780633487e08c1461023d57806335100a3c14610280578063366f13f4146102d757806340a141ff1461032e578063492cc769146103715780634d238c8e146103da5780634f3bddeb1461041d5780639fa637a8146104c8578063b538d3bc146105f6578063b7cac6ab14610639578063df922f3a14610664578063e1224f9a14610691578063f4bd4610146106de578063f973af5f14610788578063fbc6e3ae146107e3575b600080fd5b34801561010d57600080fd5b5061017c600480360381019080803590602001908201803590602001908080601f0160208091040260200160405190810160405280939291908181526020018383808284378201915050505050509192919290803590602001909291908035906020019092919050505061083e565b005b34801561018a57600080fd5b50610193610990565b604051808215151515815260200191505060405180910390f35b3480156101b957600080fd5b506101c2610a25565b6040518080602001828103825283818151815260200191508051906020019080838360005b838110156102025780820151818401526020810190506101e7565b50505050905090810190601f16801561022f5780820380516001836020036101000a031916815260200191505b509250505060405180910390f35b34801561024957600080fd5b5061027e600480360381019080803573ffffffffffffffffffffffffffffffffffffffff169060200190929190505050610ac3565b005b34801561028c57600080fd5b50610295610bb7565b604051808273ffffffffffffffffffffffffffffffffffffffff1673ffffffffffffffffffffffffffffffffffffffff16815260200191505060405180910390f35b3480156102e357600080fd5b506102ec610bdd565b604051808273ffffffffffffffffffffffffffffffffffffffff1673ffffffffffffffffffffffffffffffffffffffff16815260200191505060405180910390f35b34801561033a57600080fd5b5061036f600480360381019080803573ffffffffffffffffffffffffffffffffffffffff169060200190929190505050610c03565b005b34801561037d57600080fd5b506103d8600480360381019080803590602001908201803590602001908080601f0160208091040260200160405190810160405280939291908181526020018383808284378201915050505050509192919290505050610cf7565b005b3480156103e657600080fd5b5061041b600480360381019080803573ffffffffffffffffffffffffffffffffffffffff169060200190929190505050610e37565b005b34801561042957600080fd5b506104ae600480360381019080803590602001908201803590602001908080601f016020809104026020016040519081016040528093929190818152602001838380828437820191505050505050919291929080359060200190929190803573ffffffffffffffffffffffffffffffffffffffff169060200190929190505050610f3b565b604051808215151515815260200191505060405180910390f35b3480156104d457600080fd5b5061052f600480360381019080803590602001908201803590602001908080601f0160208091040260200160405190810160405280939291908181526020018383808284378201915050505050509192919290505050611117565b60405180806020018673ffffffffffffffffffffffffffffffffffffffff1673ffffffffffffffffffffffffffffffffffffffff16815260200185815260200184815260200183151515158152602001828103825287818151815260200191508051906020019080838360005b838110156105b757808201518184015260208101905061059c565b50505050905090810190601f1680156105e45780820380516001836020036101000a031916815260200191505b50965050505050505060405180910390f35b34801561060257600080fd5b50610637600480360381019080803573ffffffffffffffffffffffffffffffffffffffff16906020019092919050505061142f565b005b34801561064557600080fd5b5061064e611533565b6040518082815260200191505060405180910390f35b34801561067057600080fd5b5061068f6004803603810190808035906020019092919050505061153f565b005b34801561069d57600080fd5b506106dc600480360381019080803573ffffffffffffffffffffffffffffffffffffffff169060200190929190803590602001909291905050506115e5565b005b3480156106ea57600080fd5b506106f36117a9565b60405180878152602001861515151581526020018581526020018481526020018373ffffffffffffffffffffffffffffffffffffffff1673ffffffffffffffffffffffffffffffffffffffff1681526020018273ffffffffffffffffffffffffffffffffffffffff1673ffffffffffffffffffffffffffffffffffffffff168152602001965050505050505060405180910390f35b34801561079457600080fd5b506107c9600480360381019080803573ffffffffffffffffffffffffffffffffffffffff169060200190929190505050611820565b604051808215151515815260200191505060405180910390f35b3480156107ef57600080fd5b50610824600480360381019080803573ffffffffffffffffffffffffffffffffffffffff1690602001909291905050506118ce565b604051808215151515815260200191505060405180910390f35b600060060160009054906101000a900460ff16151561085c57600080fd5b73__weeveMarketplace______________________6358d0a32b60008585856040518563ffffffff167c01000000000000000000000000000000000000000000000000000000000281526004018085815260200180602001848152602001838152602001828103825285818151815260200191508051906020019080838360005b838110156108f85780820151818401526020810190506108dd565b50505050905090810190601f1680156109255780820380516001836020036101000a031916815260200191505b509550505050505060206040518083038186803b15801561094557600080fd5b505af4158015610959573d6000803e3d6000fd5b505050506040513d602081101561096f57600080fd5b8101908080519060200190929190505050151561098b57600080fd5b505050565b6000600b60009054906101000a900473ffffffffffffffffffffffffffffffffffffffff1673ffffffffffffffffffffffffffffffffffffffff163373ffffffffffffffffffffffffffffffffffffffff161415156109ee57600080fd5b60008060050154141515610a0157600080fd5b60008060060160006101000a81548160ff0219169083151502179055506001905090565b600d8054600181600116156101000203166002900480601f016020809104026020016040519081016040528092919081815260200182805460018160011615610100020316600290048015610abb5780601f10610a9057610100808354040283529160200191610abb565b820191906000526020600020905b815481529060010190602001808311610a9e57829003601f168201915b505050505081565b600060060160009054906101000a900460ff161515610ae157600080fd5b600060090160009054906101000a900473ffffffffffffffffffffffffffffffffffffffff1673ffffffffffffffffffffffffffffffffffffffff163373ffffffffffffffffffffffffffffffffffffffff16141515610b4057600080fd5b600060040160008273ffffffffffffffffffffffffffffffffffffffff1673ffffffffffffffffffffffffffffffffffffffff168152602001908152602001600020600080820160006101000a81549073ffffffffffffffffffffffffffffffffffffffff02191690556001820160009055505050565b600b60009054906101000a900473ffffffffffffffffffffffffffffffffffffffff1681565b600c60009054906101000a900473ffffffffffffffffffffffffffffffffffffffff1681565b600060060160009054906101000a900460ff161515610c2157600080fd5b600060090160009054906101000a900473ffffffffffffffffffffffffffffffffffffffff1673ffffffffffffffffffffffffffffffffffffffff163373ffffffffffffffffffffffffffffffffffffffff16141515610c8057600080fd5b600060030160008273ffffffffffffffffffffffffffffffffffffffff1673ffffffffffffffffffffffffffffffffffffffff168152602001908152602001600020600080820160006101000a81549073ffffffffffffffffffffffffffffffffffffffff02191690556001820160009055505050565b600060060160009054906101000a900460ff161515610d1557600080fd5b73__weeveMarketplace______________________63e5b335fd6000836040518363ffffffff167c01000000000000000000000000000000000000000000000000000000000281526004018083815260200180602001828103825283818151815260200191508051906020019080838360005b83811015610da3578082015181840152602081019050610d88565b50505050905090810190601f168015610dd05780820380516001836020036101000a031916815260200191505b50935050505060206040518083038186803b158015610dee57600080fd5b505af4158015610e02573d6000803e3d6000fd5b505050506040513d6020811015610e1857600080fd5b81019080805190602001909291905050501515610e3457600080fd5b50565b600060060160009054906101000a900460ff161515610e5557600080fd5b600060090160009054906101000a900473ffffffffffffffffffffffffffffffffffffffff1673ffffffffffffffffffffffffffffffffffffffff163373ffffffffffffffffffffffffffffffffffffffff16141515610eb457600080fd5b80600060030160008373ffffffffffffffffffffffffffffffffffffffff1673ffffffffffffffffffffffffffffffffffffffff16815260200190815260200160002060000160006101000a81548173ffffffffffffffffffffffffffffffffffffffff021916908373ffffffffffffffffffffffffffffffffffffffff16021790555050565b6000600b60009054906101000a900473ffffffffffffffffffffffffffffffffffffffff1673ffffffffffffffffffffffffffffffffffffffff163373ffffffffffffffffffffffffffffffffffffffff16141515610f9957600080fd5b83600d9080519060200190610faf929190611995565b50600073ffffffffffffffffffffffffffffffffffffffff168273ffffffffffffffffffffffffffffffffffffffff1614151515610fec57600080fd5b81600060090160006101000a81548173ffffffffffffffffffffffffffffffffffffffff021916908373ffffffffffffffffffffffffffffffffffffffff160217905550600080600501819055506001600060060160006101000a81548160ff021916908315150217905550600083101580156110695750606483105b151561107457600080fd5b82600060070181905550600080600801819055506001600060060160006101000a81548160ff021916908315150217905550600c60009054906101000a900473ffffffffffffffffffffffffffffffffffffffff166000600a0160006101000a81548173ffffffffffffffffffffffffffffffffffffffff021916908373ffffffffffffffffffffffffffffffffffffffff160217905550600190509392505050565b606060008060008060008001866040518082805190602001908083835b6020831015156111595780518252602082019150602081019050602083039250611134565b6001836020036101000a038019825116818451168082178552505050505050905001915050908152602001604051809103902060000160008001876040518082805190602001908083835b6020831015156111c957805182526020820191506020810190506020830392506111a4565b6001836020036101000a038019825116818451168082178552505050505050905001915050908152602001604051809103902060010160009054906101000a900473ffffffffffffffffffffffffffffffffffffffff1660008001886040518082805190602001908083835b60208310151561125a5780518252602082019150602081019050602083039250611235565b6001836020036101000a03801982511681845116808217855250505050505090500191505090815260200160405180910390206002015460008001896040518082805190602001908083835b6020831015156112cb57805182526020820191506020810190506020830392506112a6565b6001836020036101000a038019825116818451168082178552505050505050905001915050908152602001604051809103902060030154600080018a6040518082805190602001908083835b60208310151561133c5780518252602082019150602081019050602083039250611317565b6001836020036101000a038019825116818451168082178552505050505050905001915050908152602001604051809103902060040160009054906101000a900460ff16848054600181600116156101000203166002900480601f0160208091040260200160405190810160405280929190818152602001828054600181600116156101000203166002900480156114155780601f106113ea57610100808354040283529160200191611415565b820191906000526020600020905b8154815290600101906020018083116113f857829003601f168201915b505050505094509450945094509450945091939590929450565b600060060160009054906101000a900460ff16151561144d57600080fd5b600060090160009054906101000a900473ffffffffffffffffffffffffffffffffffffffff1673ffffffffffffffffffffffffffffffffffffffff163373ffffffffffffffffffffffffffffffffffffffff161415156114ac57600080fd5b80600060040160008373ffffffffffffffffffffffffffffffffffffffff1673ffffffffffffffffffffffffffffffffffffffff16815260200190815260200160002060000160006101000a81548173ffffffffffffffffffffffffffffffffffffffff021916908373ffffffffffffffffffffffffffffffffffffffff16021790555050565b60008060050154905090565b600060060160009054906101000a900460ff16151561155d57600080fd5b600060090160009054906101000a900473ffffffffffffffffffffffffffffffffffffffff1673ffffffffffffffffffffffffffffffffffffffff163373ffffffffffffffffffffffffffffffffffffffff161415156115bc57600080fd5b600081101580156115cd5750606481105b15156115d857600080fd5b8060006007018190555050565b600060060160009054906101000a900460ff16151561160357600080fd5b600060090160009054906101000a900473ffffffffffffffffffffffffffffffffffffffff1673ffffffffffffffffffffffffffffffffffffffff163373ffffffffffffffffffffffffffffffffffffffff1614151561166257600080fd5b600060080154811115151561167657600080fd5b6000600a0160009054906101000a900473ffffffffffffffffffffffffffffffffffffffff1673ffffffffffffffffffffffffffffffffffffffff1663a9059cbb83836040518363ffffffff167c0100000000000000000000000000000000000000000000000000000000028152600401808373ffffffffffffffffffffffffffffffffffffffff1673ffffffffffffffffffffffffffffffffffffffff16815260200182815260200192505050602060405180830381600087803b15801561173e57600080fd5b505af1158015611752573d6000803e3d6000fd5b505050506040513d602081101561176857600080fd5b8101908080519060200190929190505050151561178457600080fd5b61179c8160006008015461197c90919063ffffffff16565b6000600801819055505050565b60008060050154908060060160009054906101000a900460ff16908060070154908060080154908060090160009054906101000a900473ffffffffffffffffffffffffffffffffffffffff169080600a0160009054906101000a900473ffffffffffffffffffffffffffffffffffffffff16905086565b60008173ffffffffffffffffffffffffffffffffffffffff16600060030160008473ffffffffffffffffffffffffffffffffffffffff1673ffffffffffffffffffffffffffffffffffffffff16815260200190815260200160002060000160009054906101000a900473ffffffffffffffffffffffffffffffffffffffff1673ffffffffffffffffffffffffffffffffffffffff1614156118c457600190506118c9565b600090505b919050565b60008173ffffffffffffffffffffffffffffffffffffffff16600060040160008473ffffffffffffffffffffffffffffffffffffffff1673ffffffffffffffffffffffffffffffffffffffff16815260200190815260200160002060000160009054906101000a900473ffffffffffffffffffffffffffffffffffffffff1673ffffffffffffffffffffffffffffffffffffffff1614156119725760019050611977565b600090505b919050565b600082821115151561198a57fe5b818303905092915050565b828054600181600116156101000203166002900490600052602060002090601f016020900481019282601f106119d657805160ff1916838001178555611a04565b82800160010185558215611a04579182015b82811115611a035782518255916020019190600101906119e8565b5b509050611a119190611a15565b5090565b611a3791905b80821115611a33576000816000905550600101611a1b565b5090565b905600a165627a7a723058202c6e78b402389130003ba199c47b4fc1058d82b222103fa2423cea374289b3620029",
  "source": "pragma solidity ^0.4.24;\n\nimport \"./libraries/weeveMarketplaceLib.sol\";\n\n// An exemplary weeve marketplace contract\ncontract myMarketplace {    \n    using SafeMath for uint;\n\n    // General storage for the marketplace\n    weeveMarketplace.MarketplaceStorage public myMarketplaceStorage;\n\n    // Address of the weeve Factory\n    address public weeveFactoryAddress = 0x0000000000000000000000000000000000000000;\n\n    // Address of the WEEV token\n    address public weeveTokenAddress = 0x0000000000000000000000000000000000000000;\n\n    // Name of the marketplace\n    string public marketplaceName;\n\n    // Constructor (fired once upon creation)\n    constructor() public {\n        // Initially the marketplace is not active\n        myMarketplaceStorage.marketplaceIsActive = false;\n    }\n\n    function initialize(string _name, uint256 _commission, address _owner) public returns(bool){\n        // Only the weeve factory is able to initialise a marketplace\n        require(msg.sender == weeveFactoryAddress);\n\n        // Setting the name of the marketplace\n        marketplaceName = _name;\n\n        // Setting the owner of the marketplace\n        require(_owner != address(0));\n        myMarketplaceStorage.marketplaceOwner = _owner;\n\n        // Number of all active devices\n        myMarketplaceStorage.currentTrades = 0;\n\n        // Activation of the marketplace\n        myMarketplaceStorage.marketplaceIsActive = true;\n\n        // Setting a commission percentage for each trade\n        require(_commission >= 0 && _commission < 100);\n        myMarketplaceStorage.commission = _commission;\n\n        // Initializing the the balance of the currently collected commission\n        myMarketplaceStorage.commissionBalance = 0;\n\n        // Activation of the marketplace\n        myMarketplaceStorage.marketplaceIsActive = true;\n\n        // Setting the address of the WEEV erc20 token\n        myMarketplaceStorage.token = ERC20(weeveTokenAddress);\n        \n        return true;\n    }\n\n    function closeMarketplace() public returns (bool) {\n        // Only the weeve factory is able to initialise a registry\n        require(msg.sender == weeveFactoryAddress);\n        require(myMarketplaceStorage.currentTrades == 0);\n        myMarketplaceStorage.marketplaceIsActive = false;\n        return true;\n    }\n\n    // Posting a new trade offer to the marketplace by ID, price and amount\n    function sell(string _tradeID, uint256 _price, uint256 _amount) public marketplaceIsActive {\n        require(weeveMarketplace.sell(myMarketplaceStorage, _tradeID, _price, _amount));\n    }\n\n    // Accepting a trade offer from the marketplace by ID\n    function buy(string _tradeID) public marketplaceIsActive {\n        require(weeveMarketplace.buy(myMarketplaceStorage, _tradeID));\n    }\n\n    // Withdrawing the acrued commission from the marketplace as the owner\n    function withdrawCommission(address _recipientAddress, uint256 _amountOfTokens) public marketplaceIsActive onlyMarketplaceOwner {\n        // Number of tokens that will be withdrawn must be smaller or equal to the balance of the commission\n        require(_amountOfTokens <= myMarketplaceStorage.commissionBalance);\n\n        // Transfering the tokens to the recipient\n        require(myMarketplaceStorage.token.transfer(_recipientAddress, _amountOfTokens));\n\n        // Updating the commission balance\n        myMarketplaceStorage.commissionBalance = myMarketplaceStorage.commissionBalance.sub(_amountOfTokens);\n    }\n\n    // Returns the trade information\n    function getTrade(string _tradeID) public view returns(string tradeID, address seller, uint256 price, uint256 amount, bool paid) {\n        return(myMarketplaceStorage.trades[_tradeID].tradeID, myMarketplaceStorage.trades[_tradeID].seller, myMarketplaceStorage.trades[_tradeID].price, myMarketplaceStorage.trades[_tradeID].amount, myMarketplaceStorage.trades[_tradeID].paid);\n    }\n\n    // Returns amount of devices that an address has in this marketplace\n    function getTotalTradeCount() public view returns (uint256 numberOfCurrentTrades) {\n        return myMarketplaceStorage.currentTrades;\n    }\n\n    // Changeing the commission of this marketplace as the owner\n    function changeCommission(uint256 _commission) public marketplaceIsActive onlyMarketplaceOwner {\n        require(_commission >= 0 && _commission < 100);\n        myMarketplaceStorage.commission = _commission;\n    }\n\n    function addValidator(address _address) public marketplaceIsActive onlyMarketplaceOwner {\n        myMarketplaceStorage.validators[_address].validatorAddress = _address;\n    }\n\n    function removeValidator(address _address) public marketplaceIsActive onlyMarketplaceOwner {\n        delete myMarketplaceStorage.validators[_address];\n    }\n\n    function addArbiter(address _address) public marketplaceIsActive onlyMarketplaceOwner {\n        myMarketplaceStorage.arbiters[_address].arbiterAddress = _address;\n    }\n\n    function removeArbiter(address _address) public marketplaceIsActive onlyMarketplaceOwner {\n        delete myMarketplaceStorage.arbiters[_address];\n    }\n    \n    function checkValidatorStatus(address _address) public view returns (bool status) {\n        if(myMarketplaceStorage.validators[_address].validatorAddress == _address) {\n            return true;\n        } else {\n            return false;\n        }\n    }\n\n    function checkArbiterStatus(address _address) public view returns (bool status) {\n        if(myMarketplaceStorage.arbiters[_address].arbiterAddress == _address) {\n            return true;\n        } else {\n            return false;\n        }\n    }\n\n    // Modifier: Checks whether the caller is the owner of this registry\n    modifier onlyMarketplaceOwner {\n        require(msg.sender == myMarketplaceStorage.marketplaceOwner);\n        _;\n    }\n\n    // Modifier: Checks whether an address is a validator\n    modifier isValidator(address _address) {\n        require(myMarketplaceStorage.validators[_address].validatorAddress == _address);\n        _;\n    }\n\n    // Modifier: Checks whether an address is an arbiter\n    modifier isArbiter(address _address) {\n        require(myMarketplaceStorage.arbiters[_address].arbiterAddress == _address);\n        _;\n    }\n\n    // Modifier: Checks whether this marketplace is activated\n    modifier marketplaceIsActive() {\n        require(myMarketplaceStorage.marketplaceIsActive);\n        _;\n    }\n}",
  "sourcePath": "/home/meyerhoeferb/weeve/weeveresearch/contracts/weeveMarketplace.sol",
  "compiler": {
    "name": "solc",
    "version": "0.4.24+commit.e67f0147.Emscripten.clang"
  },
  "schemaVersion": "2.0.0",
  "updatedAt": "2018-07-10T08:25:25.151Z"
}