{
  "contractName": "myRegistry",
  "abi": [
    {
      "constant": true,
      "inputs": [],
      "name": "myRegistryStorage",
      "outputs": [
        {
          "name": "registryName",
          "type": "string"
        },
        {
          "name": "weeveFactoryAddress",
          "type": "address"
        },
        {
          "name": "weeveTokenAddress",
          "type": "address"
        },
        {
          "name": "weeveVotingAddress",
          "type": "address"
        },
        {
          "name": "tokenStakePerRegistration",
          "type": "uint256"
        },
        {
          "name": "tokenStakePerValidator",
          "type": "uint256"
        },
        {
          "name": "tokenStakePerArbiter",
          "type": "uint256"
        },
        {
          "name": "activeDevices",
          "type": "uint256"
        },
        {
          "name": "registryIsActive",
          "type": "bool"
        },
        {
          "name": "registryOwner",
          "type": "address"
        },
        {
          "name": "token",
          "type": "address"
        },
        {
          "name": "vote",
          "type": "address"
        }
      ],
      "payable": false,
      "stateMutability": "view",
      "type": "function"
    },
    {
      "inputs": [],
      "payable": false,
      "stateMutability": "nonpayable",
      "type": "constructor"
    },
    {
      "anonymous": false,
      "inputs": [
        {
          "indexed": true,
          "name": "deviceID",
          "type": "string"
        },
        {
          "indexed": true,
          "name": "owner",
          "type": "address"
        }
      ],
      "name": "deviceRegistration",
      "type": "event"
    },
    {
      "anonymous": false,
      "inputs": [
        {
          "indexed": true,
          "name": "deviceID",
          "type": "string"
        },
        {
          "indexed": true,
          "name": "owner",
          "type": "address"
        }
      ],
      "name": "deviceAccepted",
      "type": "event"
    },
    {
      "anonymous": false,
      "inputs": [
        {
          "indexed": true,
          "name": "deviceID",
          "type": "string"
        },
        {
          "indexed": true,
          "name": "owner",
          "type": "address"
        }
      ],
      "name": "deviceUnregistered",
      "type": "event"
    },
    {
      "anonymous": false,
      "inputs": [
        {
          "indexed": true,
          "name": "voteID",
          "type": "uint256"
        },
        {
          "indexed": true,
          "name": "deviceID",
          "type": "string"
        }
      ],
      "name": "challengeRaised",
      "type": "event"
    },
    {
      "anonymous": false,
      "inputs": [
        {
          "indexed": true,
          "name": "voteID",
          "type": "uint256"
        },
        {
          "indexed": true,
          "name": "voter",
          "type": "address"
        },
        {
          "indexed": false,
          "name": "vote",
          "type": "bool"
        },
        {
          "indexed": false,
          "name": "numberOfTokens",
          "type": "uint256"
        }
      ],
      "name": "votedOnChallenge",
      "type": "event"
    },
    {
      "anonymous": false,
      "inputs": [
        {
          "indexed": true,
          "name": "voteID",
          "type": "uint256"
        },
        {
          "indexed": true,
          "name": "deviceID",
          "type": "string"
        },
        {
          "indexed": false,
          "name": "votePassed",
          "type": "bool"
        },
        {
          "indexed": false,
          "name": "numberOfTokensFor",
          "type": "uint256"
        },
        {
          "indexed": false,
          "name": "numberOfTokensAgainst",
          "type": "uint256"
        }
      ],
      "name": "challengeResolved",
      "type": "event"
    },
    {
      "constant": false,
      "inputs": [
        {
          "name": "_name",
          "type": "string"
        },
        {
          "name": "_stakePerRegistration",
          "type": "uint256"
        },
        {
          "name": "_stakePerArbiter",
          "type": "uint256"
        },
        {
          "name": "_stakePerValidator",
          "type": "uint256"
        },
        {
          "name": "_owner",
          "type": "address"
        }
      ],
      "name": "initialize",
      "outputs": [
        {
          "name": "",
          "type": "bool"
        }
      ],
      "payable": false,
      "stateMutability": "nonpayable",
      "type": "function"
    },
    {
      "constant": false,
      "inputs": [
        {
          "name": "_address",
          "type": "address"
        }
      ],
      "name": "setVotingAddress",
      "outputs": [],
      "payable": false,
      "stateMutability": "nonpayable",
      "type": "function"
    },
    {
      "constant": false,
      "inputs": [],
      "name": "closeRegistry",
      "outputs": [
        {
          "name": "",
          "type": "bool"
        }
      ],
      "payable": false,
      "stateMutability": "nonpayable",
      "type": "function"
    },
    {
      "constant": false,
      "inputs": [
        {
          "name": "_deviceName",
          "type": "string"
        },
        {
          "name": "_deviceID",
          "type": "string"
        },
        {
          "name": "_deviceMeta",
          "type": "bytes32[]"
        }
      ],
      "name": "requestRegistration",
      "outputs": [],
      "payable": false,
      "stateMutability": "nonpayable",
      "type": "function"
    },
    {
      "constant": false,
      "inputs": [
        {
          "name": "_deviceID",
          "type": "string"
        }
      ],
      "name": "approveRegistrationRequest",
      "outputs": [],
      "payable": false,
      "stateMutability": "nonpayable",
      "type": "function"
    },
    {
      "constant": false,
      "inputs": [
        {
          "name": "_deviceID",
          "type": "string"
        }
      ],
      "name": "unregister",
      "outputs": [],
      "payable": false,
      "stateMutability": "nonpayable",
      "type": "function"
    },
    {
      "constant": false,
      "inputs": [
        {
          "name": "_deviceID",
          "type": "string"
        },
        {
          "name": "_commitDuration",
          "type": "uint256"
        },
        {
          "name": "_revealDuration",
          "type": "uint256"
        }
      ],
      "name": "raiseChallenge",
      "outputs": [],
      "payable": false,
      "stateMutability": "nonpayable",
      "type": "function"
    },
    {
      "constant": false,
      "inputs": [
        {
          "name": "_voteID",
          "type": "uint256"
        },
        {
          "name": "_numberOfTokens",
          "type": "uint256"
        },
        {
          "name": "_voteHash",
          "type": "bytes32"
        }
      ],
      "name": "voteOnChallenge",
      "outputs": [],
      "payable": false,
      "stateMutability": "nonpayable",
      "type": "function"
    },
    {
      "constant": false,
      "inputs": [
        {
          "name": "_voteID",
          "type": "uint256"
        },
        {
          "name": "_voteOption",
          "type": "uint256"
        },
        {
          "name": "_voteSalt",
          "type": "uint256"
        }
      ],
      "name": "revealVote",
      "outputs": [],
      "payable": false,
      "stateMutability": "nonpayable",
      "type": "function"
    },
    {
      "constant": false,
      "inputs": [
        {
          "name": "_voteID",
          "type": "uint256"
        }
      ],
      "name": "resolveChallenge",
      "outputs": [
        {
          "name": "",
          "type": "bool"
        }
      ],
      "payable": false,
      "stateMutability": "nonpayable",
      "type": "function"
    },
    {
      "constant": false,
      "inputs": [
        {
          "name": "_voteID",
          "type": "uint256"
        }
      ],
      "name": "claimRewardOfVote",
      "outputs": [],
      "payable": false,
      "stateMutability": "nonpayable",
      "type": "function"
    },
    {
      "constant": false,
      "inputs": [
        {
          "name": "_address",
          "type": "address"
        }
      ],
      "name": "emergencyRefund",
      "outputs": [],
      "payable": false,
      "stateMutability": "nonpayable",
      "type": "function"
    },
    {
      "constant": true,
      "inputs": [
        {
          "name": "_address",
          "type": "address"
        }
      ],
      "name": "getTotalStakeOfAddress",
      "outputs": [
        {
          "name": "totalStake",
          "type": "uint256"
        }
      ],
      "payable": false,
      "stateMutability": "view",
      "type": "function"
    },
    {
      "constant": true,
      "inputs": [
        {
          "name": "_deviceID",
          "type": "string"
        }
      ],
      "name": "getDeviceByID",
      "outputs": [
        {
          "name": "deviceName",
          "type": "string"
        },
        {
          "name": "deviceID",
          "type": "string"
        },
        {
          "name": "hashOfDeviceData",
          "type": "bytes32"
        },
        {
          "name": "owner",
          "type": "address"
        },
        {
          "name": "stakedTokens",
          "type": "uint256"
        },
        {
          "name": "registyState",
          "type": "string"
        }
      ],
      "payable": false,
      "stateMutability": "view",
      "type": "function"
    },
    {
      "constant": true,
      "inputs": [
        {
          "name": "_deviceID",
          "type": "string"
        }
      ],
      "name": "getDeviceMetainformation1ByID",
      "outputs": [
        {
          "name": "sensors",
          "type": "string"
        },
        {
          "name": "dataType",
          "type": "string"
        },
        {
          "name": "manufacturer",
          "type": "string"
        },
        {
          "name": "identifier",
          "type": "string"
        },
        {
          "name": "description",
          "type": "string"
        },
        {
          "name": "product",
          "type": "string"
        }
      ],
      "payable": false,
      "stateMutability": "view",
      "type": "function"
    },
    {
      "constant": true,
      "inputs": [
        {
          "name": "_deviceID",
          "type": "string"
        }
      ],
      "name": "getDeviceMetainformation2ByID",
      "outputs": [
        {
          "name": "version",
          "type": "string"
        },
        {
          "name": "serial",
          "type": "string"
        },
        {
          "name": "cpu",
          "type": "string"
        },
        {
          "name": "trustzone",
          "type": "string"
        },
        {
          "name": "wifi",
          "type": "string"
        }
      ],
      "payable": false,
      "stateMutability": "view",
      "type": "function"
    },
    {
      "constant": true,
      "inputs": [
        {
          "name": "_address",
          "type": "address"
        },
        {
          "name": "_devicePositionInArray",
          "type": "uint256"
        }
      ],
      "name": "getDeviceIDFromUserArray",
      "outputs": [
        {
          "name": "deviceID",
          "type": "string"
        }
      ],
      "payable": false,
      "stateMutability": "view",
      "type": "function"
    },
    {
      "constant": true,
      "inputs": [
        {
          "name": "_address",
          "type": "address"
        }
      ],
      "name": "getDeviceCountOfUser",
      "outputs": [
        {
          "name": "numberOfDevices",
          "type": "uint256"
        }
      ],
      "payable": false,
      "stateMutability": "view",
      "type": "function"
    },
    {
      "constant": false,
      "inputs": [
        {
          "name": "_numberOfTokens",
          "type": "uint256"
        }
      ],
      "name": "setStakePerRegistration",
      "outputs": [],
      "payable": false,
      "stateMutability": "nonpayable",
      "type": "function"
    },
    {
      "constant": false,
      "inputs": [
        {
          "name": "_address",
          "type": "address"
        }
      ],
      "name": "addValidator",
      "outputs": [],
      "payable": false,
      "stateMutability": "nonpayable",
      "type": "function"
    },
    {
      "constant": false,
      "inputs": [
        {
          "name": "_address",
          "type": "address"
        }
      ],
      "name": "removeValidator",
      "outputs": [],
      "payable": false,
      "stateMutability": "nonpayable",
      "type": "function"
    },
    {
      "constant": false,
      "inputs": [
        {
          "name": "_address",
          "type": "address"
        }
      ],
      "name": "addArbiter",
      "outputs": [],
      "payable": false,
      "stateMutability": "nonpayable",
      "type": "function"
    },
    {
      "constant": false,
      "inputs": [
        {
          "name": "_address",
          "type": "address"
        }
      ],
      "name": "removeArbiter",
      "outputs": [],
      "payable": false,
      "stateMutability": "nonpayable",
      "type": "function"
    },
    {
      "constant": true,
      "inputs": [
        {
          "name": "_address",
          "type": "address"
        }
      ],
      "name": "checkValidatorStatus",
      "outputs": [
        {
          "name": "status",
          "type": "bool"
        }
      ],
      "payable": false,
      "stateMutability": "view",
      "type": "function"
    },
    {
      "constant": true,
      "inputs": [
        {
          "name": "_address",
          "type": "address"
        }
      ],
      "name": "checkArbiterStatus",
      "outputs": [
        {
          "name": "status",
          "type": "bool"
        }
      ],
      "payable": false,
      "stateMutability": "view",
      "type": "function"
    }
  ],
  "bytecode": "0x608060405234801561001057600080fd5b50600080600e0160006101000a81548160ff02191690831515021790555060008060010160006101000a81548173ffffffffffffffffffffffffffffffffffffffff021916908373ffffffffffffffffffffffffffffffffffffffff16021790555060008060020160006101000a81548173ffffffffffffffffffffffffffffffffffffffff021916908373ffffffffffffffffffffffffffffffffffffffff16021790555060008060030160006101000a81548173ffffffffffffffffffffffffffffffffffffffff021916908373ffffffffffffffffffffffffffffffffffffffff160217905550614d40806101096000396000f300608060405260043610610154576000357c0100000000000000000000000000000000000000000000000000000000900463ffffffff168063045f70191461015957806308ef4f741461019c5780632ea4ad76146101cb5780633487e08c1461021057806340a141ff146102535780634d238c8e14610296578063533d28dc146102d9578063631831fb146103065780636598a1ae146103c557806365e5f5f01461042e578063706c2c24146104f4578063761c7cfe146107865780637a6cfcab146107cb5780639846067c1461080e578063ab61d7a9146109f7578063b11d8bb814610a4e578063b538d3bc14610a8f578063c0be58b214610ad2578063c4abf32614610bc4578063cb0b75ac14610bf1578063d57b623014610df4578063e4a7bdba14610e71578063e73308e414610ec8578063ee9bfff514610f31578063f973af5f1461122f578063fbc6e3ae1461128a575b600080fd5b34801561016557600080fd5b5061019a600480360381019080803573ffffffffffffffffffffffffffffffffffffffff1690602001909291905050506112e5565b005b3480156101a857600080fd5b506101b16114dd565b604051808215151515815260200191505060405180910390f35b3480156101d757600080fd5b5061020e60048036038101908080359060200190929190803590602001909291908035600019169060200190929190505050611574565b005b34801561021c57600080fd5b50610251600480360381019080803573ffffffffffffffffffffffffffffffffffffffff1690602001909291905050506117de565b005b34801561025f57600080fd5b50610294600480360381019080803573ffffffffffffffffffffffffffffffffffffffff1690602001909291905050506118d2565b005b3480156102a257600080fd5b506102d7600480360381019080803573ffffffffffffffffffffffffffffffffffffffff1690602001909291905050506119c6565b005b3480156102e557600080fd5b5061030460048036038101908080359060200190929190505050611aca565b005b34801561031257600080fd5b506103ab600480360381019080803590602001908201803590602001908080601f0160208091040260200160405190810160405280939291908181526020018383808284378201915050505050509192919290803590602001909291908035906020019092919080359060200190929190803573ffffffffffffffffffffffffffffffffffffffff169060200190929190505050611bbb565b604051808215151515815260200191505060405180910390f35b3480156103d157600080fd5b5061042c600480360381019080803590602001908201803590602001908080601f0160208091040260200160405190810160405280939291908181526020018383808284378201915050505050509192919290505050611d93565b005b34801561043a57600080fd5b50610479600480360381019080803573ffffffffffffffffffffffffffffffffffffffff1690602001909291908035906020019092919050505061210f565b6040518080602001828103825283818151815260200191508051906020019080838360005b838110156104b957808201518184015260208101905061049e565b50505050905090810190601f1680156104e65780820380516001836020036101000a031916815260200191505b509250505060405180910390f35b34801561050057600080fd5b5061055b600480360381019080803590602001908201803590602001908080601f016020809104026020016040519081016040528093929190818152602001838380828437820191505050505050919291929050505061220b565b60405180806020018060200180602001806020018060200186810386528b818151815260200191508051906020019080838360005b838110156105ab578082015181840152602081019050610590565b50505050905090810190601f1680156105d85780820380516001836020036101000a031916815260200191505b5086810385528a818151815260200191508051906020019080838360005b838110156106115780820151818401526020810190506105f6565b50505050905090810190601f16801561063e5780820380516001836020036101000a031916815260200191505b50868103845289818151815260200191508051906020019080838360005b8381101561067757808201518184015260208101905061065c565b50505050905090810190601f1680156106a45780820380516001836020036101000a031916815260200191505b50868103835288818151815260200191508051906020019080838360005b838110156106dd5780820151818401526020810190506106c2565b50505050905090810190601f16801561070a5780820380516001836020036101000a031916815260200191505b50868103825287818151815260200191508051906020019080838360005b83811015610743578082015181840152602081019050610728565b50505050905090810190601f1680156107705780820380516001836020036101000a031916815260200191505b509a505050505050505050505060405180910390f35b34801561079257600080fd5b506107b1600480360381019080803590602001909291905050506128d8565b604051808215151515815260200191505060405180910390f35b3480156107d757600080fd5b5061080c600480360381019080803573ffffffffffffffffffffffffffffffffffffffff169060200190929190505050612999565b005b34801561081a57600080fd5b50610823612a83565b60405180806020018d73ffffffffffffffffffffffffffffffffffffffff1673ffffffffffffffffffffffffffffffffffffffff1681526020018c73ffffffffffffffffffffffffffffffffffffffff1673ffffffffffffffffffffffffffffffffffffffff1681526020018b73ffffffffffffffffffffffffffffffffffffffff1673ffffffffffffffffffffffffffffffffffffffff1681526020018a8152602001898152602001888152602001878152602001861515151581526020018573ffffffffffffffffffffffffffffffffffffffff1673ffffffffffffffffffffffffffffffffffffffff1681526020018473ffffffffffffffffffffffffffffffffffffffff1673ffffffffffffffffffffffffffffffffffffffff1681526020018373ffffffffffffffffffffffffffffffffffffffff1673ffffffffffffffffffffffffffffffffffffffff16815260200182810382528e818151815260200191508051906020019080838360005b838110156109b1578082015181840152602081019050610996565b50505050905090810190601f1680156109de5780820380516001836020036101000a031916815260200191505b509d505050505050505050505050505060405180910390f35b348015610a0357600080fd5b50610a38600480360381019080803573ffffffffffffffffffffffffffffffffffffffff169060200190929190505050612c36565b6040518082815260200191505060405180910390f35b348015610a5a57600080fd5b50610a8d600480360381019080803590602001909291908035906020019092919080359060200190929190505050612c84565b005b348015610a9b57600080fd5b50610ad0600480360381019080803573ffffffffffffffffffffffffffffffffffffffff169060200190929190505050612d87565b005b348015610ade57600080fd5b50610bc2600480360381019080803590602001908201803590602001908080601f0160208091040260200160405190810160405280939291908181526020018383808284378201915050505050509192919290803590602001908201803590602001908080601f016020809104026020016040519081016040528093929190818152602001838380828437820191505050505050919291929080359060200190820180359060200190808060200260200160405190810160405280939291908181526020018383602002808284378201915050505050509192919290505050612e8b565b005b348015610bd057600080fd5b50610bef60048036038101908080359060200190929190505050613458565b005b348015610bfd57600080fd5b50610c58600480360381019080803590602001908201803590602001908080601f01602080910402602001604051908101604052809392919081815260200183838082843782019150505050505091929192905050506134c4565b60405180806020018060200187600019166000191681526020018673ffffffffffffffffffffffffffffffffffffffff1673ffffffffffffffffffffffffffffffffffffffff1681526020018581526020018060200184810384528a818151815260200191508051906020019080838360005b83811015610ce6578082015181840152602081019050610ccb565b50505050905090810190601f168015610d135780820380516001836020036101000a031916815260200191505b50848103835289818151815260200191508051906020019080838360005b83811015610d4c578082015181840152602081019050610d31565b50505050905090810190601f168015610d795780820380516001836020036101000a031916815260200191505b50848103825285818151815260200191508051906020019080838360005b83811015610db2578082015181840152602081019050610d97565b50505050905090810190601f168015610ddf5780820380516001836020036101000a031916815260200191505b50995050505050505050505060405180910390f35b348015610e0057600080fd5b50610e6f600480360381019080803590602001908201803590602001908080601f01602080910402602001604051908101604052809392919081815260200183838082843782019150505050505091929192908035906020019092919080359060200190929190505050613ae2565b005b348015610e7d57600080fd5b50610eb2600480360381019080803573ffffffffffffffffffffffffffffffffffffffff169060200190929190505050613d95565b6040518082815260200191505060405180910390f35b348015610ed457600080fd5b50610f2f600480360381019080803590602001908201803590602001908080601f0160208091040260200160405190810160405280939291908181526020018383808284378201915050505050509192919290505050613e76565b005b348015610f3d57600080fd5b50610f98600480360381019080803590602001908201803590602001908080601f01602080910402602001604051908101604052809392919081815260200183838082843782019150505050505091929192905050506143fa565b6040518080602001806020018060200180602001806020018060200187810387528d818151815260200191508051906020019080838360005b83811015610fec578082015181840152602081019050610fd1565b50505050905090810190601f1680156110195780820380516001836020036101000a031916815260200191505b5087810386528c818151815260200191508051906020019080838360005b83811015611052578082015181840152602081019050611037565b50505050905090810190601f16801561107f5780820380516001836020036101000a031916815260200191505b5087810385528b818151815260200191508051906020019080838360005b838110156110b857808201518184015260208101905061109d565b50505050905090810190601f1680156110e55780820380516001836020036101000a031916815260200191505b5087810384528a818151815260200191508051906020019080838360005b8381101561111e578082015181840152602081019050611103565b50505050905090810190601f16801561114b5780820380516001836020036101000a031916815260200191505b50878103835289818151815260200191508051906020019080838360005b83811015611184578082015181840152602081019050611169565b50505050905090810190601f1680156111b15780820380516001836020036101000a031916815260200191505b50878103825288818151815260200191508051906020019080838360005b838110156111ea5780820151818401526020810190506111cf565b50505050905090810190601f1680156112175780820380516001836020036101000a031916815260200191505b509c5050505050505050505050505060405180910390f35b34801561123b57600080fd5b50611270600480360381019080803573ffffffffffffffffffffffffffffffffffffffff169060200190929190505050614bda565b604051808215151515815260200191505060405180910390f35b34801561129657600080fd5b506112cb600480360381019080803573ffffffffffffffffffffffffffffffffffffffff169060200190929190505050614c77565b604051808215151515815260200191505060405180910390f35b6000600e0160019054906101000a900473ffffffffffffffffffffffffffffffffffffffff1673ffffffffffffffffffffffffffffffffffffffff163373ffffffffffffffffffffffffffffffffffffffff1614151561134457600080fd5b60008060090160008373ffffffffffffffffffffffffffffffffffffffff1673ffffffffffffffffffffffffffffffffffffffff1681526020019081526020016000205411151561139457600080fd5b6000600f0160009054906101000a900473ffffffffffffffffffffffffffffffffffffffff1673ffffffffffffffffffffffffffffffffffffffff1663a9059cbb82600060090160008573ffffffffffffffffffffffffffffffffffffffff1673ffffffffffffffffffffffffffffffffffffffff168152602001908152602001600020546040518363ffffffff167c0100000000000000000000000000000000000000000000000000000000028152600401808373ffffffffffffffffffffffffffffffffffffffff1673ffffffffffffffffffffffffffffffffffffffff16815260200182815260200192505050602060405180830381600087803b15801561149e57600080fd5b505af11580156114b2573d6000803e3d6000fd5b505050506040513d60208110156114c857600080fd5b81019080805190602001909291905050505050565b60008060010160009054906101000a900473ffffffffffffffffffffffffffffffffffffffff1673ffffffffffffffffffffffffffffffffffffffff163373ffffffffffffffffffffffffffffffffffffffff1614151561153d57600080fd5b600080600d015414151561155057600080fd5b600080600e0160006101000a81548160ff0219169083151502179055506001905090565b6000600e0160009054906101000a900460ff16151561159257600080fd5b3382806000600f0160009054906101000a900473ffffffffffffffffffffffffffffffffffffffff1673ffffffffffffffffffffffffffffffffffffffff1663dd62ed3e84306040518363ffffffff167c0100000000000000000000000000000000000000000000000000000000028152600401808373ffffffffffffffffffffffffffffffffffffffff1673ffffffffffffffffffffffffffffffffffffffff1681526020018273ffffffffffffffffffffffffffffffffffffffff1673ffffffffffffffffffffffffffffffffffffffff16815260200192505050602060405180830381600087803b15801561168957600080fd5b505af115801561169d573d6000803e3d6000fd5b505050506040513d60208110156116b357600080fd5b8101908080519060200190929190505050101515156116d157600080fd5b73__weeveRegistry_________________________6370d46afc6000873388886040518663ffffffff167c0100000000000000000000000000000000000000000000000000000000028152600401808681526020018581526020018473ffffffffffffffffffffffffffffffffffffffff1673ffffffffffffffffffffffffffffffffffffffff16815260200183815260200182600019166000191681526020019550505050505060206040518083038186803b15801561179157600080fd5b505af41580156117a5573d6000803e3d6000fd5b505050506040513d60208110156117bb57600080fd5b810190808051906020019092919050505015156117d757600080fd5b5050505050565b6000600e0160009054906101000a900460ff1615156117fc57600080fd5b6000600e0160019054906101000a900473ffffffffffffffffffffffffffffffffffffffff1673ffffffffffffffffffffffffffffffffffffffff163373ffffffffffffffffffffffffffffffffffffffff1614151561185b57600080fd5b600060080160008273ffffffffffffffffffffffffffffffffffffffff1673ffffffffffffffffffffffffffffffffffffffff168152602001908152602001600020600080820160006101000a81549073ffffffffffffffffffffffffffffffffffffffff02191690556001820160009055505050565b6000600e0160009054906101000a900460ff1615156118f057600080fd5b6000600e0160019054906101000a900473ffffffffffffffffffffffffffffffffffffffff1673ffffffffffffffffffffffffffffffffffffffff163373ffffffffffffffffffffffffffffffffffffffff1614151561194f57600080fd5b600060070160008273ffffffffffffffffffffffffffffffffffffffff1673ffffffffffffffffffffffffffffffffffffffff168152602001908152602001600020600080820160006101000a81549073ffffffffffffffffffffffffffffffffffffffff02191690556001820160009055505050565b6000600e0160009054906101000a900460ff1615156119e457600080fd5b6000600e0160019054906101000a900473ffffffffffffffffffffffffffffffffffffffff1673ffffffffffffffffffffffffffffffffffffffff163373ffffffffffffffffffffffffffffffffffffffff16141515611a4357600080fd5b80600060070160008373ffffffffffffffffffffffffffffffffffffffff1673ffffffffffffffffffffffffffffffffffffffff16815260200190815260200160002060000160006101000a81548173ffffffffffffffffffffffffffffffffffffffff021916908373ffffffffffffffffffffffffffffffffffffffff16021790555050565b73__weeveRegistry_________________________6330051718600083336040518463ffffffff167c0100000000000000000000000000000000000000000000000000000000028152600401808481526020018381526020018273ffffffffffffffffffffffffffffffffffffffff1673ffffffffffffffffffffffffffffffffffffffff168152602001935050505060206040518083038186803b158015611b7257600080fd5b505af4158015611b86573d6000803e3d6000fd5b505050506040513d6020811015611b9c57600080fd5b81019080805190602001909291905050501515611bb857600080fd5b50565b60008060010160009054906101000a900473ffffffffffffffffffffffffffffffffffffffff1673ffffffffffffffffffffffffffffffffffffffff163373ffffffffffffffffffffffffffffffffffffffff16141515611c1b57600080fd5b73__weeveRegistry_________________________63f661be86600088888888886040518763ffffffff167c010000000000000000000000000000000000000000000000000000000002815260040180878152602001806020018681526020018581526020018481526020018373ffffffffffffffffffffffffffffffffffffffff1673ffffffffffffffffffffffffffffffffffffffff168152602001828103825287818151815260200191508051906020019080838360005b83811015611cf1578082015181840152602081019050611cd6565b50505050905090810190601f168015611d1e5780820380516001836020036101000a031916815260200191505b5097505050505050505060206040518083038186803b158015611d4057600080fd5b505af4158015611d54573d6000803e3d6000fd5b505050506040513d6020811015611d6a57600080fd5b81019080805190602001909291905050501515611d8657600080fd5b6001905095945050505050565b6000600e0160009054906101000a900460ff161515611db157600080fd5b803373ffffffffffffffffffffffffffffffffffffffff166000600401826040518082805190602001908083835b602083101515611e045780518252602082019150602081019050602083039250611ddf565b6001836020036101000a038019825116818451168082178552505050505050905001915050908152602001604051809103902060020160009054906101000a900473ffffffffffffffffffffffffffffffffffffffff1673ffffffffffffffffffffffffffffffffffffffff16141515611e7d57600080fd5b81600080600401826040518082805190602001908083835b602083101515611eba5780518252602082019150602081019050602083039250611e95565b6001836020036101000a0380198251168184511680821785525050505050509050019150509081526020016040518091039020600101805460018160011615610100020316600290049050111515611f1157600080fd5b73__weeveRegistry_________________________63ef181d71600033866040518463ffffffff167c0100000000000000000000000000000000000000000000000000000000028152600401808481526020018373ffffffffffffffffffffffffffffffffffffffff1673ffffffffffffffffffffffffffffffffffffffff16815260200180602001828103825283818151815260200191508051906020019080838360005b83811015611fd2578082015181840152602081019050611fb7565b50505050905090810190601f168015611fff5780820380516001836020036101000a031916815260200191505b5094505050505060206040518083038186803b15801561201e57600080fd5b505af4158015612032573d6000803e3d6000fd5b505050506040513d602081101561204857600080fd5b8101908080519060200190929190505050151561206457600080fd5b3373ffffffffffffffffffffffffffffffffffffffff16836040518082805190602001908083835b6020831015156120b1578051825260208201915060208101905060208303925061208c565b6001836020036101000a03801982511681845116808217855250505050505090500191505060405180910390207f60d8cf05bb28d48ac21a868d4990375f5b6fd961da4e3c91465b06e45795903e60405160405180910390a3505050565b6060600060050160008473ffffffffffffffffffffffffffffffffffffffff1673ffffffffffffffffffffffffffffffffffffffff1681526020019081526020016000208281548110151561216057fe5b906000526020600020018054600181600116156101000203166002900480601f0160208091040260200160405190810160405280929190818152602001828054600181600116156101000203166002900480156121fe5780601f106121d3576101008083540402835291602001916121fe565b820191906000526020600020905b8154815290600101906020018083116121e157829003601f168201915b5050505050905092915050565b6060806060806060853373ffffffffffffffffffffffffffffffffffffffff166000600401826040518082805190602001908083835b6020831015156122665780518252602082019150602081019050602083039250612241565b6001836020036101000a038019825116818451168082178552505050505050905001915050908152602001604051809103902060020160009054906101000a900473ffffffffffffffffffffffffffffffffffffffff1673ffffffffffffffffffffffffffffffffffffffff161415156122df57600080fd5b86600080600401826040518082805190602001908083835b60208310151561231c57805182526020820191506020810190506020830392506122f7565b6001836020036101000a038019825116818451168082178552505050505050905001915050908152602001604051809103902060010180546001816001161561010002031660029004905011151561237357600080fd5b6000600401886040518082805190602001908083835b6020831015156123ae5780518252602082019150602081019050602083039250612389565b6001836020036101000a03801982511681845116808217855250505050505090500191505090815260200160405180910390206006016006016000600401896040518082805190602001908083835b60208310151561242257805182526020820191506020810190506020830392506123fd565b6001836020036101000a038019825116818451168082178552505050505050905001915050908152602001604051809103902060060160070160006004018a6040518082805190602001908083835b6020831015156124965780518252602082019150602081019050602083039250612471565b6001836020036101000a038019825116818451168082178552505050505050905001915050908152602001604051809103902060060160080160006004018b6040518082805190602001908083835b60208310151561250a57805182526020820191506020810190506020830392506124e5565b6001836020036101000a038019825116818451168082178552505050505050905001915050908152602001604051809103902060060160090160006004018c6040518082805190602001908083835b60208310151561257e5780518252602082019150602081019050602083039250612559565b6001836020036101000a0380198251168184511680821785525050505050509050019150509081526020016040518091039020600601600a01848054600181600116156101000203166002900480601f01602080910402602001604051908101604052809291908181526020018280546001816001161561010002031660029004801561264c5780601f106126215761010080835404028352916020019161264c565b820191906000526020600020905b81548152906001019060200180831161262f57829003601f168201915b50505050509450838054600181600116156101000203166002900480601f0160208091040260200160405190810160405280929190818152602001828054600181600116156101000203166002900480156126e85780601f106126bd576101008083540402835291602001916126e8565b820191906000526020600020905b8154815290600101906020018083116126cb57829003601f168201915b50505050509350828054600181600116156101000203166002900480601f0160208091040260200160405190810160405280929190818152602001828054600181600116156101000203166002900480156127845780601f1061275957610100808354040283529160200191612784565b820191906000526020600020905b81548152906001019060200180831161276757829003601f168201915b50505050509250818054600181600116156101000203166002900480601f0160208091040260200160405190810160405280929190818152602001828054600181600116156101000203166002900480156128205780601f106127f557610100808354040283529160200191612820565b820191906000526020600020905b81548152906001019060200180831161280357829003601f168201915b50505050509150808054600181600116156101000203166002900480601f0160208091040260200160405190810160405280929190818152602001828054600181600116156101000203166002900480156128bc5780601f10612891576101008083540402835291602001916128bc565b820191906000526020600020905b81548152906001019060200180831161289f57829003601f168201915b5050505050905096509650965096509650505091939590929450565b600073__weeveRegistry_________________________63593229dd6000846040518363ffffffff167c0100000000000000000000000000000000000000000000000000000000028152600401808381526020018281526020019250505060206040518083038186803b15801561294e57600080fd5b505af4158015612962573d6000803e3d6000fd5b505050506040513d602081101561297857600080fd5b8101908080519060200190929190505050151561299457600080fd5b919050565b6000600e0160019054906101000a900473ffffffffffffffffffffffffffffffffffffffff1673ffffffffffffffffffffffffffffffffffffffff163373ffffffffffffffffffffffffffffffffffffffff161415156129f857600080fd5b80600060030160006101000a81548173ffffffffffffffffffffffffffffffffffffffff021916908373ffffffffffffffffffffffffffffffffffffffff16021790555080600060100160006101000a81548173ffffffffffffffffffffffffffffffffffffffff021916908373ffffffffffffffffffffffffffffffffffffffff16021790555050565b6000806000018054600181600116156101000203166002900480601f016020809104026020016040519081016040528092919081815260200182805460018160011615610100020316600290048015612b1d5780601f10612af257610100808354040283529160200191612b1d565b820191906000526020600020905b815481529060010190602001808311612b0057829003601f168201915b5050505050908060010160009054906101000a900473ffffffffffffffffffffffffffffffffffffffff16908060020160009054906101000a900473ffffffffffffffffffffffffffffffffffffffff16908060030160009054906101000a900473ffffffffffffffffffffffffffffffffffffffff169080600a01549080600b01549080600c01549080600d01549080600e0160009054906101000a900460ff169080600e0160019054906101000a900473ffffffffffffffffffffffffffffffffffffffff169080600f0160009054906101000a900473ffffffffffffffffffffffffffffffffffffffff16908060100160009054906101000a900473ffffffffffffffffffffffffffffffffffffffff1690508c565b60008060050160008373ffffffffffffffffffffffffffffffffffffffff1673ffffffffffffffffffffffffffffffffffffffff168152602001908152602001600020805490509050919050565b73__weeveRegistry_________________________636fe948176000853386866040518663ffffffff167c0100000000000000000000000000000000000000000000000000000000028152600401808681526020018581526020018473ffffffffffffffffffffffffffffffffffffffff1673ffffffffffffffffffffffffffffffffffffffff1681526020018381526020018281526020019550505050505060206040518083038186803b158015612d3c57600080fd5b505af4158015612d50573d6000803e3d6000fd5b505050506040513d6020811015612d6657600080fd5b81019080805190602001909291905050501515612d8257600080fd5b505050565b6000600e0160009054906101000a900460ff161515612da557600080fd5b6000600e0160019054906101000a900473ffffffffffffffffffffffffffffffffffffffff1673ffffffffffffffffffffffffffffffffffffffff163373ffffffffffffffffffffffffffffffffffffffff16141515612e0457600080fd5b80600060080160008373ffffffffffffffffffffffffffffffffffffffff1673ffffffffffffffffffffffffffffffffffffffff16815260200190815260200160002060000160006101000a81548173ffffffffffffffffffffffffffffffffffffffff021916908373ffffffffffffffffffffffffffffffffffffffff16021790555050565b6000600e0160009054906101000a900460ff161515612ea957600080fd5b81600080600401826040518082805190602001908083835b602083101515612ee65780518252602082019150602081019050602083039250612ec1565b6001836020036101000a0380198251168184511680821785525050505050509050019150509081526020016040518091039020600101805460018160011615610100020316600290049050141515612f3d57600080fd5b336000600a0154806000600f0160009054906101000a900473ffffffffffffffffffffffffffffffffffffffff1673ffffffffffffffffffffffffffffffffffffffff1663dd62ed3e84306040518363ffffffff167c0100000000000000000000000000000000000000000000000000000000028152600401808373ffffffffffffffffffffffffffffffffffffffff1673ffffffffffffffffffffffffffffffffffffffff1681526020018273ffffffffffffffffffffffffffffffffffffffff1673ffffffffffffffffffffffffffffffffffffffff16815260200192505050602060405180830381600087803b15801561303957600080fd5b505af115801561304d573d6000803e3d6000fd5b505050506040513d602081101561306357600080fd5b81019080805190602001909291905050501015151561308157600080fd5b73__weeveRegistry_________________________637e688a0f6000888888336040518663ffffffff167c0100000000000000000000000000000000000000000000000000000000028152600401808681526020018060200180602001806020018573ffffffffffffffffffffffffffffffffffffffff1673ffffffffffffffffffffffffffffffffffffffff168152602001848103845288818151815260200191508051906020019080838360005b8381101561314c578082015181840152602081019050613131565b50505050905090810190601f1680156131795780820380516001836020036101000a031916815260200191505b50848103835287818151815260200191508051906020019080838360005b838110156131b2578082015181840152602081019050613197565b50505050905090810190601f1680156131df5780820380516001836020036101000a031916815260200191505b50848103825286818151815260200191508051906020019060200280838360005b8381101561321b578082015181840152602081019050613200565b505050509050019850505050505050505060206040518083038186803b15801561324457600080fd5b505af4158015613258573d6000803e3d6000fd5b505050506040513d602081101561326e57600080fd5b8101908080519060200190929190505050151561328a57600080fd5b3373ffffffffffffffffffffffffffffffffffffffff16856040518082805190602001908083835b6020831015156132d757805182526020820191506020810190506020830392506132b2565b6001836020036101000a03801982511681845116808217855250505050505090500191505060405180910390207f1e3066768d21eb3c9392ce7cf40a76360b39e298e8d5916be57ccfffb16bafbf60405160405180910390a3600080600401866040518082805190602001908083835b60208310151561336c5780518252602082019150602081019050602083039250613347565b6001836020036101000a0380198251168184511680821785525050505050509050019150509081526020016040518091039020600301541115613450573373ffffffffffffffffffffffffffffffffffffffff16856040518082805190602001908083835b6020831015156133f657805182526020820191506020810190506020830392506133d1565b6001836020036101000a03801982511681845116808217855250505050505090500191505060405180910390207fa51b03c3dee0ecc7c3a70c05c2afd988dd5b1c3e327f018fd7c63f483a9a04c760405160405180910390a35b505050505050565b6000600e0160019054906101000a900473ffffffffffffffffffffffffffffffffffffffff1673ffffffffffffffffffffffffffffffffffffffff163373ffffffffffffffffffffffffffffffffffffffff161415156134b757600080fd5b806000600a018190555050565b60608060008060006060863373ffffffffffffffffffffffffffffffffffffffff166000600401826040518082805190602001908083835b60208310151561352157805182526020820191506020810190506020830392506134fc565b6001836020036101000a038019825116818451168082178552505050505050905001915050908152602001604051809103902060020160009054906101000a900473ffffffffffffffffffffffffffffffffffffffff1673ffffffffffffffffffffffffffffffffffffffff1614151561359a57600080fd5b87600080600401826040518082805190602001908083835b6020831015156135d757805182526020820191506020810190506020830392506135b2565b6001836020036101000a038019825116818451168082178552505050505050905001915050908152602001604051809103902060010180546001816001161561010002031660029004905011151561362e57600080fd5b6000600401896040518082805190602001908083835b6020831015156136695780518252602082019150602081019050602083039250613644565b6001836020036101000a038019825116818451168082178552505050505050905001915050908152602001604051809103902060000160006004018a6040518082805190602001908083835b6020831015156136da57805182526020820191506020810190506020830392506136b5565b6001836020036101000a038019825116818451168082178552505050505050905001915050908152602001604051809103902060010160006004018b6040518082805190602001908083835b60208310151561374b5780518252602082019150602081019050602083039250613726565b6001836020036101000a03801982511681845116808217855250505050505090500191505090815260200160405180910390206005015460006004018c6040518082805190602001908083835b6020831015156137bd5780518252602082019150602081019050602083039250613798565b6001836020036101000a038019825116818451168082178552505050505050905001915050908152602001604051809103902060020160009054906101000a900473ffffffffffffffffffffffffffffffffffffffff1660006004018d6040518082805190602001908083835b60208310151561384f578051825260208201915060208101905060208303925061382a565b6001836020036101000a03801982511681845116808217855250505050505090500191505090815260200160405180910390206003015460006004018e6040518082805190602001908083835b6020831015156138c1578051825260208201915060208101905060208303925061389c565b6001836020036101000a0380198251168184511680821785525050505050509050019150509081526020016040518091039020600401858054600181600116156101000203166002900480601f01602080910402602001604051908101604052809291908181526020018280546001816001161561010002031660029004801561398c5780601f106139615761010080835404028352916020019161398c565b820191906000526020600020905b81548152906001019060200180831161396f57829003601f168201915b50505050509550848054600181600116156101000203166002900480601f016020809104026020016040519081016040528092919081815260200182805460018160011615610100020316600290048015613a285780601f106139fd57610100808354040283529160200191613a28565b820191906000526020600020905b815481529060010190602001808311613a0b57829003601f168201915b50505050509450808054600181600116156101000203166002900480601f016020809104026020016040519081016040528092919081815260200182805460018160011615610100020316600290048015613ac45780601f10613a9957610100808354040283529160200191613ac4565b820191906000526020600020905b815481529060010190602001808311613aa757829003601f168201915b50505050509050975097509750975097509750505091939550919395565b600080600e0160009054906101000a900460ff161515613b0157600080fd5b83600080600401826040518082805190602001908083835b602083101515613b3e5780518252602082019150602081019050602083039250613b19565b6001836020036101000a0380198251168184511680821785525050505050509050019150509081526020016040518091039020600101805460018160011615610100020316600290049050111515613b9557600080fd5b73__weeveRegistry_________________________63ff4d1ebd6000873388886040518663ffffffff167c010000000000000000000000000000000000000000000000000000000002815260040180868152602001806020018573ffffffffffffffffffffffffffffffffffffffff1673ffffffffffffffffffffffffffffffffffffffff168152602001848152602001838152602001828103825286818151815260200191508051906020019080838360005b83811015613c64578082015181840152602081019050613c49565b50505050905090810190601f168015613c915780820380516001836020036101000a031916815260200191505b50965050505050505060206040518083038186803b158015613cb257600080fd5b505af4158015613cc6573d6000803e3d6000fd5b505050506040513d6020811015613cdc57600080fd5b81019080805190602001909291905050509150600082111515613cfe57600080fd5b846040518082805190602001908083835b602083101515613d345780518252602082019150602081019050602083039250613d0f565b6001836020036101000a0380198251168184511680821785525050505050509050019150506040518091039020827fc3376e33b5cf7674029d9c46f9063e56d04a4227def6e49706970d22a34da56160405160405180910390a35050505050565b60003373ffffffffffffffffffffffffffffffffffffffff168273ffffffffffffffffffffffffffffffffffffffff161480613e2157506000600e0160019054906101000a900473ffffffffffffffffffffffffffffffffffffffff1673ffffffffffffffffffffffffffffffffffffffff163373ffffffffffffffffffffffffffffffffffffffff16145b1515613e2c57600080fd5b600060090160008373ffffffffffffffffffffffffffffffffffffffff1673ffffffffffffffffffffffffffffffffffffffff168152602001908152602001600020549050919050565b6000600e0160009054906101000a900460ff161515613e9457600080fd5b338073ffffffffffffffffffffffffffffffffffffffff16600060070160008373ffffffffffffffffffffffffffffffffffffffff1673ffffffffffffffffffffffffffffffffffffffff16815260200190815260200160002060000160009054906101000a900473ffffffffffffffffffffffffffffffffffffffff1673ffffffffffffffffffffffffffffffffffffffff16141515613f3457600080fd5b81600080600401826040518082805190602001908083835b602083101515613f715780518252602082019150602081019050602083039250613f4c565b6001836020036101000a0380198251168184511680821785525050505050509050019150509081526020016040518091039020600101805460018160011615610100020316600290049050111515613fc857600080fd5b6000600401836040518082805190602001908083835b6020831015156140035780518252602082019150602081019050602083039250613fde565b6001836020036101000a038019825116818451168082178552505050505050905001915050908152602001604051809103902060020160009054906101000a900473ffffffffffffffffffffffffffffffffffffffff166000600a0154806000600f0160009054906101000a900473ffffffffffffffffffffffffffffffffffffffff1673ffffffffffffffffffffffffffffffffffffffff1663dd62ed3e84306040518363ffffffff167c0100000000000000000000000000000000000000000000000000000000028152600401808373ffffffffffffffffffffffffffffffffffffffff1673ffffffffffffffffffffffffffffffffffffffff1681526020018273ffffffffffffffffffffffffffffffffffffffff1673ffffffffffffffffffffffffffffffffffffffff16815260200192505050602060405180830381600087803b15801561415557600080fd5b505af1158015614169573d6000803e3d6000fd5b505050506040513d602081101561417f57600080fd5b81019080805190602001909291905050501015151561419d57600080fd5b73__weeveRegistry_________________________636f962f7c6000876040518363ffffffff167c01000000000000000000000000000000000000000000000000000000000281526004018083815260200180602001828103825283818151815260200191508051906020019080838360005b8381101561422b578082015181840152602081019050614210565b50505050905090810190601f1680156142585780820380516001836020036101000a031916815260200191505b50935050505060206040518083038186803b15801561427657600080fd5b505af415801561428a573d6000803e3d6000fd5b505050506040513d60208110156142a057600080fd5b810190808051906020019092919050505015156142bc57600080fd5b6000600401856040518082805190602001908083835b6020831015156142f757805182526020820191506020810190506020830392506142d2565b6001836020036101000a038019825116818451168082178552505050505050905001915050908152602001604051809103902060020160009054906101000a900473ffffffffffffffffffffffffffffffffffffffff1673ffffffffffffffffffffffffffffffffffffffff16856040518082805190602001908083835b60208310151561439a5780518252602082019150602081019050602083039250614375565b6001836020036101000a03801982511681845116808217855250505050505090500191505060405180910390207fa51b03c3dee0ecc7c3a70c05c2afd988dd5b1c3e327f018fd7c63f483a9a04c760405160405180910390a35050505050565b606080606080606080863373ffffffffffffffffffffffffffffffffffffffff166000600401826040518082805190602001908083835b6020831015156144565780518252602082019150602081019050602083039250614431565b6001836020036101000a038019825116818451168082178552505050505050905001915050908152602001604051809103902060020160009054906101000a900473ffffffffffffffffffffffffffffffffffffffff1673ffffffffffffffffffffffffffffffffffffffff161415156144cf57600080fd5b87600080600401826040518082805190602001908083835b60208310151561450c57805182526020820191506020810190506020830392506144e7565b6001836020036101000a038019825116818451168082178552505050505050905001915050908152602001604051809103902060010180546001816001161561010002031660029004905011151561456357600080fd5b6000600401896040518082805190602001908083835b60208310151561459e5780518252602082019150602081019050602083039250614579565b6001836020036101000a038019825116818451168082178552505050505050905001915050908152602001604051809103902060060160000160006004018a6040518082805190602001908083835b60208310151561461257805182526020820191506020810190506020830392506145ed565b6001836020036101000a038019825116818451168082178552505050505050905001915050908152602001604051809103902060060160010160006004018b6040518082805190602001908083835b6020831015156146865780518252602082019150602081019050602083039250614661565b6001836020036101000a038019825116818451168082178552505050505050905001915050908152602001604051809103902060060160020160006004018c6040518082805190602001908083835b6020831015156146fa57805182526020820191506020810190506020830392506146d5565b6001836020036101000a038019825116818451168082178552505050505050905001915050908152602001604051809103902060060160030160006004018d6040518082805190602001908083835b60208310151561476e5780518252602082019150602081019050602083039250614749565b6001836020036101000a038019825116818451168082178552505050505050905001915050908152602001604051809103902060060160040160006004018e6040518082805190602001908083835b6020831015156147e257805182526020820191506020810190506020830392506147bd565b6001836020036101000a0380198251168184511680821785525050505050509050019150509081526020016040518091039020600601600501858054600181600116156101000203166002900480601f0160208091040260200160405190810160405280929190818152602001828054600181600116156101000203166002900480156148b05780601f10614885576101008083540402835291602001916148b0565b820191906000526020600020905b81548152906001019060200180831161489357829003601f168201915b50505050509550848054600181600116156101000203166002900480601f01602080910402602001604051908101604052809291908181526020018280546001816001161561010002031660029004801561494c5780601f106149215761010080835404028352916020019161494c565b820191906000526020600020905b81548152906001019060200180831161492f57829003601f168201915b50505050509450838054600181600116156101000203166002900480601f0160208091040260200160405190810160405280929190818152602001828054600181600116156101000203166002900480156149e85780601f106149bd576101008083540402835291602001916149e8565b820191906000526020600020905b8154815290600101906020018083116149cb57829003601f168201915b50505050509350828054600181600116156101000203166002900480601f016020809104026020016040519081016040528092919081815260200182805460018160011615610100020316600290048015614a845780601f10614a5957610100808354040283529160200191614a84565b820191906000526020600020905b815481529060010190602001808311614a6757829003601f168201915b50505050509250818054600181600116156101000203166002900480601f016020809104026020016040519081016040528092919081815260200182805460018160011615610100020316600290048015614b205780601f10614af557610100808354040283529160200191614b20565b820191906000526020600020905b815481529060010190602001808311614b0357829003601f168201915b50505050509150808054600181600116156101000203166002900480601f016020809104026020016040519081016040528092919081815260200182805460018160011615610100020316600290048015614bbc5780601f10614b9157610100808354040283529160200191614bbc565b820191906000526020600020905b815481529060010190602001808311614b9f57829003601f168201915b50505050509050975097509750975097509750505091939550919395565b60008173ffffffffffffffffffffffffffffffffffffffff16600060070160008473ffffffffffffffffffffffffffffffffffffffff1673ffffffffffffffffffffffffffffffffffffffff16815260200190815260200160002060000160009054906101000a900473ffffffffffffffffffffffffffffffffffffffff1673ffffffffffffffffffffffffffffffffffffffff16149050919050565b60008173ffffffffffffffffffffffffffffffffffffffff16600060080160008473ffffffffffffffffffffffffffffffffffffffff1673ffffffffffffffffffffffffffffffffffffffff16815260200190815260200160002060000160009054906101000a900473ffffffffffffffffffffffffffffffffffffffff1673ffffffffffffffffffffffffffffffffffffffff161490509190505600a165627a7a7230582035b5d522f2218ba50e2d371e78e40fa5e1e1132df881bc935ea61540d5e924f70029",
  "source": "pragma solidity ^0.4.24;\n\nimport \"./libraries/weeveRegistryLib.sol\";\n\n// An exemplary weeve Registry contract\ncontract myRegistry {    \n    using SafeMath for uint;\n    \n    event deviceRegistration(string indexed deviceID, address indexed owner);\n    event deviceAccepted(string indexed deviceID, address indexed owner);\n    event deviceUnregistered(string indexed deviceID, address indexed owner);\n    event challengeRaised(uint indexed voteID, string indexed deviceID);\n    event votedOnChallenge(uint indexed voteID, address indexed voter, bool vote, uint256 numberOfTokens);\n    event challengeResolved(uint indexed voteID, string indexed deviceID, bool votePassed, uint256 numberOfTokensFor, uint256 numberOfTokensAgainst);\n\n    // General storage for the Registry\n    weeveRegistry.RegistryStorage public myRegistryStorage;\n    \n    // Constructor (fired once upon creation)\n    constructor() public {\n        // Initially the registry is not active\n        myRegistryStorage.registryIsActive = false;\n        \n        // Address of the weeve Factory\n        myRegistryStorage.weeveFactoryAddress = 0x0000000000000000000000000000000000000000;\n    \n        // Address of the WEEV token\n        myRegistryStorage.weeveTokenAddress = 0x0000000000000000000000000000000000000000;\n        \n        // Address of the Voting contract\n        myRegistryStorage.weeveVotingAddress = 0x0000000000000000000000000000000000000000;\n    }\n\n    function initialize(string _name, uint256 _stakePerRegistration, uint256 _stakePerArbiter, uint256 _stakePerValidator, address _owner) public onlyWeeveFactory returns(bool){\n        require(weeveRegistry.initialize(myRegistryStorage, _name, _stakePerRegistration, _stakePerArbiter, _stakePerValidator, _owner));\n        return true;\n    }\n    \n    function setVotingAddress(address _address) public onlyRegistryOwner {\n        myRegistryStorage.weeveVotingAddress = _address;\n        myRegistryStorage.vote = VotingContract(_address);\n    }\n\n    function closeRegistry() public onlyWeeveFactory returns(bool) {\n        // Only the weeve factory is able to initialise a registry\n        require(myRegistryStorage.activeDevices == 0);\n        myRegistryStorage.registryIsActive = false;\n        return true;\n    }\n       \n    // Request access to the registry\n    function requestRegistration(string _deviceName, string _deviceID, bytes32[] _deviceMeta) public registryIsActive deviceIDNotUsed(_deviceID) hasEnoughTokensAllowed(msg.sender, myRegistryStorage.tokenStakePerRegistration) {\n        require(weeveRegistry.requestRegistration(myRegistryStorage, _deviceName, _deviceID, _deviceMeta, msg.sender));\n        emit deviceRegistration(_deviceID, msg.sender);\n        if(myRegistryStorage.devices[_deviceID].stakedTokens > 0) {\n            emit deviceAccepted(_deviceID, msg.sender);\n        }\n    }\n\n    // Simulating the approval from a validator (through oraclize)    \n    function approveRegistrationRequest(string _deviceID) public registryIsActive isValidator(msg.sender) deviceExists(_deviceID) hasEnoughTokensAllowed(myRegistryStorage.devices[_deviceID].deviceOwner, myRegistryStorage.tokenStakePerRegistration) {\n        require(weeveRegistry.approveRegistrationRequest(myRegistryStorage, _deviceID));\n        emit deviceAccepted(_deviceID, myRegistryStorage.devices[_deviceID].deviceOwner);\n    }\n    \n    // Unregistering your device\n    function unregister(string _deviceID) public registryIsActive isOwnerOfDevice(_deviceID) deviceExists(_deviceID) {\n        require(weeveRegistry.unregister(myRegistryStorage, msg.sender, _deviceID));\n        emit deviceUnregistered(_deviceID, msg.sender);\n    }\n    \n    // Challenge a device\n    function raiseChallenge(string _deviceID, uint256 _commitDuration, uint256 _revealDuration) public registryIsActive deviceExists(_deviceID) {\n        uint256 voteID = weeveRegistry.raiseChallenge(myRegistryStorage, _deviceID, msg.sender, _commitDuration, _revealDuration);\n        require(voteID > 0);\n        emit challengeRaised(voteID, _deviceID);\n    }\n        \n    // Vote on a Challenge\n    function voteOnChallenge(uint256 _voteID, uint256 _numberOfTokens, bytes32 _voteHash) public registryIsActive hasEnoughTokensAllowed(msg.sender, _numberOfTokens) {\n        require(weeveRegistry.voteOnChallenge(myRegistryStorage, _voteID, msg.sender, _numberOfTokens, _voteHash));\n    }\n\n    // Reveal a vote on a challenge\n    function revealVote(uint256 _voteID, uint256 _voteOption, uint256 _voteSalt) public {\n        require(weeveRegistry.revealVote(myRegistryStorage, _voteID, msg.sender, _voteOption, _voteSalt));\n        //bool voteOption = (_voteOption != 0);\n        //emit votedOnChallenge(_voteID, msg.sender, voteOption, myRegistryStorage.votes[_voteID].voteDetails[msg.sender].stakedTokens);\n    }\n    \n    // Resolve a vote after the reveal-phase is over\n    function resolveChallenge(uint256 _voteID) public returns(bool) {\n        require(weeveRegistry.resolveChallenge(myRegistryStorage, _voteID));\n        //emit challengeResolved(_voteID, myRegistryStorage.votes[_voteID].deviceID, myRegistryStorage.votes[_voteID].votePassed, myRegistryStorage.votes[_voteID].votesFor, myRegistryStorage.votes[_voteID].votesAgainst);\n    }\n    \n    // Claim reward of a vote\n    function claimRewardOfVote(uint256 _voteID) public {\n        require(weeveRegistry.claimRewardOfVote(myRegistryStorage, _voteID, msg.sender));\n    }\n\n    // In case of programming errors or other bugs the owner is able to refund staked tokens to it's owner\n    // This will be removed once the contract is proven to work correctly\n    function emergencyRefund(address _address) public onlyRegistryOwner {\n        require(myRegistryStorage.totalStakedTokens[_address] > 0);\n        myRegistryStorage.token.transfer(_address, myRegistryStorage.totalStakedTokens[_address]);\n    }\n\n    // Returns the total staked tokens of an address\n    function getTotalStakeOfAddress(address _address) public view returns (uint256 totalStake){\n        require(_address == msg.sender || msg.sender == myRegistryStorage.registryOwner);\n        return myRegistryStorage.totalStakedTokens[_address];\n    }\n   \n    // Returns the basic information of a device by its ID\n    function getDeviceByID(string _deviceID) public view isOwnerOfDevice(_deviceID) deviceExists(_deviceID) returns (string deviceName, string deviceID, bytes32 hashOfDeviceData, address owner, uint256 stakedTokens, string registyState) {\n        return (myRegistryStorage.devices[_deviceID].deviceName, myRegistryStorage.devices[_deviceID].deviceID, myRegistryStorage.devices[_deviceID].hashOfDeviceData, myRegistryStorage.devices[_deviceID].deviceOwner, myRegistryStorage.devices[_deviceID].stakedTokens, myRegistryStorage.devices[_deviceID].state);\n    }\n\n    // Returns the first part of the metainformation of a device by its ID\n    function getDeviceMetainformation1ByID(string _deviceID) public view isOwnerOfDevice(_deviceID) deviceExists(_deviceID) returns (string sensors, string dataType, string manufacturer, string identifier, string description, string product) {\n        return (myRegistryStorage.devices[_deviceID].metainformation.sensors, myRegistryStorage.devices[_deviceID].metainformation.dataType, myRegistryStorage.devices[_deviceID].metainformation.manufacturer, myRegistryStorage.devices[_deviceID].metainformation.identifier, myRegistryStorage.devices[_deviceID].metainformation.description, myRegistryStorage.devices[_deviceID].metainformation.product);\n    }\n\n    // Returns the second part of the metainformation of a device by its ID\n    function getDeviceMetainformation2ByID(string _deviceID) public view isOwnerOfDevice(_deviceID) deviceExists(_deviceID) returns (string version, string serial, string cpu, string trustzone, string wifi) {\n        return (myRegistryStorage.devices[_deviceID].metainformation.version, myRegistryStorage.devices[_deviceID].metainformation.serial, myRegistryStorage.devices[_deviceID].metainformation.cpu, myRegistryStorage.devices[_deviceID].metainformation.trustzone, myRegistryStorage.devices[_deviceID].metainformation.wifi);\n    }\n\n    // Returns the basic information of a device through the list of devices for an account\n    function getDeviceIDFromUserArray(address _address, uint256 _devicePositionInArray) public view returns (string deviceID) {\n        return myRegistryStorage.devicesOfUser[_address][_devicePositionInArray];\n    }\n\n    // Returns amount of devices that an address has in this registry\n    function getDeviceCountOfUser(address _address) public view returns (uint256 numberOfDevices) {\n        return myRegistryStorage.devicesOfUser[_address].length;\n    }\n\n    // Sets the amount of tokens to be staked for a registry\n    function setStakePerRegistration(uint256 _numberOfTokens) public onlyRegistryOwner {\n        myRegistryStorage.tokenStakePerRegistration = _numberOfTokens;\n    }\n\n    function addValidator(address _address) public registryIsActive onlyRegistryOwner {\n        myRegistryStorage.validators[_address].validatorAddress = _address;\n    }\n\n    function removeValidator(address _address) public registryIsActive onlyRegistryOwner {\n        delete myRegistryStorage.validators[_address];\n    }\n\n    function addArbiter(address _address) public registryIsActive onlyRegistryOwner {\n        myRegistryStorage.arbiters[_address].arbiterAddress = _address;\n    }\n\n    function removeArbiter(address _address) public registryIsActive onlyRegistryOwner {\n        delete myRegistryStorage.arbiters[_address];\n    }\n    \n    function checkValidatorStatus(address _address) public view returns (bool status) {\n        return myRegistryStorage.validators[_address].validatorAddress == _address;\n    }\n\n    function checkArbiterStatus(address _address) public view returns (bool status) {\n        return myRegistryStorage.arbiters[_address].arbiterAddress == _address;\n    }\n    \n    // Modifier: Checks whether the caller is the owner of this registry\n    modifier onlyRegistryOwner {\n        require(msg.sender == myRegistryStorage.registryOwner);\n        _;\n    }\n    \n    // Modifier: Checks whether the caller is an official weeve factory contract\n    modifier onlyWeeveFactory {\n        require(msg.sender == myRegistryStorage.weeveFactoryAddress);\n        _;\n    }\n    \n    // Modifier: Checks whether an address has enough tokens authorized to be withdrawn by the registry\n    modifier hasEnoughTokensAllowed(address _address, uint256 _numberOfTokens) {\n        require(myRegistryStorage.token.allowance(_address, address(this)) >= _numberOfTokens);\n        _;\n    }\n    \n    // Modifier: Checks whether an address is the owner of a device id\n    modifier isOwnerOfDevice(string _deviceID) {\n        require(myRegistryStorage.devices[_deviceID].deviceOwner == msg.sender);\n        _;\n    }\n\n    // Modifier: Checks whether an address is a validator\n    modifier isValidator(address _address) {\n        require(myRegistryStorage.validators[_address].validatorAddress == _address);\n        _;\n    }\n\n    // Modifier: Checks whether an address is an arbiter\n    modifier isArbiter(address _address) {\n        require(myRegistryStorage.arbiters[_address].arbiterAddress == _address);\n        _;\n    }\n    \n    // Modifier: Checks if a device id exists\n    modifier deviceExists(string _deviceID) {\n        require(bytes(myRegistryStorage.devices[_deviceID].deviceID).length > 0);\n        _;\n    }\n    \n    // Modifier: Checks if a device id is still free\n    modifier deviceIDNotUsed(string _deviceID) {\n        require(bytes(myRegistryStorage.devices[_deviceID].deviceID).length == 0);\n        _;\n    }\n\n    // Modifier: Checks whether this registry is activated\n    modifier registryIsActive() {\n        require(myRegistryStorage.registryIsActive);\n        _;\n    }\n}",
  "sourcePath": "/home/meyerhoeferb/weeve/weeveresearch/contracts/weeveRegistry.sol",
  "compiler": {
    "name": "solc",
    "version": "0.4.24+commit.e67f0147.Emscripten.clang"
  },
  "schemaVersion": "2.0.0",
  "updatedAt": "2018-07-10T08:25:16.014Z"
}