{
  "contractName": "weeveMarketplace",
  "abi": [
    {
      "constant": false,
      "inputs": [
        {
          "name": "myMarketplaceStorage",
          "type": "weeveMarketplace.MarketplaceStorage storage"
        },
        {
          "name": "_tradeID",
          "type": "string"
        },
        {
          "name": "_price",
          "type": "uint256"
        },
        {
          "name": "_amount",
          "type": "uint256"
        }
      ],
      "name": "sell",
      "outputs": [
        {
          "name": "",
          "type": "bool"
        }
      ],
      "payable": false,
      "stateMutability": "nonpayable",
      "type": "function"
    },
    {
      "constant": false,
      "inputs": [
        {
          "name": "myMarketplaceStorage",
          "type": "weeveMarketplace.MarketplaceStorage storage"
        },
        {
          "name": "_tradeID",
          "type": "string"
        }
      ],
      "name": "buy",
      "outputs": [
        {
          "name": "",
          "type": "bool"
        }
      ],
      "payable": false,
      "stateMutability": "nonpayable",
      "type": "function"
    }
  ],
  "bytecode": "0x610b55610030600b82828239805160001a6073146000811461002057610022565bfe5b5030600052607381538281f3007300000000000000000000000000000000000000003014608060405260043610610063576000357c0100000000000000000000000000000000000000000000000000000000900463ffffffff16806358d0a32b14610068578063e5b335fd14610107575b600080fd5b81801561007457600080fd5b506100ed60048036038101908080359060200190929190803590602001908201803590602001908080601f01602080910402602001604051908101604052809392919081815260200183838082843782019150505050505091929192908035906020019092919080359060200190929190505050610192565b604051808215151515815260200191505060405180910390f35b81801561011357600080fd5b5061017860048036038101908080359060200190929190803590602001908201803590602001908080601f01602080910402602001604051908101604052809392919081815260200183838082843782019150505050505091929192905050506103c0565b604051808215151515815260200191505060405180910390f35b600061019c6109bc565b6000841180156101ac5750600083115b15156101b757600080fd5b84816000018190525033816020019073ffffffffffffffffffffffffffffffffffffffff16908173ffffffffffffffffffffffffffffffffffffffff168152505083816040018181525050828160600181815250508086600001866040518082805190602001908083835b6020831015156102475780518252602082019150602081019050602083039250610222565b6001836020036101000a03801982511681845116808217855250505050505090500191505090815260200160405180910390206000820151816000019080519060200190610296929190610a04565b5060208201518160010160006101000a81548173ffffffffffffffffffffffffffffffffffffffff021916908373ffffffffffffffffffffffffffffffffffffffff160217905550604082015181600201556060820151816003015560808201518160040160006101000a81548160ff0219169083151502179055509050508560010160003373ffffffffffffffffffffffffffffffffffffffff1673ffffffffffffffffffffffffffffffffffffffff168152602001908152602001600020859080600181540180825580915050906001820390600052602060002001600090919290919091509080519060200190610391929190610a84565b50506103ab600187600501546107ba90919063ffffffff16565b86600501819055506001915050949350505050565b600082600a0160009054906101000a900473ffffffffffffffffffffffffffffffffffffffff1673ffffffffffffffffffffffffffffffffffffffff166323b872dd333086600001866040518082805190602001908083835b60208310151561043e5780518252602082019150602081019050602083039250610419565b6001836020036101000a0380198251168184511680821785525050505050509050019150509081526020016040518091039020600201546040518463ffffffff167c0100000000000000000000000000000000000000000000000000000000028152600401808473ffffffffffffffffffffffffffffffffffffffff1673ffffffffffffffffffffffffffffffffffffffff1681526020018373ffffffffffffffffffffffffffffffffffffffff1673ffffffffffffffffffffffffffffffffffffffff1681526020018281526020019350505050602060405180830381600087803b15801561052d57600080fd5b505af1158015610541573d6000803e3d6000fd5b505050506040513d602081101561055757600080fd5b8101908080519060200190929190505050151561057357600080fd5b61067e8384600001846040518082805190602001908083835b6020831015156105b1578051825260208201915060208101905060208303925061058c565b6001836020036101000a038019825116818451168082178552505050505050905001915050908152602001604051809103902060010160009054906101000a900473ffffffffffffffffffffffffffffffffffffffff1685600001856040518082805190602001908083835b602083101515610642578051825260208201915060208101905060208303925061061d565b6001836020036101000a0380198251168184511680821785525050505050509050019150509081526020016040518091039020600201546107d6565b151561068957600080fd5b8260020160003373ffffffffffffffffffffffffffffffffffffffff1673ffffffffffffffffffffffffffffffffffffffff168152602001908152602001600020829080600181540180825580915050906001820390600052602060002001600090919290919091509080519060200190610705929190610a84565b5050600183600001836040518082805190602001908083835b602083101515610743578051825260208201915060208101905060208303925061071e565b6001836020036101000a038019825116818451168082178552505050505050905001915050908152602001604051809103902060040160006101000a81548160ff0219169083151502179055506107a86000846005015461095590919063ffffffff16565b83600501819055506001905092915050565b600081830190508281101515156107cd57fe5b80905092915050565b600080600061080560646107f788600701548761096e90919063ffffffff16565b6109a690919063ffffffff16565b915061081a828561095590919063ffffffff16565b905085600a0160009054906101000a900473ffffffffffffffffffffffffffffffffffffffff1673ffffffffffffffffffffffffffffffffffffffff1663a9059cbb86836040518363ffffffff167c0100000000000000000000000000000000000000000000000000000000028152600401808373ffffffffffffffffffffffffffffffffffffffff1673ffffffffffffffffffffffffffffffffffffffff16815260200182815260200192505050602060405180830381600087803b1580156108e357600080fd5b505af11580156108f7573d6000803e3d6000fd5b505050506040513d602081101561090d57600080fd5b8101908080519060200190929190505050151561092957600080fd5b6109408287600801546107ba90919063ffffffff16565b86600801819055506001925050509392505050565b600082821115151561096357fe5b818303905092915050565b60008083141561098157600090506109a0565b818302905081838281151561099257fe5b0414151561099c57fe5b8090505b92915050565b600081838115156109b357fe5b04905092915050565b60a06040519081016040528060608152602001600073ffffffffffffffffffffffffffffffffffffffff16815260200160008152602001600081526020016000151581525090565b828054600181600116156101000203166002900490600052602060002090601f016020900481019282601f10610a4557805160ff1916838001178555610a73565b82800160010185558215610a73579182015b82811115610a72578251825591602001919060010190610a57565b5b509050610a809190610b04565b5090565b828054600181600116156101000203166002900490600052602060002090601f016020900481019282601f10610ac557805160ff1916838001178555610af3565b82800160010185558215610af3579182015b82811115610af2578251825591602001919060010190610ad7565b5b509050610b009190610b04565b5090565b610b2691905b80821115610b22576000816000905550600101610b0a565b5090565b905600a165627a7a72305820b8b3258911e8dc277c1beb47c5007dac9d492f426081778a3f48f2101080a5730029",
  "source": "pragma solidity ^0.4.24;\n\nimport \"./SafeMath.sol\";\n\n/// Basic ERC20 Interface \ninterface ERC20 {\n    function totalSupply() external returns (uint);\n    function balanceOf(address tokenOwner) external returns (uint balance);\n    function allowance(address tokenOwner, address spender) external returns (uint remaining);\n    function transfer(address to, uint tokens) external returns (bool success);\n    function approve(address spender, uint tokens) external returns (bool success);\n    function transferFrom(address from, address to, uint tokens) external returns (bool success);\n}\n\nlibrary weeveMarketplace {\n    using SafeMath for uint;\n\n    struct Trade {\n        string tradeID;\n        address seller;\n        uint256 price;        \n        uint256 amount; \n        bool paid;\n    }\n\n    struct Validator {\n        address validatorAddress;\n        uint256 stakedTokens;\n    }\n\n    struct Arbiter {\n        address arbiterAddress;\n        uint256 stakedTokens;\n    }\n    \n    struct MarketplaceStorage {\n        // DeviceID maps to Device-Struct\n        mapping (string => Trade) trades;\n\n        // Address maps to array of strings\n        mapping (address => string[]) sellsOfUser;\n\n        // Address maps to array of strings\n        mapping (address => string[]) buysOfUser;\n\n        // Address to Validator-Struct\n        mapping (address => Validator) validators;\n\n        // Address to Arbiter-Struct\n        mapping (address => Arbiter) arbiters;\n\n        // Number of all active trades\n        uint256 currentTrades;\n\n        // Current activation state of the marketplace itself\n        bool marketplaceIsActive;\n\n        // Commission of each trade that will be deducted in percent\n        uint256 commission;\n\n        // Currently acrued commission of this marketplace\n        uint256 commissionBalance;\n\n        // Owner of this marketplace\n        address marketplaceOwner;\n\n        // Access to our token\n        ERC20 token;\n    }\n\n    // Posting a new trade offer to the marketplace by ID, price and amount\n    function sell(MarketplaceStorage storage myMarketplaceStorage, string _tradeID, uint256 _price, uint256 _amount) public returns (bool) {\n        // Price and amount both need to be larger than zero\n        require(_price > 0 && _amount > 0);\n\n         // Allocate new trade\n        weeveMarketplace.Trade memory newTrade;\n\n        // Setting basic values of this trade\n        newTrade.tradeID = _tradeID;\n        newTrade.seller = msg.sender;\n        newTrade.price = _price;\n        newTrade.amount = _amount;\n\n        // Adding this trade to the general trade mapping\n        myMarketplaceStorage.trades[_tradeID] = newTrade;\n\n        // Pushing this trade into the users sell-array\n        myMarketplaceStorage.sellsOfUser[msg.sender].push(_tradeID);\n\n        // Increasing the number of currently active trades by one\n        myMarketplaceStorage.currentTrades = myMarketplaceStorage.currentTrades.add(1);\n\n        return true;\n    }\n\n    // Accepting a trade offer from the marketplace by ID\n    function buy(MarketplaceStorage storage myMarketplaceStorage, string _tradeID) public returns (bool) {\n        // Sending the price of the trade to the markteplace\n        require(myMarketplaceStorage.token.transferFrom(msg.sender, address(this), myMarketplaceStorage.trades[_tradeID].price));\n\n        // Paying the seller of this trade (price minus commission)\n        require(paySeller(myMarketplaceStorage, myMarketplaceStorage.trades[_tradeID].seller, myMarketplaceStorage.trades[_tradeID].price));\n\n        // Adding this trade to the buys of the user\n        myMarketplaceStorage.buysOfUser[msg.sender].push(_tradeID);\n\n        // Marking this trade as paid\n        myMarketplaceStorage.trades[_tradeID].paid = true;\n\n        // Decreasing the number of currently active trades by oen\n        myMarketplaceStorage.currentTrades = myMarketplaceStorage.currentTrades.sub(0);\n\n        return true;\n    }\n\n    // Internal: paying the seller of a trade (with deduction of the commission)\n    function paySeller(MarketplaceStorage storage myMarketplaceStorage, address _sellerAddress, uint256 _amountOfTokens) internal returns (bool) {\n        // Calculating the commission on tokens\n        uint256 deductedCommission = _amountOfTokens.mul(myMarketplaceStorage.commission).div(100);\n\n        // Calculating the amount that will be paid to the seller\n        uint256 payOut = _amountOfTokens.sub(deductedCommission);\n\n        // Transfering the pay-out tokens to the seller\n        require(myMarketplaceStorage.token.transfer(_sellerAddress, payOut));\n\n        // Adding the commission to the commission-balance of this marketplace\n        myMarketplaceStorage.commissionBalance = myMarketplaceStorage.commissionBalance.add(deductedCommission);\n\n        return true;\n    }\n}",
  "sourcePath": "/home/meyerhoeferb/weeve/weeveresearch/contracts/libraries/weeveMarketplaceLib.sol",
  "compiler": {
    "name": "solc",
    "version": "0.4.24+commit.e67f0147.Emscripten.clang"
  },
  "schemaVersion": "2.0.0",
  "updatedAt": "2018-07-09T08:47:31.498Z"
}