{
  "contractName": "weeveVoting",
  "abi": [
    {
      "constant": true,
      "inputs": [],
      "name": "INITIAL_POLL_NONCE",
      "outputs": [
        {
          "name": "",
          "type": "uint256"
        }
      ],
      "payable": false,
      "stateMutability": "view",
      "type": "function"
    },
    {
      "constant": true,
      "inputs": [],
      "name": "weeveFactoryAddress",
      "outputs": [
        {
          "name": "",
          "type": "address"
        }
      ],
      "payable": false,
      "stateMutability": "view",
      "type": "function"
    },
    {
      "constant": true,
      "inputs": [
        {
          "name": "",
          "type": "uint256"
        }
      ],
      "name": "pollMap",
      "outputs": [
        {
          "name": "initiatingContract",
          "type": "address"
        },
        {
          "name": "commitEndDate",
          "type": "uint256"
        },
        {
          "name": "revealEndDate",
          "type": "uint256"
        },
        {
          "name": "voteQuorum",
          "type": "uint256"
        },
        {
          "name": "votesFor",
          "type": "uint256"
        },
        {
          "name": "votesAgainst",
          "type": "uint256"
        },
        {
          "name": "votesUnrevealed",
          "type": "uint256"
        },
        {
          "name": "endTokensFor",
          "type": "uint256"
        },
        {
          "name": "endTokensAgainst",
          "type": "uint256"
        },
        {
          "name": "isResolved",
          "type": "bool"
        }
      ],
      "payable": false,
      "stateMutability": "view",
      "type": "function"
    },
    {
      "constant": true,
      "inputs": [],
      "name": "pollNonce",
      "outputs": [
        {
          "name": "",
          "type": "uint256"
        }
      ],
      "payable": false,
      "stateMutability": "view",
      "type": "function"
    },
    {
      "inputs": [],
      "payable": false,
      "stateMutability": "nonpayable",
      "type": "constructor"
    },
    {
      "constant": false,
      "inputs": [
        {
          "name": "_newContract",
          "type": "address"
        }
      ],
      "name": "addWeeveContract",
      "outputs": [],
      "payable": false,
      "stateMutability": "nonpayable",
      "type": "function"
    },
    {
      "constant": false,
      "inputs": [
        {
          "name": "_obsoleteContract",
          "type": "address"
        }
      ],
      "name": "removeWeeveContract",
      "outputs": [],
      "payable": false,
      "stateMutability": "nonpayable",
      "type": "function"
    },
    {
      "constant": false,
      "inputs": [
        {
          "name": "_pollID",
          "type": "uint256"
        },
        {
          "name": "_address",
          "type": "address"
        },
        {
          "name": "_secretHash",
          "type": "bytes32"
        },
        {
          "name": "_numTokens",
          "type": "uint256"
        },
        {
          "name": "_prevPollID",
          "type": "uint256"
        }
      ],
      "name": "commitVote",
      "outputs": [
        {
          "name": "",
          "type": "bool"
        }
      ],
      "payable": false,
      "stateMutability": "nonpayable",
      "type": "function"
    },
    {
      "constant": false,
      "inputs": [
        {
          "name": "_pollIDs",
          "type": "uint256[]"
        },
        {
          "name": "_address",
          "type": "address"
        },
        {
          "name": "_secretHashes",
          "type": "bytes32[]"
        },
        {
          "name": "_numsTokens",
          "type": "uint256[]"
        },
        {
          "name": "_prevPollIDs",
          "type": "uint256[]"
        }
      ],
      "name": "commitVotes",
      "outputs": [
        {
          "name": "",
          "type": "bool"
        }
      ],
      "payable": false,
      "stateMutability": "nonpayable",
      "type": "function"
    },
    {
      "constant": true,
      "inputs": [
        {
          "name": "_prevID",
          "type": "uint256"
        },
        {
          "name": "_nextID",
          "type": "uint256"
        },
        {
          "name": "_voter",
          "type": "address"
        },
        {
          "name": "_numTokens",
          "type": "uint256"
        }
      ],
      "name": "validPosition",
      "outputs": [
        {
          "name": "valid",
          "type": "bool"
        }
      ],
      "payable": false,
      "stateMutability": "view",
      "type": "function"
    },
    {
      "constant": false,
      "inputs": [
        {
          "name": "_pollID",
          "type": "uint256"
        },
        {
          "name": "_address",
          "type": "address"
        },
        {
          "name": "_voteOption",
          "type": "uint256"
        },
        {
          "name": "_salt",
          "type": "uint256"
        }
      ],
      "name": "revealVote",
      "outputs": [
        {
          "name": "",
          "type": "bool"
        }
      ],
      "payable": false,
      "stateMutability": "nonpayable",
      "type": "function"
    },
    {
      "constant": false,
      "inputs": [
        {
          "name": "_pollIDs",
          "type": "uint256[]"
        },
        {
          "name": "_address",
          "type": "address"
        },
        {
          "name": "_voteOptions",
          "type": "uint256[]"
        },
        {
          "name": "_salts",
          "type": "uint256[]"
        }
      ],
      "name": "revealVotes",
      "outputs": [
        {
          "name": "",
          "type": "bool"
        }
      ],
      "payable": false,
      "stateMutability": "nonpayable",
      "type": "function"
    },
    {
      "constant": false,
      "inputs": [
        {
          "name": "_pollID",
          "type": "uint256"
        },
        {
          "name": "_securityDeposit",
          "type": "uint256"
        }
      ],
      "name": "resolveVote",
      "outputs": [
        {
          "name": "votePassed",
          "type": "bool"
        }
      ],
      "payable": false,
      "stateMutability": "nonpayable",
      "type": "function"
    },
    {
      "constant": true,
      "inputs": [
        {
          "name": "_pollID",
          "type": "uint256"
        },
        {
          "name": "_voteOption",
          "type": "uint256"
        },
        {
          "name": "_address",
          "type": "address"
        },
        {
          "name": "_stakedTokens",
          "type": "uint256"
        }
      ],
      "name": "claimReward",
      "outputs": [
        {
          "name": "reward",
          "type": "uint256"
        }
      ],
      "payable": false,
      "stateMutability": "view",
      "type": "function"
    },
    {
      "constant": true,
      "inputs": [
        {
          "name": "_voter",
          "type": "address"
        },
        {
          "name": "_pollID",
          "type": "uint256"
        },
        {
          "name": "_salt",
          "type": "uint256"
        }
      ],
      "name": "getNumPassingTokens",
      "outputs": [
        {
          "name": "correctVotes",
          "type": "uint256"
        }
      ],
      "payable": false,
      "stateMutability": "view",
      "type": "function"
    },
    {
      "constant": false,
      "inputs": [
        {
          "name": "_voteQuorum",
          "type": "uint256"
        },
        {
          "name": "_commitDuration",
          "type": "uint256"
        },
        {
          "name": "_revealDuration",
          "type": "uint256"
        }
      ],
      "name": "startPoll",
      "outputs": [
        {
          "name": "pollID",
          "type": "uint256"
        }
      ],
      "payable": false,
      "stateMutability": "nonpayable",
      "type": "function"
    },
    {
      "constant": true,
      "inputs": [
        {
          "name": "_pollID",
          "type": "uint256"
        }
      ],
      "name": "isPassed",
      "outputs": [
        {
          "name": "passed",
          "type": "bool"
        }
      ],
      "payable": false,
      "stateMutability": "view",
      "type": "function"
    },
    {
      "constant": true,
      "inputs": [
        {
          "name": "_pollID",
          "type": "uint256"
        }
      ],
      "name": "isResolved",
      "outputs": [
        {
          "name": "resolved",
          "type": "bool"
        }
      ],
      "payable": false,
      "stateMutability": "view",
      "type": "function"
    },
    {
      "constant": true,
      "inputs": [
        {
          "name": "_pollID",
          "type": "uint256"
        }
      ],
      "name": "getTotalNumberOfTokensForWinningOption",
      "outputs": [
        {
          "name": "numTokens",
          "type": "uint256"
        }
      ],
      "payable": false,
      "stateMutability": "view",
      "type": "function"
    },
    {
      "constant": true,
      "inputs": [
        {
          "name": "_pollID",
          "type": "uint256"
        }
      ],
      "name": "pollEnded",
      "outputs": [
        {
          "name": "ended",
          "type": "bool"
        }
      ],
      "payable": false,
      "stateMutability": "view",
      "type": "function"
    },
    {
      "constant": true,
      "inputs": [
        {
          "name": "_terminationDate",
          "type": "uint256"
        }
      ],
      "name": "isExpired",
      "outputs": [
        {
          "name": "expired",
          "type": "bool"
        }
      ],
      "payable": false,
      "stateMutability": "view",
      "type": "function"
    },
    {
      "constant": true,
      "inputs": [
        {
          "name": "_pollID",
          "type": "uint256"
        }
      ],
      "name": "commitPeriodActive",
      "outputs": [
        {
          "name": "active",
          "type": "bool"
        }
      ],
      "payable": false,
      "stateMutability": "view",
      "type": "function"
    },
    {
      "constant": true,
      "inputs": [
        {
          "name": "_pollID",
          "type": "uint256"
        }
      ],
      "name": "revealPeriodActive",
      "outputs": [
        {
          "name": "active",
          "type": "bool"
        }
      ],
      "payable": false,
      "stateMutability": "view",
      "type": "function"
    },
    {
      "constant": true,
      "inputs": [
        {
          "name": "_voter",
          "type": "address"
        },
        {
          "name": "_pollID",
          "type": "uint256"
        }
      ],
      "name": "didCommit",
      "outputs": [
        {
          "name": "committed",
          "type": "bool"
        }
      ],
      "payable": false,
      "stateMutability": "view",
      "type": "function"
    },
    {
      "constant": true,
      "inputs": [
        {
          "name": "_voter",
          "type": "address"
        },
        {
          "name": "_pollID",
          "type": "uint256"
        }
      ],
      "name": "didReveal",
      "outputs": [
        {
          "name": "revealed",
          "type": "bool"
        }
      ],
      "payable": false,
      "stateMutability": "view",
      "type": "function"
    },
    {
      "constant": true,
      "inputs": [
        {
          "name": "_pollID",
          "type": "uint256"
        }
      ],
      "name": "pollExists",
      "outputs": [
        {
          "name": "exists",
          "type": "bool"
        }
      ],
      "payable": false,
      "stateMutability": "view",
      "type": "function"
    },
    {
      "constant": true,
      "inputs": [
        {
          "name": "_voter",
          "type": "address"
        },
        {
          "name": "_pollID",
          "type": "uint256"
        }
      ],
      "name": "getCommitHash",
      "outputs": [
        {
          "name": "commitHash",
          "type": "bytes32"
        }
      ],
      "payable": false,
      "stateMutability": "view",
      "type": "function"
    },
    {
      "constant": true,
      "inputs": [
        {
          "name": "_voter",
          "type": "address"
        },
        {
          "name": "_pollID",
          "type": "uint256"
        }
      ],
      "name": "getNumTokens",
      "outputs": [
        {
          "name": "numTokens",
          "type": "uint256"
        }
      ],
      "payable": false,
      "stateMutability": "view",
      "type": "function"
    },
    {
      "constant": true,
      "inputs": [
        {
          "name": "_voter",
          "type": "address"
        }
      ],
      "name": "getLastNode",
      "outputs": [
        {
          "name": "pollID",
          "type": "uint256"
        }
      ],
      "payable": false,
      "stateMutability": "view",
      "type": "function"
    },
    {
      "constant": true,
      "inputs": [
        {
          "name": "_voter",
          "type": "address"
        }
      ],
      "name": "getLockedTokens",
      "outputs": [
        {
          "name": "numTokens",
          "type": "uint256"
        }
      ],
      "payable": false,
      "stateMutability": "view",
      "type": "function"
    },
    {
      "constant": true,
      "inputs": [
        {
          "name": "_voter",
          "type": "address"
        },
        {
          "name": "_numTokens",
          "type": "uint256"
        },
        {
          "name": "_pollID",
          "type": "uint256"
        }
      ],
      "name": "getInsertPointForNumTokens",
      "outputs": [
        {
          "name": "prevNode",
          "type": "uint256"
        }
      ],
      "payable": false,
      "stateMutability": "view",
      "type": "function"
    },
    {
      "constant": true,
      "inputs": [
        {
          "name": "_user",
          "type": "address"
        },
        {
          "name": "_pollID",
          "type": "uint256"
        }
      ],
      "name": "attrUUID",
      "outputs": [
        {
          "name": "UUID",
          "type": "bytes32"
        }
      ],
      "payable": false,
      "stateMutability": "pure",
      "type": "function"
    }
  ],
  "bytecode": "0x608060405260008060006101000a81548173ffffffffffffffffffffffffffffffffffffffff021916908373ffffffffffffffffffffffffffffffffffffffff16021790555034801561005157600080fd5b506000600281905550612f32806100696000396000f30060806040526004361061018b576000357c0100000000000000000000000000000000000000000000000000000000900463ffffffff168063053e71a6146101905780631f2e1396146101d15780632173a10f146102145780632c0520311461023f57806332ed3d60146102aa57806334f2f2d2146102ff57806335100a3c14610378578063427fa1d2146103cf578063441c77c01461042657806347b4ce131461046b57806349403183146105265780634aefb9db1461056b5780636148fed5146105ba5780636b2d95d41461066a5780637f97e836146106c1578063819b02931461072657806388d21ff31461079f5780638a86df72146107e457806397508f3614610859578063a1103f3714610884578063a4439dc5146108ed578063aa7ca46414610932578063b43bd06914610997578063cc4e195414610a02578063d138209214610a47578063d901402b14610aa8578063d9548e5314610b11578063ec5de12414610b56578063ee68483014610bdd578063f59c089414610c22578063f9dc3b7f14610cc5575b600080fd5b34801561019c57600080fd5b506101bb60048036038101908080359060200190929190505050610d08565b6040518082815260200191505060405180910390f35b3480156101dd57600080fd5b50610212600480360381019080803573ffffffffffffffffffffffffffffffffffffffff169060200190929190505050610d69565b005b34801561022057600080fd5b50610229610e1f565b6040518082815260200191505060405180910390f35b34801561024b57600080fd5b50610294600480360381019080803573ffffffffffffffffffffffffffffffffffffffff1690602001909291908035906020019092919080359060200190929190505050610e24565b6040518082815260200191505060405180910390f35b3480156102b657600080fd5b506102e9600480360381019080803590602001909291908035906020019092919080359060200190929190505050611063565b6040518082815260200191505060405180910390f35b34801561030b57600080fd5b5061035e60048036038101908080359060200190929190803573ffffffffffffffffffffffffffffffffffffffff1690602001909291908035906020019092919080359060200190929190505050611253565b604051808215151515815260200191505060405180910390f35b34801561038457600080fd5b5061038d611674565b604051808273ffffffffffffffffffffffffffffffffffffffff1673ffffffffffffffffffffffffffffffffffffffff16815260200191505060405180910390f35b3480156103db57600080fd5b50610410600480360381019080803573ffffffffffffffffffffffffffffffffffffffff169060200190929190505050611699565b6040518082815260200191505060405180910390f35b34801561043257600080fd5b5061045160048036038101908080359060200190929190505050611791565b604051808215151515815260200191505060405180910390f35b34801561047757600080fd5b5061050c600480360381019080803590602001908201803590602001919091929391929390803573ffffffffffffffffffffffffffffffffffffffff1690602001909291908035906020019082018035906020019190919293919293908035906020019082018035906020019190919293919293908035906020019082018035906020019190919293919293905050506117e0565b604051808215151515815260200191505060405180910390f35b34801561053257600080fd5b506105516004803603810190808035906020019092919050505061191b565b604051808215151515815260200191505060405180910390f35b34801561057757600080fd5b506105a06004803603810190808035906020019092919080359060200190929190505050611a3e565b604051808215151515815260200191505060405180910390f35b3480156105c657600080fd5b506105e560048036038101908080359060200190929190505050611c2f565b604051808b73ffffffffffffffffffffffffffffffffffffffff1673ffffffffffffffffffffffffffffffffffffffff1681526020018a8152602001898152602001888152602001878152602001868152602001858152602001848152602001838152602001821515151581526020019a505050505050505050505060405180910390f35b34801561067657600080fd5b506106ab600480360381019080803573ffffffffffffffffffffffffffffffffffffffff169060200190929190505050611cb0565b6040518082815260200191505060405180910390f35b3480156106cd57600080fd5b5061070c600480360381019080803573ffffffffffffffffffffffffffffffffffffffff16906020019092919080359060200190929190505050611ccb565b604051808215151515815260200191505060405180910390f35b34801561073257600080fd5b506107856004803603810190808035906020019092919080359060200190929190803573ffffffffffffffffffffffffffffffffffffffff16906020019092919080359060200190929190505050611d4a565b604051808215151515815260200191505060405180910390f35b3480156107ab57600080fd5b506107ca60048036038101908080359060200190929190505050611d8e565b604051808215151515815260200191505060405180910390f35b3480156107f057600080fd5b506108436004803603810190808035906020019092919080359060200190929190803573ffffffffffffffffffffffffffffffffffffffff16906020019092919080359060200190929190505050611da9565b6040518082815260200191505060405180910390f35b34801561086557600080fd5b5061086e611fbc565b6040518082815260200191505060405180910390f35b34801561089057600080fd5b506108cf600480360381019080803573ffffffffffffffffffffffffffffffffffffffff16906020019092919080359060200190929190505050611fc2565b60405180826000191660001916815260200191505060405180910390f35b3480156108f957600080fd5b5061091860048036038101908080359060200190929190505050612091565b604051808215151515815260200191505060405180910390f35b34801561093e57600080fd5b5061097d600480360381019080803573ffffffffffffffffffffffffffffffffffffffff169060200190929190803590602001909291905050506120ce565b604051808215151515815260200191505060405180910390f35b3480156109a357600080fd5b506109ec600480360381019080803573ffffffffffffffffffffffffffffffffffffffff169060200190929190803590602001909291908035906020019092919050505061214d565b6040518082815260200191505060405180910390f35b348015610a0e57600080fd5b50610a2d600480360381019080803590602001909291905050506122b3565b604051808215151515815260200191505060405180910390f35b348015610a5357600080fd5b50610a92600480360381019080803573ffffffffffffffffffffffffffffffffffffffff169060200190929190803590602001909291905050506122e0565b6040518082815260200191505060405180910390f35b348015610ab457600080fd5b50610af3600480360381019080803573ffffffffffffffffffffffffffffffffffffffff169060200190929190803590602001909291905050506123e5565b60405180826000191660001916815260200191505060405180910390f35b348015610b1d57600080fd5b50610b3c600480360381019080803590602001909291905050506124ed565b604051808215151515815260200191505060405180910390f35b348015610b6257600080fd5b50610bc360048036038101908080359060200190929190803573ffffffffffffffffffffffffffffffffffffffff169060200190929190803560001916906020019092919080359060200190929190803590602001909291905050506124f9565b604051808215151515815260200191505060405180910390f35b348015610be957600080fd5b50610c0860048036038101908080359060200190929190505050612c1a565b604051808215151515815260200191505060405180910390f35b348015610c2e57600080fd5b50610cab600480360381019080803590602001908201803590602001919091929391929390803573ffffffffffffffffffffffffffffffffffffffff169060200190929190803590602001908201803590602001919091929391929390803590602001908201803590602001919091929391929390505050612c56565b604051808215151515815260200191505060405180910390f35b348015610cd157600080fd5b50610d06600480360381019080803573ffffffffffffffffffffffffffffffffffffffff169060200190929190505050612d62565b005b6000610d1382612c1a565b1515610d1e57600080fd5b610d278261191b565b15610d4a5760036000838152602001908152602001600020600401549050610d64565b600360008381526020019081526020016000206005015490505b919050565b6000809054906101000a900473ffffffffffffffffffffffffffffffffffffffff1673ffffffffffffffffffffffffffffffffffffffff163373ffffffffffffffffffffffffffffffffffffffff16141515610dc457600080fd5b6000600160008373ffffffffffffffffffffffffffffffffffffffff1673ffffffffffffffffffffffffffffffffffffffff16815260200190815260200160002060006101000a81548160ff02191690831515021790555050565b600081565b6000806000610e3286611699565b9150610e3e86836122e0565b90505b60008214151561105657610e5586836122e0565b90508481111515610f615783821415610f5957600460008773ffffffffffffffffffffffffffffffffffffffff1673ffffffffffffffffffffffffffffffffffffffff16815260200190815260200160002073__DLL___________________________________6330fe0a0a9091846040518363ffffffff167c0100000000000000000000000000000000000000000000000000000000028152600401808381526020018281526020019250505060206040518083038186803b158015610f1b57600080fd5b505af4158015610f2f573d6000803e3d6000fd5b505050506040513d6020811015610f4557600080fd5b810190808051906020019092919050505091505b81925061105a565b600460008773ffffffffffffffffffffffffffffffffffffffff1673ffffffffffffffffffffffffffffffffffffffff16815260200190815260200160002073__DLL___________________________________6330fe0a0a9091846040518363ffffffff167c0100000000000000000000000000000000000000000000000000000000028152600401808381526020018281526020019250505060206040518083038186803b15801561101457600080fd5b505af4158015611028573d6000803e3d6000fd5b505050506040513d602081101561103e57600080fd5b81019080805190602001909291905050509150610e41565b8192505b50509392505050565b60008060003360011515600160008373ffffffffffffffffffffffffffffffffffffffff1673ffffffffffffffffffffffffffffffffffffffff16815260200190815260200160002060009054906101000a900460ff1615151415156110c857600080fd5b6110de6001600254612e1790919063ffffffff16565b6002819055506110f78642612e1790919063ffffffff16565b925061110c8584612e1790919063ffffffff16565b9150610140604051908101604052803373ffffffffffffffffffffffffffffffffffffffff16815260200184815260200183815260200188815260200160008152602001600081526020016000815260200160008152602001600081526020016000151581525060036000600254815260200190815260200160002060008201518160000160006101000a81548173ffffffffffffffffffffffffffffffffffffffff021916908373ffffffffffffffffffffffffffffffffffffffff1602179055506020820151816001015560408201518160020155606082015181600301556080820151816004015560a0820151816005015560c0820151816006015560e0820151816007015561010082015181600801556101208201518160090160006101000a81548160ff02191690831515021790555090505060025493505050509392505050565b6000803360011515600160008373ffffffffffffffffffffffffffffffffffffffff1673ffffffffffffffffffffffffffffffffffffffff16815260200190815260200160002060009054906101000a900460ff1615151415156112b657600080fd5b6112bf87611791565b15156112ca57600080fd5b60036000888152602001908152602001600020600a0160008773ffffffffffffffffffffffffffffffffffffffff1673ffffffffffffffffffffffffffffffffffffffff16815260200190815260200160002060009054906101000a900460ff16151561133657600080fd5b60036000888152602001908152602001600020600b0160008773ffffffffffffffffffffffffffffffffffffffff1673ffffffffffffffffffffffffffffffffffffffff16815260200190815260200160002060009054906101000a900460ff161515156113a357600080fd5b6113ad86886123e5565b60001916858560405160200180838152602001828152602001925050506040516020818303038152906040526040518082805190602001908083835b60208310151561140e57805182526020820191506020810190506020830392506113e9565b6001836020036101000a03801982511681845116808217855250505050505090500191505060405180910390206000191614151561144b57600080fd5b61145586886122e0565b915061148082600360008a815260200190815260200160002060060154612e3390919063ffffffff16565b600360008981526020019081526020016000206006018190555060018514156114eb576114cc82600360008a815260200190815260200160002060040154612e1790919063ffffffff16565b600360008981526020019081526020016000206004018190555061152f565b61151482600360008a815260200190815260200160002060050154612e1790919063ffffffff16565b60036000898152602001908152602001600020600501819055505b600460008773ffffffffffffffffffffffffffffffffffffffff1673ffffffffffffffffffffffffffffffffffffffff16815260200190815260200160002073__DLL___________________________________636d900ed09091896040518363ffffffff167c0100000000000000000000000000000000000000000000000000000000028152600401808381526020018281526020019250505060006040518083038186803b1580156115e257600080fd5b505af41580156115f6573d6000803e3d6000fd5b50505050600160036000898152602001908152602001600020600b0160008873ffffffffffffffffffffffffffffffffffffffff1673ffffffffffffffffffffffffffffffffffffffff16815260200190815260200160002060006101000a81548160ff021916908315150217905550600192505050949350505050565b6000809054906101000a900473ffffffffffffffffffffffffffffffffffffffff1681565b6000600460008373ffffffffffffffffffffffffffffffffffffffff1673ffffffffffffffffffffffffffffffffffffffff16815260200190815260200160002073__DLL___________________________________6330fe0a0a909160006040518363ffffffff167c0100000000000000000000000000000000000000000000000000000000028152600401808381526020018281526020019250505060206040518083038186803b15801561174f57600080fd5b505af4158015611763573d6000803e3d6000fd5b505050506040513d602081101561177957600080fd5b81019080805190602001909291905050509050919050565b600061179c82611d8e565b15156117a757600080fd5b6117c660036000848152602001908152602001600020600201546124ed565b1580156117d957506117d782612091565b155b9050919050565b6000803360011515600160008373ffffffffffffffffffffffffffffffffffffffff1673ffffffffffffffffffffffffffffffffffffffff16815260200190815260200160002060009054906101000a900460ff16151514151561184357600080fd5b888890508c8c905014151561185757600080fd5b868690508c8c905014151561186b57600080fd5b848490508c8c905014151561187f57600080fd5b600091505b8b8b9050821015611908576118f08c8c8481811015156118a057fe5b905060200201358b8b8b8681811015156118b657fe5b90506020020135600019168a8a8781811015156118cf57fe5b9050602002013589898881811015156118e457fe5b905060200201356124f9565b15156118fb57600080fd5b8180600101925050611884565b6001925050509998505050505050505050565b6000611925612e9a565b61192e83612c1a565b151561193957600080fd5b6003600084815260200190815260200160002061014060405190810160405290816000820160009054906101000a900473ffffffffffffffffffffffffffffffffffffffff1673ffffffffffffffffffffffffffffffffffffffff1673ffffffffffffffffffffffffffffffffffffffff16815260200160018201548152602001600282015481526020016003820154815260200160048201548152602001600582015481526020016006820154815260200160078201548152602001600882015481526020016009820160009054906101000a900460ff16151515158152505090508060a00151816080015101816060015102816080015160640211915050919050565b60003360011515600160008373ffffffffffffffffffffffffffffffffffffffff1673ffffffffffffffffffffffffffffffffffffffff16815260200190815260200160002060009054906101000a900460ff161515141515611aa057600080fd5b611aa984612c1a565b1515611ab457600080fd5b611abd8461191b565b15611b635760036000858152602001908152602001600020600401546003600086815260200190815260200160002060070181905550611b4483611b3660036000888152602001908152602001600020600601546003600089815260200190815260200160002060050154612e1790919063ffffffff16565b612e1790919063ffffffff16565b6003600086815260200190815260200160002060080181905550611bee565b60036000858152602001908152602001600020600501546003600086815260200190815260200160002060080181905550611bd360036000868152602001908152602001600020600601546003600087815260200190815260200160002060040154612e1790919063ffffffff16565b60036000868152602001908152602001600020600701819055505b60016003600086815260200190815260200160002060090160006101000a81548160ff021916908315150217905550611c268461191b565b91505092915050565b60036020528060005260406000206000915090508060000160009054906101000a900473ffffffffffffffffffffffffffffffffffffffff16908060010154908060020154908060030154908060040154908060050154908060060154908060070154908060080154908060090160009054906101000a900460ff1690508a565b6000611cc482611cbf84611699565b6122e0565b9050919050565b6000611cd682611d8e565b1515611ce157600080fd5b60036000838152602001908152602001600020600a0160008473ffffffffffffffffffffffffffffffffffffffff1673ffffffffffffffffffffffffffffffffffffffff16815260200190815260200160002060009054906101000a900460ff16905092915050565b6000806000611d5985886122e0565b8410159150611d6885876122e0565b84111580611d765750600086145b9050818015611d825750805b92505050949350505050565b6000808214158015611da257506002548211155b9050919050565b6000803360011515600160008373ffffffffffffffffffffffffffffffffffffffff1673ffffffffffffffffffffffffffffffffffffffff16815260200190815260200160002060009054906101000a900460ff161515141515611e0c57600080fd5b6003600088815260200190815260200160002060090160009054906101000a900460ff161515611e3b57600080fd5b611e4585886120ce565b1515611e5057600080fd5b611e598761191b565b611e64576000611e67565b60015b60ff1691508186141515611e7a57600080fd5b839250611e868761191b565b8015611ea8575060006003600089815260200190815260200160002060080154115b15611f1757611f10611f01600360008a815260200190815260200160002060070154611ef3600360008c81526020019081526020016000206008015487612e4c90919063ffffffff16565b612e8490919063ffffffff16565b84612e1790919063ffffffff16565b9250611faf565b611f208761191b565b158015611f43575060006003600089815260200190815260200160002060070154115b15611fae57611fab611f9c600360008a815260200190815260200160002060080154611f8e600360008c81526020019081526020016000206007015487612e4c90919063ffffffff16565b612e8490919063ffffffff16565b84612e1790919063ffffffff16565b92505b5b8292505050949350505050565b60025481565b60008282604051602001808373ffffffffffffffffffffffffffffffffffffffff1673ffffffffffffffffffffffffffffffffffffffff166c01000000000000000000000000028152601401828152602001925050506040516020818303038152906040526040518082805190602001908083835b60208310151561205c5780518252602082019150602081019050602083039250612037565b6001836020036101000a0380198251168184511680821785525050505050509050019150506040518091039020905092915050565b600061209c82611d8e565b15156120a757600080fd5b6120c660036000848152602001908152602001600020600101546124ed565b159050919050565b60006120d982611d8e565b15156120e457600080fd5b60036000838152602001908152602001600020600b0160008473ffffffffffffffffffffffffffffffffffffffff1673ffffffffffffffffffffffffffffffffffffffff16815260200190815260200160002060009054906101000a900460ff16905092915050565b60008060008061215c86612c1a565b151561216757600080fd5b60036000878152602001908152602001600020600b0160008873ffffffffffffffffffffffffffffffffffffffff1673ffffffffffffffffffffffffffffffffffffffff16815260200190815260200160002060009054906101000a900460ff1615156121d357600080fd5b6121dc8661191b565b6121e75760006121ea565b60015b60ff169250828560405160200180838152602001828152602001925050506040516020818303038152906040526040518082805190602001908083835b60208310151561224c5780518252602082019150602081019050602083039250612227565b6001836020036101000a0380198251168184511680821785525050505050509050019150506040518091039020915061228587876123e5565b90508060001916826000191614151561229d57600080fd5b6122a787876122e0565b93505050509392505050565b60006003600083815260200190815260200160002060090160009054906101000a900460ff169050919050565b6000600573__AttributeStore________________________6350389f5c909161230a8686611fc2565b6040518363ffffffff167c010000000000000000000000000000000000000000000000000000000002815260040180838152602001826000191660001916815260200180602001828103825260098152602001807f6e756d546f6b656e730000000000000000000000000000000000000000000000815250602001935050505060206040518083038186803b1580156123a257600080fd5b505af41580156123b6573d6000803e3d6000fd5b505050506040513d60208110156123cc57600080fd5b8101908080519060200190929190505050905092915050565b6000600573__AttributeStore________________________6350389f5c909161240f8686611fc2565b6040518363ffffffff167c0100000000000000000000000000000000000000000000000000000000028152600401808381526020018260001916600019168152602001806020018281038252600a8152602001807f636f6d6d69744861736800000000000000000000000000000000000000000000815250602001935050505060206040518083038186803b1580156124a757600080fd5b505af41580156124bb573d6000803e3d6000fd5b505050506040513d60208110156124d157600080fd5b8101908080519060200190929190505050600102905092915050565b60008142119050919050565b60008060003360011515600160008373ffffffffffffffffffffffffffffffffffffffff1673ffffffffffffffffffffffffffffffffffffffff16815260200190815260200160002060009054906101000a900460ff16151514151561255e57600080fd5b6000891415151561256e57600080fd5b61257789612091565b151561258257600080fd5b61258c888a611ccb565b15151561259857600080fd5b6000861115156125a757600080fd5b60006001028760001916141515156125be57600080fd5b60008514806126b75750600460008973ffffffffffffffffffffffffffffffffffffffff1673ffffffffffffffffffffffffffffffffffffffff16815260200190815260200160002073__DLL___________________________________63366a5ba29091876040518363ffffffff167c0100000000000000000000000000000000000000000000000000000000028152600401808381526020018281526020019250505060206040518083038186803b15801561267b57600080fd5b505af415801561268f573d6000803e3d6000fd5b505050506040513d60208110156126a557600080fd5b81019080805190602001909291905050505b15156126c257600080fd5b600460008973ffffffffffffffffffffffffffffffffffffffff1673ffffffffffffffffffffffffffffffffffffffff16815260200190815260200160002073__DLL___________________________________6307d29ac99091876040518363ffffffff167c0100000000000000000000000000000000000000000000000000000000028152600401808381526020018281526020019250505060206040518083038186803b15801561277557600080fd5b505af4158015612789573d6000803e3d6000fd5b505050506040513d602081101561279f57600080fd5b81019080805190602001909291905050509250888314156128ab57600460008973ffffffffffffffffffffffffffffffffffffffff1673ffffffffffffffffffffffffffffffffffffffff16815260200190815260200160002073__DLL___________________________________6307d29ac990918b6040518363ffffffff167c0100000000000000000000000000000000000000000000000000000000028152600401808381526020018281526020019250505060206040518083038186803b15801561286d57600080fd5b505af4158015612881573d6000803e3d6000fd5b505050506040513d602081101561289757600080fd5b810190808051906020019092919050505092505b6128b785848a89611d4a565b15156128c257600080fd5b600460008973ffffffffffffffffffffffffffffffffffffffff1673ffffffffffffffffffffffffffffffffffffffff16815260200190815260200160002073__DLL___________________________________639735c51b9091878c876040518563ffffffff167c01000000000000000000000000000000000000000000000000000000000281526004018085815260200184815260200183815260200182815260200194505050505060006040518083038186803b15801561298557600080fd5b505af4158015612999573d6000803e3d6000fd5b505050506129a7888a611fc2565b9150600573__AttributeStore________________________63977aa031909184896040518463ffffffff167c010000000000000000000000000000000000000000000000000000000002815260040180848152602001836000191660001916815260200180602001838152602001828103825260098152602001807f6e756d546f6b656e73000000000000000000000000000000000000000000000081525060200194505050505060006040518083038186803b158015612a6857600080fd5b505af4158015612a7c573d6000803e3d6000fd5b50505050600573__AttributeStore________________________63977aa0319091848a600190046040518463ffffffff167c0100000000000000000000000000000000000000000000000000000000028152600401808481526020018360001916600019168152602001806020018381526020018281038252600a8152602001807f636f6d6d6974486173680000000000000000000000000000000000000000000081525060200194505050505060006040518083038186803b158015612b4357600080fd5b505af4158015612b57573d6000803e3d6000fd5b505050506001600360008b8152602001908152602001600020600a0160008a73ffffffffffffffffffffffffffffffffffffffff1673ffffffffffffffffffffffffffffffffffffffff16815260200190815260200160002060006101000a81548160ff021916908315150217905550612bf086600360008c815260200190815260200160002060060154612e1790919063ffffffff16565b600360008b8152602001908152602001600020600601819055506001935050505095945050505050565b6000612c2582611d8e565b1515612c3057600080fd5b612c4f60036000848152602001908152602001600020600201546124ed565b9050919050565b6000803360011515600160008373ffffffffffffffffffffffffffffffffffffffff1673ffffffffffffffffffffffffffffffffffffffff16815260200190815260200160002060009054906101000a900460ff161515141515612cb957600080fd5b868690508a8a9050141515612ccd57600080fd5b848490508a8a9050141515612ce157600080fd5b600091505b89899050821015612d5157612d398a8a848181101515612d0257fe5b90506020020135898989868181101515612d1857fe5b905060200201358888878181101515612d2d57fe5b90506020020135611253565b1515612d4457600080fd5b8180600101925050612ce6565b600192505050979650505050505050565b6000809054906101000a900473ffffffffffffffffffffffffffffffffffffffff1673ffffffffffffffffffffffffffffffffffffffff163373ffffffffffffffffffffffffffffffffffffffff16141515612dbd57600080fd5b60018060008373ffffffffffffffffffffffffffffffffffffffff1673ffffffffffffffffffffffffffffffffffffffff16815260200190815260200160002060006101000a81548160ff02191690831515021790555050565b60008183019050828110151515612e2a57fe5b80905092915050565b6000828211151515612e4157fe5b818303905092915050565b600080831415612e5f5760009050612e7e565b8183029050818382811515612e7057fe5b04141515612e7a57fe5b8090505b92915050565b60008183811515612e9157fe5b04905092915050565b61014060405190810160405280600073ffffffffffffffffffffffffffffffffffffffff168152602001600081526020016000815260200160008152602001600081526020016000815260200160008152602001600081526020016000815260200160001515815250905600a165627a7a72305820324e29c5252bf2b7cdbbd24577553950b8057b4abccf7eb4981f1691dbb3045f0029",
  "source": "pragma solidity ^0.4.24;\n\nimport \"./libraries/DLL.sol\";\nimport \"./libraries/AttributeStore.sol\";\nimport \"./libraries/SafeMath.sol\";\n\n// Modified version of the PLCR voting scheme by Mike Goldin (ConsenSys)\n// https://github.com/ConsenSys/PLCRVoting\n\ncontract weeveVoting {\n\n    using AttributeStore for AttributeStore.Data;\n    using DLL for DLL.Data;\n    using SafeMath for uint;\n\n    struct Poll {\n        address initiatingContract;\n        uint256 commitEndDate;\n        uint256 revealEndDate;\n        uint256 voteQuorum;\t    /// number of votes required for a proposal to pass\n        uint256 votesFor;\t\t    /// tally of votes supporting proposal\n        uint256 votesAgainst;      /// tally of votes countering proposal\n        uint256 votesUnrevealed;\n        uint256 endTokensFor;\n        uint256 endTokensAgainst;\n        bool isResolved;\n        mapping(address => bool) didCommit;  /// indicates whether an address committed a vote for this poll\n        mapping(address => bool) didReveal;   /// indicates whether an address revealed a vote for this poll\n    }\n\n    // address of the weeve Factory\n    address public weeveFactoryAddress = 0x0000000000000000000000000000000000000000;\n    \n    // maps the addresses of contracts that are allowed to call this contracts functions\n    mapping (address => bool) weeveContracts;\n\n    // nonce of the current poll\n    uint256 constant public INITIAL_POLL_NONCE = 0;\n    uint256 public pollNonce;\n\n    // maps pollID to Poll struct\n    mapping(uint256 => Poll) public pollMap; \n\n    // maps users addresses to their doubly-linked list of pollIDs\n    mapping(address => DLL.Data) dllMap;\n\n    // attribute store fot the users vote hashes and number of tTokens per vote\n    AttributeStore.Data store;\n\n    constructor() public {\n        pollNonce = INITIAL_POLL_NONCE;\n    }\n\n    // Adding a new contracts address that will be allowed to use this contract    \n    function addWeeveContract(address _newContract) public {\n        require(msg.sender == weeveFactoryAddress);\n        weeveContracts[_newContract] = true;\n    }\n    \n    // Removing a contracts address that won't be allowed to use this contract anymore\n    function removeWeeveContract(address _obsoleteContract) public {\n        require(msg.sender == weeveFactoryAddress);\n        weeveContracts[_obsoleteContract] = false;\n    }\n\n    // Unlocks tokens locked in unrevealed vote where poll has ended\n    //function rescueTokens(uint256 _pollID) public {\n    //    require(isExpired(pollMap[_pollID].revealEndDate));\n    //    require(dllMap[msg.sender].contains(_pollID));\n    //\n    //    dllMap[msg.sender].remove(_pollID);\n    //}\n\n    // Unlocks tokens locked in unrevealed votes where polls have ended\n    //function rescueTokensInMultiplePolls(uint[] _pollIDs) public {\n    //    // loop through arrays, rescuing tokens from all\n    //    for (uint256 i = 0; i < _pollIDs.length; i++) {\n    //        rescueTokens(_pollIDs[i]);\n    //    }\n    //}\n\n    // Commits vote using hash of choice and secret salt to conceal vote until reveal\n    function commitVote(uint256 _pollID, address _address, bytes32 _secretHash, uint256 _numTokens, uint256 _prevPollID) public calledByWeeveContract(msg.sender) returns (bool) {\n        require(_pollID != 0);\n        require(commitPeriodActive(_pollID));\n        require(!didCommit(_address, _pollID));\n\n        // Can't vote with zero tokens\n        require(_numTokens > 0);\n\n        // prevent user from committing a secretHash of 0\n        require(_secretHash != 0);\n\n        // Check if _prevPollID exists in the user's DLL or if _prevPollID is 0\n        require(_prevPollID == 0 || dllMap[_address].contains(_prevPollID));\n        uint256 nextPollID = dllMap[_address].getNext(_prevPollID);\n\n        // edge case: in-place update\n        if (nextPollID == _pollID) {\n            nextPollID = dllMap[_address].getNext(_pollID);\n        }\n\n        require(validPosition(_prevPollID, nextPollID, _address, _numTokens));\n        dllMap[_address].insert(_prevPollID, _pollID, nextPollID);\n\n        bytes32 UUID = attrUUID(_address, _pollID);\n\n        store.setAttribute(UUID, \"numTokens\", _numTokens);\n        store.setAttribute(UUID, \"commitHash\", uint(_secretHash));\n\n        pollMap[_pollID].didCommit[_address] = true;\n\n        // Adding the number of tokens to the count of unrevealed tokens\n        pollMap[_pollID].votesUnrevealed = pollMap[_pollID].votesUnrevealed.add(_numTokens);\n        \n        return true;\n    }\n\n    // Commits votes using hashes of choices and secret salts to conceal votes until reveal\n    function commitVotes(uint[] _pollIDs, address _address, bytes32[] _secretHashes, uint[] _numsTokens, uint[] _prevPollIDs) external calledByWeeveContract(msg.sender) returns(bool) {\n        // make sure the array lengths are all the same\n        require(_pollIDs.length == _secretHashes.length);\n        require(_pollIDs.length == _numsTokens.length);\n        require(_pollIDs.length == _prevPollIDs.length);\n\n        // loop through arrays, committing each individual vote values\n        for (uint i = 0; i < _pollIDs.length; i++) {\n            require(commitVote(_pollIDs[i], _address, _secretHashes[i], _numsTokens[i], _prevPollIDs[i]));\n        }\n\n        return true;\n    }\n\n    // Compares previous and next poll's committed tokens for sorting purposes\n    function validPosition(uint256 _prevID, uint256 _nextID, address _voter, uint256 _numTokens) public view returns (bool valid) {\n        bool prevValid = (_numTokens >= getNumTokens(_voter, _prevID));\n        // if next is zero node, _numTokens does not need to be greater\n        bool nextValid = (_numTokens <= getNumTokens(_voter, _nextID) || _nextID == 0);\n        return prevValid && nextValid;\n    }\n\n    // Reveals vote with choice and secret salt used in generating commitHash to attribute committed tokens\n    function revealVote(uint256 _pollID, address _address, uint256 _voteOption, uint256 _salt) public calledByWeeveContract(msg.sender) returns(bool) {\n        // Make sure the reveal period is active\n        require(revealPeriodActive(_pollID));\n        require(pollMap[_pollID].didCommit[_address]);\n        require(!pollMap[_pollID].didReveal[_address]);\n\n        // compare resultant hash from inputs to original commitHash\n        require(keccak256(abi.encodePacked(_voteOption, _salt)) == getCommitHash(_address, _pollID));\n\n        uint256 numTokens = getNumTokens(_address, _pollID);\n\n        // remove the users tokens from the unrevealed tokens\n        pollMap[_pollID].votesUnrevealed = pollMap[_pollID].votesUnrevealed.sub(numTokens);\n        \n        // add the tokens to the according counter\n        if (_voteOption == 1) {\n            pollMap[_pollID].votesFor = pollMap[_pollID].votesFor.add(numTokens);\n        } else {\n            pollMap[_pollID].votesAgainst = pollMap[_pollID].votesAgainst.add(numTokens);\n        }\n\n        // remove the node referring to this vote upon reveal\n        dllMap[_address].remove(_pollID);\n        pollMap[_pollID].didReveal[_address] = true;\n\n        return true;\n    }\n\n    // Reveals multiple votes with choices and secret salts used in generating commitHashes to attribute committed tokens\n    function revealVotes(uint[] _pollIDs, address _address, uint[] _voteOptions, uint[] _salts) external calledByWeeveContract(msg.sender) returns(bool) {\n        // make sure the array lengths are all the same\n        require(_pollIDs.length == _voteOptions.length);\n        require(_pollIDs.length == _salts.length);\n\n        // loop through arrays, revealing each individual vote values\n        for (uint i = 0; i < _pollIDs.length; i++) {\n            require(revealVote(_pollIDs[i], _address, _voteOptions[i], _salts[i]));\n        }\n        \n        return true;\n    }\n\n    // Resolves a vote: calculated the endToken count for the payout of participants\n    function resolveVote(uint256 _pollID, uint256 _securityDeposit) external calledByWeeveContract(msg.sender) returns(bool votePassed) {\n        require(pollEnded(_pollID));\n\n        // Adds the tokens of the ones who did not vote according what was the right decision to the ones who did not reveal their vote in time\n        // Also adds the security deposit of the challenged entitiy if the vote passed\n        if(isPassed(_pollID)) {\n            pollMap[_pollID].endTokensFor = pollMap[_pollID].votesFor;\n            pollMap[_pollID].endTokensAgainst = pollMap[_pollID].votesAgainst.add(pollMap[_pollID].votesUnrevealed).add(_securityDeposit);\n        } else {\n            pollMap[_pollID].endTokensAgainst = pollMap[_pollID].votesAgainst;\n            pollMap[_pollID].endTokensFor = pollMap[_pollID].votesFor.add(pollMap[_pollID].votesUnrevealed);\n        }\n\n        pollMap[_pollID].isResolved = true;\n        \n        return isPassed(_pollID);\n    }\n    \n    // Allowing users who voted according to what the right decision was to claim their \"reward\" after the vote ended\n    function claimReward(uint256 _pollID, uint256 _voteOption, address _address, uint256 _stakedTokens) public view calledByWeeveContract(msg.sender) returns(uint256 reward) {\n        // vote needs to be resolved and only users who revealed their vote\n        require(pollMap[_pollID].isResolved);\n        require(didReveal(_address, _pollID));\n\n        uint256 rightOption = isPassed(_pollID) ? 1 : 0;\n        \n        // only users who voted for the winning option \n        require(_voteOption == rightOption);\n\n        // calculcate the reward (their tokens plus their share of the tokens of the losing side)\n        reward = _stakedTokens;\n        if(isPassed(_pollID) && pollMap[_pollID].endTokensAgainst > 0) {\n            reward = reward.add((reward.mul(pollMap[_pollID].endTokensAgainst)).div(pollMap[_pollID].endTokensFor));\n        } else if(!isPassed(_pollID) && pollMap[_pollID].endTokensFor > 0) {\n            reward = reward.add((reward.mul(pollMap[_pollID].endTokensFor)).div(pollMap[_pollID].endTokensAgainst));\n        }\n\n        return reward;\n    }\n    \n    // returns the number of tokens that a voter has used in a specific vote\n    function getNumPassingTokens(address _voter, uint256 _pollID, uint256 _salt) public view returns (uint256 correctVotes) {\n        require(pollEnded(_pollID));\n        require(pollMap[_pollID].didReveal[_voter]);\n\n        uint256 winningChoice = isPassed(_pollID) ? 1 : 0;\n        bytes32 winnerHash = keccak256(abi.encodePacked(winningChoice, _salt));\n        bytes32 commitHash = getCommitHash(_voter, _pollID);\n\n        require(winnerHash == commitHash);\n\n        return getNumTokens(_voter, _pollID);\n    }\n\n    // Initiates a vote with canonical configured parameters\n    function startPoll(uint256 _voteQuorum, uint256 _commitDuration, uint256 _revealDuration) public calledByWeeveContract(msg.sender) returns (uint256 pollID) {\n        pollNonce = pollNonce.add(1);\n\n        uint256 commitEndDate = block.timestamp.add(_commitDuration);\n        uint256 revealEndDate = commitEndDate.add(_revealDuration);\n\n        pollMap[pollNonce] = Poll({\n            initiatingContract: msg.sender,\n            voteQuorum: _voteQuorum,\n            commitEndDate: commitEndDate,\n            revealEndDate: revealEndDate,\n            votesFor: 0,\n            votesAgainst: 0,\n            votesUnrevealed: 0,\n            endTokensFor: 0,\n            endTokensAgainst: 0,\n            isResolved: false\n        });\n        \n        return pollNonce;\n    }\n\n    // Determines if vote has passed\n    function isPassed(uint256 _pollID) public view returns (bool passed) {\n        require(pollEnded(_pollID));\n\n        Poll memory poll = pollMap[_pollID];\n        return (100 * poll.votesFor) > (poll.voteQuorum * (poll.votesFor + poll.votesAgainst));\n    }\n    \n    // Determines if a vote is resolved\n    function isResolved(uint256 _pollID) public view returns (bool resolved) {\n        return pollMap[_pollID].isResolved;\n    }\n\n    // Voting-Helper functions\n\n    // Returns the total number of tokens that voted for the winnig option\n    function getTotalNumberOfTokensForWinningOption(uint256 _pollID) public view returns (uint256 numTokens) {\n        require(pollEnded(_pollID));\n\n        if (isPassed(_pollID))\n            return pollMap[_pollID].votesFor;\n        else\n            return pollMap[_pollID].votesAgainst;\n    }\n\n    // Determines if vote is over\n    function pollEnded(uint256 _pollID) public view returns (bool ended) {\n        require(pollExists(_pollID));\n\n        return isExpired(pollMap[_pollID].revealEndDate);\n    }\n\n    // Checks if an expiration date has been reached\n    function isExpired(uint256 _terminationDate) public view returns (bool expired) {\n        return (block.timestamp > _terminationDate);\n    }\n\n    // Checks if the commit period is still active for the specified vote\n    function commitPeriodActive(uint256 _pollID) public view returns (bool active) {\n        require(pollExists(_pollID));\n\n        return !isExpired(pollMap[_pollID].commitEndDate);\n    }\n\n    // Checks if the reveal period is still active for the specified vote\n    function revealPeriodActive(uint256 _pollID) public view returns (bool active) {\n        require(pollExists(_pollID));\n\n        return !isExpired(pollMap[_pollID].revealEndDate) && !commitPeriodActive(_pollID);\n    }\n\n    // Checks if user has committed for specified vote\n    function didCommit(address _voter, uint256 _pollID) public view returns (bool committed) {\n        require(pollExists(_pollID));\n\n        return pollMap[_pollID].didCommit[_voter];\n    }\n\n    // Checks if user has revealed for specified vote\n    function didReveal(address _voter, uint256 _pollID) public view returns (bool revealed) {\n        require(pollExists(_pollID));\n\n        return pollMap[_pollID].didReveal[_voter];\n    }\n\n    // Checks if a vote exists\n    function pollExists(uint256 _pollID) public view returns (bool exists) {\n        return (_pollID != 0 && _pollID <= pollNonce);\n    }\n\n    // Doubly-linked list helpers\n\n    // Gets the bytes32 commitHash property of target vote\n    function getCommitHash(address _voter, uint256 _pollID) public view returns (bytes32 commitHash) {\n        return bytes32(store.getAttribute(attrUUID(_voter, _pollID), \"commitHash\"));\n    }\n\n    // Wrapper for getAttribute with attrName=\"numTokens\"\n    function getNumTokens(address _voter, uint256 _pollID) public view returns (uint256 numTokens) {\n        return store.getAttribute(attrUUID(_voter, _pollID), \"numTokens\");\n    }\n\n    // Gets top element of sorted poll-linked-list\n    function getLastNode(address _voter) public view returns (uint256 pollID) {\n        return dllMap[_voter].getPrev(0);\n    }\n\n    // Gets the numTokens property of getLastNode\n    function getLockedTokens(address _voter) public view returns (uint256 numTokens) {\n        return getNumTokens(_voter, getLastNode(_voter));\n    }\n\n    // Takes the last node in the user's DLL and iterates backwards through the list searching\n    // for a node with a value less than or equal to the provided _numTokens value. When such a node\n    // is found, if the provided _pollID matches the found nodeID, this operation is an in-place\n    // update. In that case, return the previous node of the node being updated. Otherwise return the\n    // first node that was found with a value less than or equal to the provided _numTokens.\n    function getInsertPointForNumTokens(address _voter, uint256 _numTokens, uint256 _pollID) public view returns (uint256 prevNode) {\n        // Get the last node in the list and the number of tokens in that node\n        uint256 nodeID = getLastNode(_voter);\n        uint256 tokensInNode = getNumTokens(_voter, nodeID);\n\n        // Iterate backwards through the list until reaching the root node\n        while(nodeID != 0) {\n            // Get the number of tokens in the current node\n            tokensInNode = getNumTokens(_voter, nodeID);\n            if(tokensInNode <= _numTokens) { // We found the insert point!\n                if(nodeID == _pollID) {\n                    // This is an in-place update. Return the prev node of the node being updated\n                    nodeID = dllMap[_voter].getPrev(nodeID);\n                }\n                // Return the insert point\n                return nodeID; \n            }\n            // We did not find the insert point. Continue iterating backwards through the list\n            nodeID = dllMap[_voter].getPrev(nodeID);\n        }\n\n        // The list is empty, or a smaller value than anything else in the list is being inserted\n        return nodeID;\n    }\n\n    // General helper functions\n\n    // Generates an identifier which associates a user and a vote together\n    function attrUUID(address _user, uint256 _pollID) public pure returns (bytes32 UUID) {\n        return keccak256(abi.encodePacked(_user, _pollID));\n    }\n    \n    // Modifier: function can only be called by a listed weeve contract\n    modifier calledByWeeveContract (address _address) {\n        require(weeveContracts[_address] == true);\n        _;\n    }\n}",
  "sourcePath": "/home/meyerhoeferb/weeve/weeveresearch/contracts/weeveVoting.sol",
  "compiler": {
    "name": "solc",
    "version": "0.4.24+commit.e67f0147.Emscripten.clang"
  },
  "schemaVersion": "2.0.0",
  "updatedAt": "2018-07-10T08:25:26.283Z"
}